:020000040800F2
:10000000B8150020C1010008511300085D12000856
:100010004D13000897090008551D00080000000056
:100020000000000000000000000000007916000839
:100030006D0D00080000000061140008DD170008C5
:10004000DB010008DB010008DB010008DB01000820
:10005000DB010008DB010008DB010008DB01000810
:10006000DB010008DB010008DB010008DB01000800
:10007000DB010008DB010008DB010008DB010008F0
:10008000DB010008DB010008DB010008DB010008E0
:10009000DB010008DB010008DB010008890E000815
:1000A000DB010008DB010008DB010008DB010008C0
:1000B000DB010008DB010008DB010008DB010008B0
:1000C000DB010008DB010008DB010008DB010008A0
:1000D000DB010008DB010008DB010008DB01000890
:1000E000450E0008DB010008DB010008DB01000809
:1000F000DB010008DB010008D5180008DB0100085F
:10010000DB010008DB010008DB010008DB0100085F
:10011000DB010008DB010008DB010008DB0100084F
:10012000DB010008DB010008DB010008DB0100083F
:10013000DB010008DB010008DB010008DB0100082F
:10014000DB010008DB010008DB010008DB0100081F
:10015000DB010008DB010008DB010008DB0100080F
:10016000DB010008DB010008DB010008DB010008FF
:10017000DB010008DB010008DB010008DB010008EF
:10018000DB010008DB010008DB010008DB010008DF
:10019000DB010008DB010008DB010008DB010008CF
:1001A000DB010008DB010008DB010008DFF80CD0F0
:1001B00000F008FB0048004729270008B815002078
:1001C0000648804706480047FEE7FEE7FEE7FEE7F1
:1001D000FEE7FEE7FEE7FEE7FEE7FEE7E1170008C1
:1001E000AD0100082DE9FE4F804681EA0300C00FF3
:1001F0000C46009021F0004123F00045B8EB0200CE
:10020000A94105D24046214690461C460B4602466F
:1002100023F00040104347D0270DC7F30A00C3F373
:100220000A510290401A019040286BDAC3F3130080
:1002300040F4801B0098924620B10023D2EB030AC1
:1002400063EB0B0B01985946C0F14002504600F099
:10025000ECF906460D4650465946019A00F0F4F96D
:1002600010EB08006141002487EA115284EAE77329
:100270001A4340D0009A62B3019A012A4FEA07520A
:1002800015DC001B61EB02014FF0004202EA07524D
:10029000CDE90042001C41F5801132462B4600F0AA
:1002A0002BFA03B0BDE8F08F40462146F9E7001B6A
:1002B00061EB0201001C41F5801300185B4120181E
:1002C000A2F5001747EB030140EAD570B6196D415E
:1002D00011E06D084FEA360645EAC0754FEA07524D
:1002E000001B61EB0201001C41F5801149084FEA37
:1002F00030000019514132462B4603B0BDE8F04FA3
:1003000000F0EBB90098012240000023D0EB02027C
:1003100063EBE073009821464FEAE074B8EB00000D
:1003200061EB0401E9E783F000435BE781F0004102
:1003300058E72DE9FE4F81EA030404F0004421F060
:10034000004100944FF0000B23F0004350EA0104F9
:100350005ED052EA03045BD0C3F30A54C1F30A55DA
:100360002C44A4F2F3340194A0FB0254C1F3130112
:1003700041F48011C3F3130343F4801301FB0244DF
:1003800000FB034E840A970A44EA815447EA8357E4
:10039000A4FB076802958D0A05FB07854FEA932C9D
:1003A00004FB0C542705029D4FEA065847EA16370E
:1003B000B5EB08056EEB070C870E920E47EA811726
:1003C00042EA8312A7FB0201B6EB0B0164EB0004C7
:1003D0002B0D43EA0C335E1844EB1C50DA465146B1
:1003E000E7FB0201C5F313044FEA0B3343EA14534E
:1003F0004FEA0432019C43EA0603A4F10C04029480
:10040000009CCDE900B400F077F903B0BDE8F08FAF
:1004100000200146F9E72DE9F04D81EA030404F0DC
:10042000004B21F0004514464FF0000A23F0004134
:1004300050EA050220D054EA01021DD0C5F30A5744
:100440000246C5F31303C1F31300C1F30A5640F487
:10045000801543F48013A7EB0608101BD64608F25C
:10046000FD3873EB050002D308F1010801E0921892
:100470005B41B8F1000F03DA00200146BDE8F08DC2
:1004800000204FF48011064684460EE0171B73EBE4
:10049000050705D3121B63EB050306434CEA010C69
:1004A00049084FEA300092185B4150EA0107EDD14C
:1004B00052EA030012D082EA040083EA05010843ED
:1004C00005D0101BAB4106D20122002306E000221A
:1004D0004FF0004302E06FF0010253101AEB0600E8
:1004E0004CEB085110EB0A0041EB0B01BDE8F04D5D
:1004F00000F0F3B80EB540F2334102910021CDE98E
:1005000000110A460B4600F0F7F803B000BD00F0FA
:10051000004230F000400AD0C10D01F56071C0F317
:10052000160042EA0151C2084007114370470020FB
:100530000146704730B5041E71F1000404DB4FF032
:100540000044404264EB0101141E73F1000405DB1A
:100550001C464FF00043524263EB0403994208BF2C
:10056000904230BD01F0004330B421F0004150EA28
:10057000010206D00A0DA2F56072C1F31301002A30
:1005800002DC30BC00207047440F44EAC104C100C3
:10059000E01830BC00EBC25000F068B830B50B4634
:1005A000014600202022012409E021FA02F59D42A3
:1005B00005D303FA02F5491B04FA02F52844151E77
:1005C000A2F10102F1DC30BD2DE9F05F054600200B
:1005D00092469B4688460646814640241BE02846B4
:1005E00041464746224600F0FFF853465A46C01A95
:1005F000914110D311461846224600F016F82D1AE4
:1006000067EB01084F4622460120002100F00DF85B
:1006100017EB00094E41201EA4F10104DFDC48461F
:1006200031462A464346BDE8F09F202A04DB203AA3
:1006300000FA02F1002070479140C2F1200320FA35
:1006400003F3194390407047202A06DBCB17203A6A
:1006500041FA02F043EAE07306E041FA02F3D040C7
:10066000C2F1200291400843194670470029A8BFF3
:100670007047401C490008BF20F00100704710B4CB
:10068000B0FA80FC00FA0CF050EA010404BF10BC80
:10069000704749B1CCF1200421FA04F411FA0CF1AD
:1006A00018BF012121430843A3EB0C01CB1D4FEAE6
:1006B00000614FEA102042BF002010BC704700EBE1
:1006C000C35010440029A4BF10BC7047401C49000F
:1006D00008BF20F0010010BC704710B5141E73F164
:1006E000000408DA401C41F1000192185B411A43F2
:1006F00001D120F0010010BD2DE9F04D92469B463E
:1007000011B1B1FA81F202E0B0FA80F220329046E3
:10071000FFF78BFF04460F4640EA0A0041EA0B014F
:1007200053465A46084313D0114653EA010019D0E4
:10073000C8F14002504600F057F805460E465046B4
:1007400059464246FFF771FF084305D0012004E0F7
:1007500020463946BDE8F08D0020054346EAE076A4
:100760002C4337430A986305E40AA0EB08000022F3
:10077000FD0A44EA47540A3002D500200146E9E761
:10078000010510196941DDE9084500196941BDE815
:10079000F04DA2E7C1F30A52C1F3130140F2FF3357
:1007A00041F480119A4202DA00200146704740F27B
:1007B00033439A42A2F2334202DC524200F014B8B0
:1007C000FFF733BF064C074D06E0E06840F0010339
:1007D00094E8070098471034AC42F6D3FFF7EAFCE0
:1007E0005427000874270008202A04DB203A21FA45
:1007F00002F00021704721FA02F3D040C2F120023A
:10080000914008431946704721B1826842F00102C5
:10081000826003E0826822F001028260704700007B
:100820000021084A1168084A1140D0E900231A4300
:1008300083681A43C3681A431143044AC2F8041375
:100840007047000004230140E030FCFF002001401D
:100850000146C86C80B270470246002013680B4006
:100860000BB1012000E000207047000030B50246C7
:10087000002000235068104C20400D790C6844EA99
:1008800005242043506090680C4C2040D1E903546B
:100890002C438D682C434D7944EA450420439060F5
:1008A000D06A20F470000C7D641EE4B2234340EA59
:1008B0000350D06230BD0000FFFEFFFCFDF7FFC01B
:1008C000F0B504460D4600200021092D11DDE06839
:1008D000A5F10A0606EB4607072606FA07F1884344
:1008E000A5F10A0606EB460603FA06F10843E060A6
:1008F0000CE0206905EB4507072606FA07F1884357
:1009000005EB450603FA06F108432061072A0FDAD2
:10091000606B561E06EB86071F2606FA07F1884312
:10092000561E06EB860605FA06F10843606322E0D0
:100930000D2A0FDA206BD61F06EB86071F2606FA54
:1009400007F18843D61F06EB860605FA06F1084331
:10095000206310E0E06AA2F10D0606EB86071F2671
:1009600006FA07F18843A2F10D0606EB860605FAA2
:1009700006F10843E062F0BD816841F0804181608A
:10098000704700210160017141718160C1600161A6
:1009900001210175704700BFFEE710B500F0CCF8EB
:1009A00000F0C0F900F08AF900F0A2F810BD0000D4
:1009B00010B504460B48844209D10121480600F0D5
:1009C00071FD00214FF0007000F06CFD08E0012186
:1009D000880600F067FD00214FF0806000F062FDA6
:1009E00010BD00000064004010B50021837A012290
:1009F00002FA03F13D4A126842F001023B4B1A60D1
:100A00003A4A1C3212688A43384B1C331A60027B04
:100A1000CAB9364A0C3212688A43344B0C331A6016
:100A20004288C38842EA0343304A4032847A42F81B
:100A300034300288838842EA03432C4A4032847A65
:100A400002EBC4025360027B012A19D1274A0C32FF
:100A500012680A43254B0C331A604288038842EA25
:100A60000343224A4032847A42F83430C288838871
:100A700042EA03431D4A4032847A02EBC4025360C7
:100A8000C27A3AB9194A121D12688A43174B1B1DC4
:100A90001A6006E0154A121D12680A43134B1B1D0B
:100AA0001A60028932B9114A143212688A430F4B14
:100AB00014331A600289012A06D10C4A14321268D2
:100AC0000A430A4B14331A60427B012A06D1074AB3
:100AD0001C3212680A43054B1C331A60034A126821
:100AE00022F00102014B1A6010BD000000660040B8
:100AF0001FB50E208DF80A0000208DF80B00012094
:100B00008DF80C000020ADF80000ADF80200ADF843
:100B10000400ADF80600ADF8080001208DF80D00C6
:100B20006846FFF761FF01220221024800F032F817
:100B30001FBD0000006800401CB50121022000F02C
:100B400091FC09220C21124800F048FB09220621E1
:100B50000F4800F043FB4020009002208DF8040075
:100B60008DF8050000208DF8060001208DF80700A3
:100B70006946074800F0EAFA4FF4805000900220DE
:100B80008DF804006946024800F0E0FA1CBD000040
:100B9000000402401AB143690B43436102E0436918
:100BA0008B434361704730B5024600200023146830
:100BB00024F002041460146844F00104146000E09E
:100BC0005B1C546804F001041CB94FF6FF74A34287
:100BD000F6D1546804F001040CB900206CE08C7963
:100BE000012C04D1146844F08004146003E01468FC
:100BF00024F080041460CC79012C04D1146844F0F2
:100C00004004146003E0146824F0400414600C7A7B
:100C1000012C04D1146844F02004146003E014682B
:100C200024F0200414604C7A012C04D1146844F0A0
:100C30001004146003E0146824F0100414608C7A2B
:100C4000012C04D1146844F00804146003E0146813
:100C500024F008041460CC7A012C04D1146844F008
:100C60000404146003E0146824F0040414608C7815
:100C7000A407CD7844EA05640D7944EA05444D792A
:100C800044EA05540D886D1E2C43D461146824F089
:100C900001041460002300E05B1C546804F00104AC
:100CA0001CB14FF6FF74A342F6D1546804F001045E
:100CB0000CB1002000E0012030BD00000EB5012184
:100CC000480600F0DFFB0121880600F0DBFB14483A
:100CD000FFF76EFE684600F039F800208DF8060038
:100CE00001208DF807008DF8080000208DF809001C
:100CF0008DF80A008DF80B008DF8020001208DF8A8
:100D0000030004208DF8040002208DF80500052062
:100D1000ADF8000069460248FFF745FF0EBD000030
:100D20000068004008B54FF4C06000F08FFB402021
:100D30008DF8000000208DF801008DF802000120E0
:100D40008DF80300684600F045FB08BD0021817165
:100D5000C171017241728172C1728170C1700321CF
:100D6000017102214171012101807047704700002B
:100D700000B587B00121084600F074FB0121102066
:100D800000F0A0FB00208DF81A0001208DF81B0058
:100D900002208DF819008DF818000002059005A9B1
:100DA000184800F0D3F902208DF818004002059091
:100DB00005A9144800F0CAF907220A21114800F0D9
:100DC0000DFA072209210F4800F008FA4FF4E1302C
:100DD00001900020ADF80800ADF80A00ADF80C0055
:100DE000ADF810000C20ADF80E0001A9064800F087
:100DF00043FF00F0C8FA0121034800F0FEFE07B0EF
:100E000000BD0000000002400010014001228A40A5
:100E10000B4B1A6048B10A4A143A126801238B40FE
:100E20001A43074B143B1A6008E0054A143A12684B
:100E300001238B409A43024B143B1A607047000019
:100E4000143C014010B54FF4006000F0E1F8A8B187
:100E50000B480088C8280ADD01200A4908800621BD
:100E6000FFF7D4FF0B210020FFF7D0FF02E00020A6
:100E7000044908804FF4006000F0C4F810BD000081
:100E8000180000202200002070B52DED048B4020BA
:100E900000F0BEF800287DD0002400254E480088D0
:100EA000012878D14D4800880128FAD14C4908889A
:100EB000C11700EBD1614C1149490888C11700EBFB
:100EC000D1614911A0EB41118DB2052000F0AEF9BE
:100ED0000646FFF70FFB41EC190B9FED420B53EC5D
:100EE000102BFFF726FA41EC180BFFF73BFB3F49AD
:100EF00001EBC41141F825000C2000F097F90646DB
:100F0000FFF7F8FA41EC190B9FED360B53EC102B61
:100F1000FFF70FFA41EC180BFFF724FB344901EB04
:100F2000C41141F825002E480088401C2C49088037
:100F300008460088B0F5807F46DD01202D490880F5
:100F40002D49088000202649088023490880062171
:100F5000FFF75CFF0B210120FFF758FF002415E08D
:100F600000250FE0214800EBC51000EB840090ED58
:100F7000000A224800EBC51000EB840080ED000A57
:100F8000681C85B2072DEDDD601C84B21F2CE7DDE7
:100F9000002417E01CE017E000250FE0144800EBE8
:100FA000C51000EB840090ED000A154800EBC51059
:100FB00000EB840080ED000A681C85B2072DEDDD92
:100FC000601C84B21F2CE7DD402000F01BF800BF3E
:100FD000BDEC048B70BD0000220000202400002026
:100FE000200000206666666666664A3FAC00002008
:100FF000AC0400202600002028000020AC080020BF
:10100000AC0C00200149086070470000143C01400E
:1010100001460020034A12680A400AB1012000E09C
:1010200000207047143C0140002123498279002AA6
:101030003AD00A46126803689A430B461A600A1DA2
:10104000126803689A430B1D1A60027911440A68FA
:1010500003681A430A60184A0832126803689A4300
:10106000154B08331A601A1D126803689A43124B15
:101070000C331A604279102A0ED11A1F12680368C5
:101080001A430D4B08331A601A1D126803681A437D
:10109000094B0C331A600DE00749427911440A6884
:1010A00003681A430A6005E0027911440A6803687C
:1010B0009A430A6070470000003C01401FB50121BF
:1010C000812000F0CFF90121880300F0FBF900F046
:1010D00040F94FF40060029000208DF80C008DF86C
:1010E0000F0002A9174800F031F80B21072000F08B
:1010F000C5FA4FF40060009000208DF8040008202D
:101100008DF8050001208DF806006846FFF78CFF7A
:101110004020029002A90C4800F018F80621002097
:1011200000F0ACFA4020009000208DF804000C2064
:101130008DF8050001208DF806006846FFF774FF62
:101140001FBD0000001C024000000240F0B50A462E
:1011500000210023002400BF3DE0012505FA01F332
:10116000156805EA03049C4234D105684F00032644
:10117000BE40B543056015794E00B540066835435D
:1011800005601579012D02D01579022D16D18568DB
:101190004F000326BE40B543856055794E00B540EB
:1011A000866835438560456801268E40B5434560B5
:1011B000456896798E40B6B235434560C5684F00A4
:1011C0000326BE40B543C560D5794E00B540C6681C
:1011D0003543C560491C1029BFD3F0BDF0B50023CD
:1011E00000244D07ED0E02FA05F3CE1000F12005A4
:1011F00055F826504E07F70E0F26BE40B543CF10C8
:1012000000F1200646F82750CE1000F1200555F8D1
:10121000265045EA0304CE1000F1200545F826408B
:10122000F0BD4183704701837047000010B504464C
:101230000723012221460848FFF742FB0648FFF733
:101240009BFB00BF02210448FFF706FB0028F9D0F2
:101250000148FFF7FDFA10BD0020014000BFFEE786
:101260001CB50121052000F0FDF8012000900020B0
:101270008DF804008DF8070069460548FFF766FF02
:101280004FF40050009069460248FFF75FFF1CBD15
:1012900000000240000802401CB5012140F2C910C4
:1012A00000F0E0F82020009001208DF804000020DC
:1012B0008DF806008DF8050069461F48FFF746FFC8
:1012C00020211D48FFF7ADFF0820009069461B480C
:1012D000FFF73CFF08211948FFF7A5FF4FF4807086
:1012E000009069461648FFF731FF4FF480711448AB
:1012F000FFF797FF0420009069461248FFF726FF8A
:1013000004211048FFF78DFF0820009069460D4822
:10131000FFF71CFF009881B20A48FFF782FF4FF4E5
:101320000070009069460848FFF710FF4FF4007105
:101330000548FFF776FF1CBD000C0240002002406C
:101340000000024000180240001C024000BFFEE7FF
:10135000704708B528208DF8000001208DF80100A5
:1013600002208DF8020001208DF80300684600F08D
:1013700031F803208DF8020017208DF80000684630
:1013800000F028F808BD08B54FF4A06000F05EF842
:1013900025208DF8000001208DF801008DF8020055
:1013A0008DF80300684600F015F808BD08B54FF445
:1013B000E06000F04BF847208DF8000001208DF828
:1013C00001008DF802008DF80300684600F002F875
:1013D00008BD000070B5002100230F22C4781CB3A3
:1013E000174C246804F4E064C4F5E064C4F30721F6
:1013F000C1F10404E3B20A4144789C40E1B284782C
:10140000144021430C07210E0E4C057861550478D9
:1014100004F01F050124AC4005786D11AD0005F105
:10142000E025C5F8004109E0047804F01F05012417
:10143000AC40054D0678761145F8264070BD000099
:101440000CED00E000E400E080E100E0024901432F
:10145000024A1160704700000000FA050CED00E040
:101460007047000029B1064A12680243044B1A6013
:1014700004E0034A12688243014B1A60704700007F
:101480003038024029B1064A12680243044B1A6000
:1014900004E0034A12688243014B1A60704700005F
:1014A0004038024029B1064A12680243044B1A60D0
:1014B00004E0034A12688243014B1A60704700003F
:1014C0002038024029B1064A12680243044B1A60D0
:1014D00004E0034A12688243014B1A60704700001F
:1014E00044380240F0B500210022002402250026E5
:1014F0000223324F3F6807F00C0121B1042905D0C7
:10150000082937D105E02E4F076036E02D4F0760E0
:1015100033E02A4F3F1F3F68C7F38056274F3F1FD6
:101520003F6807F03F036EB1264FB7FBF3F7DFF8D4
:101530008CC0ACF1040CDCF800C0CCF3881C07FBB9
:101540000CF40CE01E4FB7FBF3F7DFF870C0ACF102
:10155000040CDCF800C0CCF3881C07FB0CF4174F1C
:101560003F1F3F68C7F301477F1C7D00B4FBF5F7C1
:10157000076002E0124F076000BF00BF0F4F3F68D7
:1015800007F0F0010909104F7A5C0768D7404760FF
:101590000A4F3F6807F4E051890A0B4F7A5C4768AD
:1015A000D7408760054F3F6807F46041490B064FFD
:1015B0007A5C4768D740C760F0BD00000838024039
:1015C0000024F40040787D01000000201CB50121BA
:1015D0000846FFF747FF0420009003208DF8040021
:1015E00000208DF8070069460748FFF7AFFD20206F
:1015F000009003208DF8040000208DF80700694654
:101600000148FFF7A3FD1CBD0000024000B58BB0F0
:1016100001210802FFF756FF002001904FF44030EF
:101620000290002003904FF47060049001A8FFF72F
:10163000F7F805A8FFF7A5F9002005908DF8180028
:101640008DF819000790099001208DF8280005A950
:101650000548FFF70BF901210348FFF7D5F80248C9
:10166000FFF78AF90BB000BD0020014010B5FFF76D
:10167000ADFFFFF7CBFF10BD7047000030B5002273
:101680008B071C0F0F2303FA04F20B4B8C1053F83B
:1016900024309343084C8D1044F8253023468C1099
:1016A00053F824308C07240F00FA04F42343024C2F
:1016B0008D1044F8253030BD083801400CB50020AD
:1016C000019000904148006840F480303F49086034
:1016D00000BF3E48006800F4003000900198401CB4
:1016E0000190009818B90198B0F5A04FF1D1374892
:1016F000006800F4003010B10120009001E00020EB
:1017000000900098012860D130484030006840F0D7
:1017100080502E49403108602D48006840F4404018
:101720002B490860294808300068284908310860BA
:101730000846006840F4004008600846006840F42D
:10174000A05008602348091F0860081F006840F087
:101750008070091F086000BF1C48006800F000701E
:101760000028F9D01A48006840F480301849086011
:1017700000BF1748406800F480300028F9D01448B2
:10178000006840F400301249086000BF104840680B
:1017900000F400300028F9D040F205700E490860CE
:1017A0000A480830006820F0030008490831086042
:1017B0000846006840F00200086000BF0348083097
:1017C000006800F00C000828F8D10CBD0038024079
:1017D00000700040195A4007003C0240704700006A
:1017E00010B51548006840F47000134908601348AC
:1017F000006840F001001149086000200F490831DD
:1018000008600E4800680E4908400C4908600D4801
:10181000091D0860081F006820F48020091F086067
:10182000002006490C310860FFF748FF4FF00060C8
:1018300001498039086010BD88ED00E000380240A1
:10184000FFFFF6FE10300024F0B50C4615460021CF
:101850000022068C4FF6FE773E400684018B028CF8
:101860004FF60C7631407E1C06EA03162E433143B8
:101870004FF6F576324044F001063243018302848C
:10188000F0BDF0B50C461546002100220026078C5D
:101890004FF6EF7C07EA0C070784018B028C4FF6AA
:1018A000FF7707EA041640F6FF4739404FF6FF7707
:1018B00007EA033739434FF6FF7707EA052739432D
:1018C0004FF65F773A4046F010073A4301830284AF
:1018D000F0BD000010B52DED028B0421194800F079
:1018E00043F8184800F04FF8174908800846008868
:1018F00000B30846008800EE100AB8EE400ADFED9B
:10190000130A80EE801A124880ED001A90ED000A4A
:10191000DFED100A20EE200A0F4880ED000A006873
:10192000FEF7F5FD41EC180B53EC182B0BA000F063
:101930007FFA04E09FED0B0A054880ED000ABDEC3C
:10194000028B10BD00040140100000200050C3476E
:1019500014000020000070421800002025660D0AC7
:101960000000000000000000CA430282704721B15D
:10197000028842F00102028004E002884FF6FE7302
:101980001A40028070470146886B70471AB18389FC
:101990000B43838102E083898B43838170472DE968
:1019A000F04105460C4600260127608808B902264A
:1019B00000E00026A088012801D1022700E00127CD
:1019C0002088A0B92389A28861882846FFF73CFFB8
:1019D000E188284600F07FF823893A4631462846B8
:1019E000FFF74FFFE188284600F07EF813E02389D7
:1019F000A28861882846FFF744FFE188284600F066
:101A000073F823893A4631462846FFF71DFFE188DF
:101A1000284600F060F8BDE8F081000000B587B00E
:101A200001210220FFF74EFD4FF6FE70059040F2B7
:101A30000770ADF810000020ADF81800ADF81200E6
:101A400004A9164800F05EF80420ADF80400002058
:101A5000ADF806000120ADF808000020ADF80A003E
:101A6000ADF80C0001A90D48FFF799FF60210B4864
:101A700000F016F80421094800F024F880210748F6
:101A800000F017F801210548FFF771FF012204213A
:101A90000248FFF77BFF07B000BD000000040140D3
:101AA0000A46002101894FF68F73194011430181C5
:101AB000704702894FF67F731A40028102890A43F8
:101AC0000281704702894FF6F8731A400281028939
:101AD0000A4302817047028B4FF6F3731A40028368
:101AE000028B0A4302837047028B4FF2FF331A4086
:101AF0000283028B4FF6FF7303EA01231A4302832A
:101B00007047000000220288184B98420ED0184BF4
:101B100098420BD0B0F1804F08D0164B984205D0B8
:101B2000154B984202D0154B984204D14FF68F7353
:101B30001A404B881A43124B984207D0114B9842D7
:101B400004D04FF6FF431A400B891A4302804B68BA
:101B5000C3620B880385054B984202D0044B984220
:101B600001D18B7A038601238382704700000140F4
:101B7000000401400004004000080040000C004048
:101B8000001000400014004010B500F005F800F00F
:101B900021F8FFF743FF10BD1CB501210802FFF734
:101BA00061FC032206210A48FFF718FB02208DF88A
:101BB000040000208DF806008DF8070003208DF842
:101BC00005004020009069460148FFF7BFFA1CBDA0
:101BD0000020024008B54FF4A060FFF737FC2E202C
:101BE0008DF8000001208DF801008DF802008DF8BD
:101BF00003006846FFF7EEFB08BD21B1828942F47D
:101C00000052828104E082894DF6FF731A4082817E
:101C1000704702460020B1F5007F00D100BF138855
:101C20000B400BB1012000E000207047F0B50346E7
:101C3000002400260025002040F66A17B94200D192
:101C400000BF1846C1F3421401F01F06012707FA2E
:101C500006F5012C01D10C3004E0022C01D110302A
:101C600000E014301AB107682F43076002E00768EC
:101C7000AF430760F0BD00002DE9FF4705460E4663
:101C80000024A14600BFA046B08900B100BF2C8A45
:101C900024F44054F08804432C82AC8941F20C6057
:101CA0008443B08831890843718908430443AC8177
:101CB000AC8A24F44074B0890443AC826846FFF7D0
:101CC00011FC2048854202D01F48854202D1DDF830
:101CD0000C9001E0DDF80890A88900F4004040B1C4
:101CE00009EBC90000EB091031684900B0FBF1F7BE
:101CF00007E009EBC90000EB091031688900B0FB6F
:101D0000F1F76420B7FBF0F004012009642101FB26
:101D10001078A88900F4004040B1322000EBC800E0
:101D2000B0FBF1F000F00700044308E0322000EBC4
:101D300008106421B0FBF1F000F00F0004432C8187
:101D4000BDE8FF870010014000140140C1F3080204
:101D50008280704700BFFEE700B587B001214FF4D5
:101D60008270FFF77FFB01212020FFF7ABFB0822E9
:101D700007212C48FFF732FA082206212948FFF7ED
:101D80002DFA00208DF81A008DF81B0002208DF826
:101D900018004020059002208DF8190005A921485F
:101DA000FFF7D4F902208DF818008020059005A9CE
:101DB0001C48FFF7CBF900208DF81A008DF81B00A6
:101DC00001208DF818008020059002208DF8190060
:101DD00005A91548FFF7BAF94FF4E130019000204A
:101DE000ADF80800ADF80A00ADF80C00ADF8100031
:101DF0000C20ADF80E0001A90C48FFF73DFF0121B2
:101E00000A48FFF7FAFEFFF7D1FA012240F2255106
:101E10000648FFF70BFF80210348FFF702FA07B0DF
:101E200000BD0000000802400020024000140140F4
:101E30000FB4054B10B503A9044A029800F0CAF884
:101E400010BC5DF814FB0000052700087800002096
:101E500002E008C8121F08C1002AFAD17047704773
:101E6000002001E001C1121F002AFBD170470000D1
:101E70002DE9FF5FDDE90220010DDDF838B00243F6
:101E800018D044F61050A1F2FF3141430D140F98C1
:101E9000012820D0A5EB0B00401C5FEA000A4FF0A0
:101EA0000004474EDFF81C91A046504616D5CAF1F3
:101EB000000728E00F98012443A2012808D0002140
:101EC00000980F9BC0E90021C0E90243BDE8FF9FD5
:101ED0006FEA0B01F4E7CBF10000DEE7074612E002
:101EE000F80707D02246334640464946FEF721FA16
:101EF000804689462246334610461946FEF719FAAF
:101F000004460E467F10002FEAD1DDE90201BAF146
:101F1000000F42464B4602DAFEF70BFA01E0FEF7ED
:101F20007AFA04460E460022284BFEF703FB03D83C
:101F30004FF0FF30014607E00022254B2046314696
:101F4000FEF750F9FEF726FC102409E0002C0ADB0E
:101F50000A220023FEF738FB019B30321A55641E1B
:101F600050EA0102F2D1641C019AC4F11103144435
:101F70000F9A012A03D0012208430DD10AE0084339
:101F800004D000204FF0110B0F9080E7A3EB0B055E
:101F90006D1E0DE05B4504DD4FF0000205F101050B
:101FA00004E003DA4FF00002A5F10105002AECD0AD
:101FB00000980F99C0E90231C0E9004586E70000AA
:101FC000000024400000F03F300000000000F0431B
:101FD0000000E03F2DE9FF4F95B09B46894606463D
:101FE00000250FE2252877D100242746F84A012151
:101FF000059400E0044316F8013F203B01FA03F08A
:102000001042F7D130782A2811D06FF02F033078A2
:10201000A0F13002092A16D8059A44F0020402EB16
:10202000820203EB42021044761C0590EFE759F858
:10203000042B0592002A03DA504244F40054059020
:1020400044F00204761C30782E2816D116F8010FC1
:1020500044F004042A280DD06FF02F023078A0F14C
:102060003003092B09D807EB870302EB4303C7189A
:10207000761CF3E759F8047B761C30786C280FD077
:1020800006DC4C2817D068280DD06A2814D104E04B
:10209000742810D07A280FD10DE044F400140AE01F
:1020A00044F4801401E044F440147278824202D176
:1020B00004F58014761C761C307866280BD013DC6F
:1020C000582877D009DC002875D04528F6D0462856
:1020D000F4D047281AD19DE118E0632835D0642850
:1020E00079D0652812D195E1702873D008DC672873
:1020F000F1D069286FD06E280DD06F2806D1B5E0D9
:1021000073282CD0752875D0782874D05A46179922
:1021100090476D1C75E1C4F30250022809D00328D2
:102120000DD0D9F8001004280DD00D6009F1040974
:1021300067E1D9F80010EA17C1E90052F6E7D9F8CB
:1021400000100D80F2E70D70F0E719F8041B8DF810
:10215000001000208DF80100EA46012003E059F844
:1021600004AB4FF0FF3061074FF0000102D40DE0E7
:1021700008F101018846B9420FDA8045F8DB1AF808
:1021800008100029F4D108E008F1010188468142D5
:10219000FADB1AF808100029F6D105985B46A0EB87
:1021A000080721463846179A00F094FA284400EBB5
:1021B000080507E04DE029E10DE01AF8010B5A4649
:1021C00017999047B8F10108F7D25B462146384687
:1021D000179A13E142E00A220092C4F302524FF030
:1021E000000A022A08D059F804CB032A4FEAEC71FE
:1021F0000AD00DE029E02AE009F1070121F00702E9
:10220000F2E802C1914609E00FFA8CFC4FEAEC714A
:10221000042A03D14FFA8CFC4FEAEC71002907DA4B
:102220000A460021DCF1000C61EB02012D2202E0E4
:10223000220504D52B228DF80420012203E0E207B9
:1022400001D02022F7E7904659E00A2102E010224F
:102250000DE010214FF0000A00910BE010224FF02A
:10226000000A44F004040827009203E008224FF01B
:10227000000A0092C4F30252022A05D059F804CB96
:102280000021032A08D009E009F1070121F0070223
:10229000F2E802C1914605E01FFA8CFC042A01D144
:1022A0000CF0FF0C4FF00008220728D5702806D04C
:1022B000009B83F0100353EA0A0305D00EE040228E
:1022C0008DF80420012208E05CEA010206D03022E9
:1022D0008DF804208DF8050002229046009B83F0C3
:1022E000080353EA0A030AD15CEA010201D162073A
:1022F00005D530228DF804204FF001087F1E5828A4
:1023000004D034A003900EA802900DE036A0F9E7A7
:1023100053466046009AFEF757F984460398825C5C
:102320000298401E029002705CEA0100F0D102980F
:1023300006A9081A00F1200A600702D524F48034A7
:1023400000E00127574502DDA7EB0A0000E000206E
:1023500000EB0A01009005984144401A0590E00303
:1023600006D45B462146179A059800F0B3F9054458
:10237000002706E001A85A46C05D179990476D1CDA
:102380007F1C4745F6DBE0030CD55B462146179AD8
:10239000059800F09FF9054404E030205A4617994B
:1023A00090476D1C0099481E00900029F5DC08E05C
:1023B000029802995A460078491C02911799904751
:1023C0006D1CBAF10001AAF1010AF1DC65E100001F
:1023D00009280100303132333435363738396162FB
:1023E00063646566000000003031323334353637BF
:1023F00038394142434445460000000000F058F996
:102400000544761C307800287FF4ECAD19B02846DE
:10241000BDE8F08F620700D4062709F1070222F019
:10242000070CFCE80223E14603F000485FEA080CD1
:1024300002D00FF2702C0DE05FEA045C02D50FF2BF
:10244000682C07E05FEAC47C02D00FF2602C01E048
:10245000AFF2700C4FF0FF3823F00043CDF850C0BE
:1024600065280CD006DC452809D046281DD0472811
:102470003DD13DE0662818D067287ED138E00021A4
:10248000112F01DB112000E0781CCDE9000106A925
:102490000EA8FFF7EDFCDDE90F010E9A0391002174
:1024A000009207F1010A04914DE04FF000400097BF
:1024B000CDE9011006A90EA8FFF7DAFCDDE90F024D
:1024C00003920E9B11990022DDF80CA00093049258
:1024D00011B9791C00EB010AB7EB0A0004D4C0F172
:1024E000FF3007F1010A0490AAEB0700019044E0D5
:1024F000012F00DA01270021112F01DD112000E05A
:102500003846CDE9000106A90EA8FFF7B1FCDDE9C8
:102510000F010E9A0391002104910092BA462107FF
:102520000CD40399514500DA8A46BAF1010F05DD52
:10253000009AAAF10101515C302908D0B84202DAB0
:1025400010F1040F06DA0121CDE9011015E0AAF11E
:102550000101E9E7002805DC049901440491AAEB94
:10256000000102E0411C514500DD8A460499401AF1
:10257000401C01904FF000400290200704D40198C5
:10258000504501DBCDF8048000208DF84F00029803
:102590000DF14F07B0F1004F25D02B200E9002987F
:1025A0004FF0020800280CDA404202902D200E90D5
:1025B00007E00A210298FDF7F1FF3031029007F899
:1025C000011DB8F10001A8F10108F2DC0298002811
:1025D000EFD1791E0E980870307800F0200040F09E
:1025E000450007F8020D12A8C01B00F10708149857
:1025F000007800B1012000EB0A01019801EBE071C5
:1026000005984144401A401E0590E00306D45B46FD
:102610002146179A059800F05DF805441498007853
:1026200018B15A46179990476D1CE00324D55B46B4
:102630002146179A059800F04DF805441CE00498CF
:10264000002807DBDDE90301884203DD0098405CD8
:10265000179901E0179930205A469047049805F1E0
:102660000105401C04900198401E019004D12E20C9
:102670005A46179990476D1CBAF10001AAF1010A58
:10268000DDDC05E017F8010B5A46179990476D1CE1
:10269000B8F10001A8F10108F4DC5B462146179A65
:1026A0000598ABE62D0000002B0000002000000084
:1026B0002DE9F041044600251E461746880404D43F
:1026C00005E039462020B0476D1C641EF9D5284628
:1026D000BDE8F0812DE9F041044600251E469046F4
:1026E000C80301D5302700E02027880404D505E081
:1026F00041463846B0476D1C641EF9D52846BDE8F2
:10270000F081000070B504460D46E1B20548FFF7C0
:102710001DFB00BF80210348FFF77BFA0028F9D09A
:10272000204670BD00100140FFF72EFAFEF720FB97
:10273000FEF79CFFFEF7C2FCFEF72FF9FEF790FDB7
:10274000FFF70AFBFEF7A8FD06210020FEF75EFB5F
:1027500000BFFEE774270008000000207C00000096
:10276000501E0008F02700087C0000203C150000E7
:10277000601E0008000000000102030401020304BF
:10278000060708090000000000000000000000002B
:102790000000000000000000010000000000000038
:1027A000DB0F493E000000000000000000000000B8
:1027B0000000000000000000000000000000000019
:1027C0000000000000000000000000000000000009
:1027D00000000000000000000000000000000000F9
:1027E00000000000000000000000000000000000E9
:04000005080001AD41
:00000001FF
