:020000040800F2
:10000000B8150020C1010008FD4A0008094A00088F
:10001000F94A0008AB090008E1540008000000009C
:10002000000000000000000000000000294E000851
:10003000810D0008000000000D4C00088D4F0008E5
:10004000DB010008DB010008DB010008DB01000820
:10005000DB010008DB010008DB010008DB01000810
:10006000DB010008DB010008DB010008DB01000800
:10007000DB010008DB010008DB010008DB010008F0
:10008000DB010008DB010008DB010008DB010008E0
:10009000DB010008DB010008DB010008550E000849
:1000A000DB010008DB010008DB010008DB010008C0
:1000B000DB010008DB010008DB010008DB010008B0
:1000C000DB010008DB010008DB010008DB010008A0
:1000D000DB010008DB010008DB010008DB01000890
:1000E000210E0008DB010008DB010008DB0100082D
:1000F000DB010008DB01000885500008DB01000877
:10010000DB010008DB010008DB010008DB0100085F
:10011000DB010008DB010008DB010008DB0100084F
:10012000DB010008DB010008DB010008DB0100083F
:10013000DB010008DB010008DB010008DB0100082F
:10014000DB010008DB010008DB010008DB0100081F
:10015000DB010008DB010008DB010008DB0100080F
:10016000DB010008DB010008DB010008DB010008FF
:10017000DB010008DB010008DB010008DB010008EF
:10018000DB010008DB010008DB010008DB010008DF
:10019000DB010008DB010008DB010008DB010008CF
:1001A000DB010008DB010008DB010008DFF80CD0F0
:1001B00000F0E2FA004800479D630008B8150020EF
:1001C0000648804706480047FEE7FEE7FEE7FEE7F1
:1001D000FEE7FEE7FEE7FEE7FEE7FEE7914F0008D9
:1001E000AD0100082DE9FE4F804681EA0300C00FF3
:1001F0000C46009021F0004123F00045B8EB0200CE
:10020000A94105D24046214690461C460B4602466F
:1002100023F00040104347D0270DC7F30A00C3F373
:100220000A510290401A019040286BDAC3F3130080
:1002300040F4801B0098924620B10023D2EB030AC1
:1002400063EB0B0B01985946C0F14002504600F099
:100250008DF906460D4650465946019A00F095F92B
:1002600010EB08006141002487EA115284EAE77329
:100270001A4340D0009A62B3019A012A4FEA07520A
:1002800015DC001B61EB02014FF0004202EA07524D
:10029000CDE90042001C41F5801132462B4600F0AA
:1002A000CCF903B0BDE8F08F40462146F9E7001BCA
:1002B00061EB0201001C41F5801300185B4120181E
:1002C000A2F5001747EB030140EAD570B6196D415E
:1002D00011E06D084FEA360645EAC0754FEA07524D
:1002E000001B61EB0201001C41F5801149084FEA37
:1002F00030000019514132462B4603B0BDE8F04FA3
:1003000000F08CB90098012240000023D0EB0202DB
:1003100063EBE073009821464FEAE074B8EB00000D
:1003200061EB0401E9E783F000435BE781F0004102
:1003300058E72DE9FE4F81EA030404F0004421F060
:10034000004100944FF0000B23F0004350EA0104F9
:100350005ED052EA03045BD0C3F30A54C1F30A55DA
:100360002C44A4F2F3340194A0FB0254C1F3130112
:1003700041F48011C3F3130343F4801301FB0244DF
:1003800000FB034E840A970A44EA815447EA8357E4
:10039000A4FB076802958D0A05FB07854FEA932C9D
:1003A00004FB0C542705029D4FEA065847EA16370E
:1003B000B5EB08056EEB070C870E920E47EA811726
:1003C00042EA8312A7FB0201B6EB0B0164EB0004C7
:1003D0002B0D43EA0C335E1844EB1C50DA465146B1
:1003E000E7FB0201C5F313044FEA0B3343EA14534E
:1003F0004FEA0432019C43EA0603A4F10C04029480
:10040000009CCDE900B400F018F903B0BDE8F08F0E
:1004100000200146F9E72DE9F04D81EA030404F0DC
:10042000004B21F0004514464FF0000A23F0004134
:1004300050EA050220D054EA01021DD0C5F30A5744
:100440000246C5F31303C1F31300C1F30A5640F487
:10045000801543F48013A7EB0608101BD64608F25C
:10046000FD3873EB050002D308F1010801E0921892
:100470005B41B8F1000F03DA00200146BDE8F08DC2
:1004800000204FF48011064684460EE0171B73EBE4
:10049000050705D3121B63EB050306434CEA010C69
:1004A00049084FEA300092185B4150EA0107EDD14C
:1004B00052EA030012D082EA040083EA05010843ED
:1004C00005D0101BAB4106D20122002306E000221A
:1004D0004FF0004302E06FF0010253101AEB0600E8
:1004E0004CEB085110EB0A0041EB0B01BDE8F04D5D
:1004F00000F094B80EB540F2334102910021CDE9ED
:1005000000110A460B4600F098F803B000BD00F059
:10051000004230F000400AD0C10D01F56071C0F317
:10052000160042EA0151C2084007114370470020FB
:100530000146704701F0004330B421F0004150EA19
:10054000010206D00A0DA2F56072C1F31301002A60
:1005500002DC30BC00207047440F44EAC104C100F3
:10056000E01830BC00EBC25000F021B8202A04DBB8
:10057000203A00FA02F1002070479140C2F12003B6
:1005800020FA03F3194390407047202A06DBCB176B
:10059000203A41FA02F043EAE07306E041FA02F33E
:1005A000D040C2F12002914008431946704700290B
:1005B000A8BF7047401C490008BF20F001007047E9
:1005C00010B4B0FA80FC00FA0CF050EA010404BF49
:1005D00010BC704749B1CCF1200421FA04F411FA9F
:1005E0000CF118BF012121430843A3EB0C01CB1DE3
:1005F0004FEA00614FEA102042BF002010BC704754
:1006000000EBC35010440029A4BF10BC7047401C2D
:10061000490008BF20F0010010BC704710B5141E3F
:1006200073F1000408DA401C41F1000192185B41AB
:100630001A4301D120F0010010BD2DE9F04D924682
:100640009B4611B1B1FA81F202E0B0FA80F2203299
:100650009046FFF78BFF04460F4640EA0A0041EA46
:100660000B0153465A46084313D0114653EA010082
:1006700019D0C8F14002504600F090F805460E46E9
:10068000504659464246FFF771FF084305D0012006
:1006900004E020463946BDE8F08D0020054346EAD7
:1006A000E0762C4337430A986305E40AA0EB080080
:1006B0000022FD0A44EA47540A3002D500200146D0
:1006C000E9E7010510196941DDE9084500196941AB
:1006D000BDE8F04DA2E72DE9F04D00231A461B1AA4
:1006E0008A4103DB00200146BDE8F08DC1F30A52C8
:1006F000C1F3130141F480154FF0000BD10702D173
:1007000000186D41521E0027044640F2FF11384682
:1007100001EB620A3E468046024600204FF48011FB
:1007200000F03CF8C2197141BB1846EB0100B4EB74
:10073000030C75EB000C04D3E41A65EB00051746B7
:100740000E46241908F101006D4180463428E3DD8E
:10075000F91946EB0600091BA84103D24FF0FF32FE
:10076000134601E0002213461BEB070046EB0A513B
:10077000BDE8F04DFFF752BF064C074D06E0E068BC
:1007800040F0010394E8070098471034AC42F6D3D8
:10079000FFF710FD98650008B8650008202A04DB03
:1007A000203A21FA02F00021704721FA02F3D040EA
:1007B000C2F1200291400843194670470EB5C10F9F
:1007C00080EAE0700844CA07002140F233438DE814
:1007D0000E000A460B46FFF730FF03B000BD70B5B0
:1007E000C1F30A5201F000450024C1F3130140F2A5
:1007F000FF3341F480119A4201DA002070BD40F2CB
:1008000033439A42A2F2334203DC5242FFF7C6FF5F
:1008100000E090402C43F1D0404270BD21B182688D
:1008200042F00102826003E0826822F001028260ED
:10083000704700000021084A1168084A1140D0E9B9
:1008400000231A4383681A43C3681A431143044AB6
:10085000C2F804137047000004230140E030FCFF9D
:10086000002001400146C86C80B27047024600205B
:1008700013680B400BB1012000E00020704700001E
:1008800030B50246002000235068104C20400D79FE
:100890000C6844EA05242043506090680C4C2040CA
:1008A000D1E903542C438D682C434D7944EA450427
:1008B00020439060D06A20F470000C7D641EE4B286
:1008C000234340EA0350D06230BD0000FFFEFFFC2E
:1008D000FDF7FFC0F0B504460D4600200021092DAC
:1008E00011DDE068A5F10A0606EB4607072606FAC1
:1008F00007F18843A5F10A0606EB460603FA06F15E
:100900000843E0600CE0206905EB4507072606FA7E
:1009100007F1884305EB450603FA06F10843206119
:10092000072A0FDA606B561E06EB86071F2606FAAB
:1009300007F18843561E06EB860605FA06F10843C2
:10094000606322E00D2A0FDA206BD61F06EB8607C4
:100950001F2606FA07F18843D61F06EB860605FA1E
:1009600006F10843206310E0E06AA2F10D0606EBF1
:1009700086071F2606FA07F18843A2F10D0606EB4B
:10098000860605FA06F10843E062F0BD816841F091
:100990008041816070470021016001714171816077
:1009A000C160016101210175704700BFFEE710B50C
:1009B00000F0CCF800F0C0F900F08AF900F0A2F8DD
:1009C00010BD000010B504460B48844209D1012136
:1009D000480604F03DF900214FF0007004F038F9AA
:1009E00008E00121880604F033F900214FF080600F
:1009F00004F02EF910BD00000064004010B5002185
:100A0000837A012202FA03F13D4A126842F00102A0
:100A10003B4B1A603A4A1C3212688A43384B1C33EB
:100A20001A60027BCAB9364A0C3212688A43344BC8
:100A30000C331A604288C38842EA0343304A40328A
:100A4000847A42F834300288838842EA03432C4A8D
:100A50004032847A02EBC4025360027B012A19D12E
:100A6000274A0C3212680A43254B0C331A6042881D
:100A7000038842EA0343224A4032847A42F83430FF
:100A8000C288838842EA03431D4A4032847A02EBDB
:100A9000C4025360C27A3AB9194A121D12688A43D5
:100AA000174B1B1D1A6006E0154A121D12680A43F7
:100AB000134B1B1D1A60028932B9114A1432126895
:100AC0008A430F4B14331A600289012A06D10C4A5B
:100AD000143212680A430A4B14331A60427B012A0B
:100AE00006D1074A1C3212680A43054B1C331A60B0
:100AF000034A126822F00102014B1A6010BD000087
:100B0000006600401FB50E208DF80A0000208DF809
:100B10000B0001208DF80C000020ADF80000ADF8AE
:100B20000200ADF80400ADF80600ADF808000120A1
:100B30008DF80D006846FFF761FF0122022102488F
:100B400000F032F81FBD0000006800401CB5012114
:100B5000022004F05DF809220C21124800F01CFB71
:100B6000092206210F4800F017FB402000900220C8
:100B70008DF804008DF8050000208DF80600012096
:100B80008DF807006946074800F0BEFA4FF4805020
:100B9000009002208DF804006946024800F0B4FA83
:100BA0001CBD0000000402401AB143690B434361BD
:100BB00002E043698B434361704730B50246002031
:100BC0000023146824F002041460146844F0010443
:100BD000146000E05B1C546804F001041CB94FF67B
:100BE000FF74A342F6D1546804F001040CB900204C
:100BF0006CE08C79012C04D1146844F080041460FA
:100C000003E0146824F080041460CC79012C04D132
:100C1000146844F04004146003E0146824F04004B5
:100C200014600C7A012C04D1146844F02004146080
:100C300003E0146824F0200414604C7A012C04D1E1
:100C4000146844F01004146003E0146824F01004E5
:100C500014608C7A012C04D1146844F008041460E8
:100C600003E0146824F008041460CC7A012C04D149
:100C7000146844F00404146003E0146824F00404CD
:100C800014608C78A407CD7844EA05640D7944EAB1
:100C900005444D7944EA05540D886D1E2C43D461FA
:100CA000146824F001041460002300E05B1C546805
:100CB00004F001041CB14FF6FF74A342F6D154684E
:100CC00004F001040CB1002000E0012030BD000060
:100CD0000EB50121480603F0ABFF0121880603F0A1
:100CE000A7FF1448FFF76EFE684600F039F80020B1
:100CF0008DF8060001208DF807008DF8080000200F
:100D00008DF809008DF80A008DF80B008DF80200AF
:100D100001208DF8030004208DF8040002208DF8D6
:100D200005000520ADF8000069460248FFF745FFC1
:100D30000EBD00000068004008B54FF4C06003F02D
:100D40005BFF40208DF8000000208DF801008DF839
:100D5000020001208DF80300684603F011FF08BD72
:100D600000218171C171017241728172C172817001
:100D7000C17003210171022141710121018070477D
:100D80007047000000B587B00121084603F040FF1E
:100D90000121102003F06CFF00208DF81A000120C3
:100DA0008DF81B0002208DF819008DF81800000244
:100DB000059005A9184800F0A7F902208DF8180041
:100DC0004002059005A9144800F09EF907220A2167
:100DD000114800F0E1F9072209210F4800F0DCF981
:100DE0004FF4E13001900020ADF80800ADF80A00A2
:100DF000ADF80C00ADF810000C20ADF80E0001A904
:100E0000064804F0FFFA03F094FE0121034804F0C1
:100E1000BAFA07B000BD0000000002400010014017
:100E200010B54FF4006000F0D1F870B107480088A9
:100E3000C82803DD01200649088002E0002004499B
:100E400008804FF4006000F0BBF810BD18000020CF
:100E50002200002070B52DED048B402000F0B6F884
:100E6000002876D0002400254A480088012871D146
:100E7000494800880128FAD148490888C11700EB81
:100E8000D1614C1145490888C11700EBD161491166
:100E9000A0EB41118DB2052000F0A6F90646FFF740
:100EA00029FB41EC190B9FED3E0B53EC102BFFF788
:100EB00040FA41EC180BFFF73DFB3B4901EBC41135
:100EC00041F825000C2000F08FF90646FFF712FBD1
:100ED00041EC190B9FED320B53EC102BFFF729FA65
:100EE00041EC180BFFF726FB304901EBC41141F828
:100EF00025002A480088401C2849088008460088A8
:100F0000B0F5807F3FDD012029490880294908800C
:100F10000020224908801F490880002415E0002590
:100F20000FE0214800EBC51000EB840090ED000AB3
:100F3000214800EBC51000EB840080ED000A681C1E
:100F400085B2072DEDDD601C84B21F2CE7DD002487
:100F500017E01CE017E000250FE0144800EBC51077
:100F600000EB840090ED000A144800EBC51000EB84
:100F7000840080ED000A681C85B2072DEDDD601C41
:100F800084B21F2CE7DD402000F01AF800BFBDEC52
:100F9000048B70BD220000202400002020000020CF
:100FA0006666666666664A3FB0000020B0040020B0
:100FB0002600002028000020B0080020B00C0020EF
:100FC0000149086070470000143C014001460020C0
:100FD000034A12680A400AB1012000E0002070476D
:100FE000143C0140002123498279002A3AD00A4664
:100FF000126803689A430B461A600A1D1268036858
:101000009A430B1D1A60027911440A6803681A4357
:101010000A60184A0832126803689A43154B08336D
:101020001A601A1D126803689A43124B0C331A6037
:101030004279102A0ED11A1F126803681A430D4B09
:1010400008331A601A1D126803681A43094B0C33DF
:101050001A600DE00749427911440A6803681A438F
:101060000A6005E0027911440A6803689A430A603D
:1010700070470000003C01401FB50121812003F0B2
:10108000C7FD0121880303F0F3FD03F038FD4FF4A1
:101090000060029000208DF80C008DF80F0002A96E
:1010A000174800F031F80B21072003F0BFFE4FF482
:1010B0000060009000208DF8040008208DF80500E5
:1010C00001208DF806006846FFF78CFF4020029053
:1010D00002A90C4800F018F80621002003F0A6FE33
:1010E0004020009000208DF8040008208DF80500B5
:1010F00001208DF806006846FFF774FF1FBD000051
:10110000001C024000000240F0B50A460021002306
:10111000002400BF3DE0012505FA01F3156805EA4A
:1011200003049C4234D105684F000326BE40B543FA
:10113000056015794E00B5400668354305601579A0
:10114000012D02D01579022D16D185684F00032696
:10115000BE40B543856055794E00B540866835433D
:101160008560456801268E40B5434560456896799F
:101170008E40B6B235434560C5684F000326BE4079
:10118000B543C560D5794E00B540C6683543C560E6
:10119000491C1029BFD3F0BDF0B5002300244D0732
:1011A000ED0E02FA05F3CE1000F1200555F8265099
:1011B0004E07F70E0F26BE40B543CF1000F12006B4
:1011C00046F82750CE1000F1200555F8265045EA84
:1011D0000304CE1000F1200545F82640F0BD418300
:1011E000704701837047000010B5044607230122B1
:1011F00021460848FFF76EFB0648FFF7C7FB00BF14
:1012000002210448FFF732FB0028F9D00148FFF71C
:1012100029FB10BD0020014000B5ADF5077D002081
:10122000849034E09FEDFE0AFE4880ED000A002025
:10123000859013E0FC49859801EBC011849801EB7F
:10124000800090ED000AF748D0ED000A30EE200A49
:1012500080ED000A8598401CC0B2859085980728CB
:10126000E8DDF04890ED000AF2EE000A80EE201A68
:10127000EE49849801EB800080ED001A9FEDE80AAA
:10128000E84880ED000A8498401CC0B2849084989D
:101290001F28C7DDE64890ED000AF3EE0F0A20EEA6
:1012A000200A8DED770A7798FFF731F979917890D8
:1012B0009DED780B04F010FB8DED7C0BDB48C06FCF
:1012C0007990FFF724F97B917A909DED7C0B53EC9C
:1012D000102B9DED7A0B51EC100BFFF72AF8819142
:1012E0008090D34890ED000AF3EE0E0A20EE200A1B
:1012F0008DED730A7398FFF70AF9759174909DED5F
:10130000740B04F0E9FA8DED780BC848806F759086
:10131000FFF7FDF8779176909DED780B53EC102B4D
:101320009DED760B51EC100BFFF703F87D917C904F
:10133000BF4890ED000AF3EE0D0A20EE200A8DED75
:101340006F0A6F98FFF7E3F8719170909DED700B45
:1013500004F0C2FA8DED740BB448406F7190FFF742
:10136000D6F8739172909DED740B53EC102B9DED9C
:10137000720B51EC100BFEF7DCFF79917890AC48C2
:1013800090ED000AF3EE0C0A20EE200A8DED6B0AB8
:101390006B98FFF7BCF86D916C909DED6C0B04F0B1
:1013A0009BFA8DED700BA148006F6D90FFF7AFF8C1
:1013B0006F916E909DED700B53EC102B9DED6E0BAD
:1013C00051EC100BFEF7B5FF75917490984890EDB5
:1013D000000AF3EE0B0A20EE200A8DED670A6798EB
:1013E000FFF795F8699168909DED680B04F074FA29
:1013F0008DED6C0B8D48C06E6990FFF788F86B918E
:101400006A909DED6C0B53EC102B9DED6A0B51EC2B
:10141000100BFEF78EFF71917090854890ED000AD9
:10142000F3EE0A0A20EE200A8DED630A6398FFF7B7
:101430006EF8659164909DED640B04F04DFA8DEDAE
:10144000680B7A48806E6590FFF761F86791669047
:101450009DED680B53EC102B9DED660B51EC100BC2
:10146000FEF767FF6D916C90714890ED000AF3EE06
:10147000090A20EE200A8DED5F0A5F98FFF747F812
:10148000619160909DED600B04F026FA8DED640B88
:101490006648406E6190FFF73AF8639162909DED67
:1014A000640B53EC102B9DED620B51EC100BFEF70F
:1014B00040FF699168905E4890ED000AF3EE080ADB
:1014C00020EE200A8DED5B0A5B98FFF720F85D9116
:1014D0005C909DED5C0B04F0FFF98DED600B5348C3
:1014E000006E5D90FFF713F85F915E909DED600BCD
:1014F00053EC102B9DED5E0B51EC100BFEF719FF1A
:10150000659164904A4890ED000AF3EE070A20EED8
:10151000200A8DED570A5798FEF7F9FF5991589018
:101520009DED580B04F0D8F98DED5C0B3F48C06D74
:101530005990FEF7ECFF5B915A909DED5C0B53ECDC
:10154000102B9DED5A0B51EC100BFEF7F2FE619142
:101550006090374890ED000AF3EE060A20EE200A6C
:101560008DED530A5398FEF7D2FF559154909DED9F
:10157000540B04F0B1F98DED580B2C48806D55904B
:10158000FEF7C5FF579156909DED580B53EC102B6D
:101590009DED560B51EC100BFEF7CBFE5D915C9070
:1015A000234890ED000AF3EE050A20EE200A8DEDA7
:1015B0004F0A4F98FEF7ABFF519150909DED500BA5
:1015C00004F08AF98DED540B1848406D5190FEF7E8
:1015D0009EFF539152909DED540B53EC102B9DEDBB
:1015E000520B51EC100BFEF7A4FE59915890104885
:1015F00090ED000AF3EE040A20EE200A8DED4B0A6E
:101600004B98FEF784FF4D914C909DED4C0B04F0F0
:1016100063F98DED500B0548006D4D900AE0000018
:101620000000000034000020B0080020B0100020AE
:101630002C000020FEF76BFF4F914E909DED500B5C
:1016400053EC102B9DED4E0B51EC100BFEF771FE81
:1016500055915490FE4890ED000AF3EE030A20EEF7
:10166000200A8DED470A4798FEF751FF49914890AF
:101670009DED480B04F030F98DED4C0BF548C06C36
:101680004990FEF744FF4B914A909DED4C0B53EC73
:10169000102B9DED4A0B51EC100BFEF74AFE5191B9
:1016A0005090EB4890ED000AF3EE020A20EE200A7B
:1016B0008DED430A4398FEF72AFF459144909DED36
:1016C000440B04F009F98DED480BE248806C45901D
:1016D000FEF71DFF479146909DED480B53EC102BF4
:1016E0009DED460B51EC100BFEF723FE4D914C90F7
:1016F000D74890ED000AF3EE010A20EE200A8DEDA6
:101700003F0A3F98FEF703FF419140909DED400B4B
:1017100004F0E2F88DED440BCE48406C4190FEF7AA
:10172000F6FE439142909DED440B53EC102B9DED42
:10173000420B51EC100BFEF7FCFD49914890C44858
:1017400090ED000AF3EE000A20EE200A8DED3B0A30
:101750003B98FEF7DCFECDE93C019DED3C0B04F02F
:10176000BBF88DED400BBB48006C3D90FEF7CFFE03
:10177000CDE93E019DED400B53EC102B9DED3E0B52
:1017800051EC100BFEF7D5FD45914490B04890ED1B
:10179000000AF2EE0E0A20EE200A8DED370A379885
:1017A000FEF7B5FECDE938019DED380B04F094F855
:1017B0008DED3C0BA748C06B3990FEF7A8FECDE934
:1017C0003A019DED3C0B53EC102B9DED3A0B51EC87
:1017D000100BFEF7AEFD419140909D4890ED000A40
:1017E000F2EE0C0A20EE200A8DED330A3398FEF754
:1017F0008EFECDE934019DED340B04F06DF88DEDD6
:10180000380B9448806B3590FEF781FECDE93601A8
:101810009DED380B53EC102B9DED360B51EC100B5E
:10182000FEF787FDCDE93C01894890ED000AF2EE14
:101830000A0A20EE200A8DED2F0A2F98FEF767FE88
:10184000CDE930019DED300B04F046F88DED340B01
:101850008048406B3190FEF75AFECDE932019DED94
:10186000340B53EC102B9DED320B51EC100BFEF7AB
:1018700060FDCDE93801764890ED000AF2EE080AE5
:1018800020EE200A8DED2B0A2B98FEF740FECDE9C5
:101890002C019DED2C0B04F01FF88DED300B6D48E5
:1018A000006B2D90FEF733FECDE92E019DED300B40
:1018B00053EC102B9DED2E0B51EC100BFEF739FD68
:1018C000CDE93401624890ED000AF2EE060A20EEFE
:1018D000200A8DED270A2798FEF719FECDE9280189
:1018E0009DED280B03F0F8FF8DED2C0B5948C06AD5
:1018F0002990FEF70CFECDE92A019DED2C0B53EC4F
:10190000102B9DED2A0B51EC100BFEF712FDCDE9CB
:1019100030014F4890ED000AF2EE040A20EE200A52
:101920008DED230A2398FEF7F2FDCDE924019DED0C
:10193000240B03F0D1FF8DED280B4648806A2590DB
:10194000FEF7E5FDCDE926019DED280B53EC102BAC
:101950009DED260B51EC100BFEF7EBFCCDE92C01B5
:101960003B4890ED000AF2EE020A20EE200A8DEDCF
:101970001F0A1F98FEF7CBFDCDE920019DED200B3E
:1019800003F0AAFF8DED240B3248406A2190FEF748
:10199000BEFDCDE922019DED240B53EC102B9DEDF6
:1019A000220B51EC100BFEF7C4FCCDE928012848AE
:1019B00090ED000AF2EE000A20EE200A8DED1B0ADF
:1019C0001B98FEF7A4FDCDE91C019DED1C0B03F057
:1019D00083FF8DED200B1F48006A1D90FEF797FDD9
:1019E000CDE91E019DED200B53EC102B9DED1E0B40
:1019F00051EC100BFEF79DFCCDE92401144890ED4D
:101A0000000AF1EE0C0A20EE200A8DED170A179855
:101A1000FEF77DFDCDE918019DED180B03F05CFF8D
:101A20008DED1C0B0B48C0691990FEF770FDCDE9D8
:101A30001A019DED1C0B53EC102B9DED1A0B51EC74
:101A4000100BFEF776FCCDE92001014804E0000010
:101A50002C000020B010002090ED000AF1EE080AE2
:101A600020EE200A8DED130A1398FEF750FDCDE904
:101A700014019DED140B03F02FFF8DED180BFE48A4
:101A800080691590FEF743FDCDE916019DED180B19
:101A900053EC102B9DED160B51EC100BFEF749FC8F
:101AA000CDE91C01F54890ED000AF1EE040A20EEA4
:101AB000200A8DED0F0A0F98FEF729FDCDE91001E0
:101AC0009DED100B03F008FF8DED140BEA48406903
:101AD0001190FEF71CFDCDE912019DED140B53ECA6
:101AE000102B9DED120B51EC100BFEF722FCCDE9F3
:101AF0001801E24890ED000AF1EE000A20EE200AFB
:101B00008DED0B0A0B98FEF702FDCDE90C019DED62
:101B10000C0B03F0E1FE8DED100BD74800690D9022
:101B2000FEF7F5FCCDE90E019DED100B53EC102BEB
:101B30009DED0E0B51EC100BFEF7FBFBCDE91401F4
:101B4000CE4890ED000AF0EE080A20EE200A8DED56
:101B5000070A0798FEF7DBFCCDE908019DED080BAD
:101B600003F0BAFE8DED0C0BC348C0680990FEF778
:101B7000CEFCCDE90A019DED0C0B53EC102B9DED35
:101B80000A0B51EC100BFEF7D4FBCDE91001BB485A
:101B900090ED000AF0EE000A20EE200A8DED030A17
:101BA0000398FEF7B4FCCDE904019DED040B03F0AE
:101BB00093FE8DED080BB04880680590FEF7A7FCFA
:101BC000CDE906019DED080B53EC102B9DED060BA6
:101BD00051EC100BFEF7ADFBCDE90C01A7480068F6
:101BE000FEF795FCCDE900019DED000B03F074FEBE
:101BF0008DED040BA04840680190FEF788FCCDE90C
:101C000002019DED040B53EC102B9DED020B51ECEA
:101C1000100BFEF78EFB9FED9A0BCDE9080103F048
:101C20005BFE8DED040B944800680190FEF76FFC9D
:101C3000CDE902019DED040B53EC102B9DED020B41
:101C400051EC100BFEF775FBCDE906019DED080B7D
:101C500053EC102B9DED060B51EC100BFEF7C2FA66
:101C6000CDE90A019DED0C0B53EC102B9DED0A0BF9
:101C700051EC100BFEF7B6FACDE90E019DED100BFD
:101C800053EC102B9DED0E0B51EC100BFEF7AAFA46
:101C9000CDE912019DED140B53EC102B9DED120BB1
:101CA00051EC100BFEF79EFACDE916019DED180BD5
:101CB00053EC102B9DED160B51EC100BFEF792FA26
:101CC000CDE91A019DED1C0B53EC102B9DED1A0B69
:101CD00051EC100BFEF786FACDE91E019DED200BAD
:101CE00053EC102B9DED1E0B51EC100BFEF77AFA06
:101CF000CDE922019DED240B53EC102B9DED220B21
:101D000051EC100BFEF76EFACDE926019DED280B84
:101D100053EC102B9DED260B51EC100BFEF762FAE5
:101D2000CDE92A019DED2C0B53EC102B9DED2A0BD8
:101D300051EC100BFEF756FACDE92E019DED300B5C
:101D400053EC102B9DED2E0B51EC100BFEF74AFAC5
:101D5000CDE932019DED340B53EC102B9DED320B90
:101D600051EC100BFEF73EFACDE936019DED380B34
:101D700053EC102B9DED360B51EC100BFEF732FAA5
:101D8000CDE93A019DED3C0B53EC102B9DED3A0B48
:101D900051EC100BFEF726FACDE93E019DED400B0C
:101DA00053EC102B9DED3E0B51EC100BFEF71AFA85
:101DB000439142909DED440B53EC102B9DED420B53
:101DC00051EC100BFEF70EFA479146909DED480B33
:101DD00053EC102B9DED460B51EC100BFEF702FA65
:101DE0004B914A909DED4C0B53EC102B9DED4A0B03
:101DF00051EC100BFEF7F6F94F914E909DED500B04
:101E000053EC102B9DED4E0B51EC100BFEF7EAF945
:101E1000539152909DED540B53EC102B9DED520BB2
:101E200051EC100BFEF7DEF9579156909DED580BD3
:101E300053EC102B9DED560B51EC100BFEF7D2F925
:101E40005B915A909DED5C0B53EC102B9DED5A0B62
:101E500051EC100BFEF7C6F95F915E909DED600BA3
:101E600053EC102B9DED5E0B51EC100BFEF7BAF905
:101E70006391629008E00000B01000202C00002068
:101E800000000000000000009DED640B53EC102BDF
:101E90009DED620B51EC100BFEF7A4F96791669073
:101EA0009DED680B53EC102B9DED660B51EC100B68
:101EB000FEF798F96B916A909DED6C0B53EC102B2B
:101EC0009DED6A0B51EC100BFEF78CF96F916E9043
:101ED0009DED700B53EC102B9DED6E0B51EC100B28
:101EE000FEF780F9739172909DED740B53EC102BFB
:101EF0009DED720B51EC100BFEF774F97791769013
:101F00009DED780B53EC102B9DED760B51EC100BE7
:101F1000FEF768F97B917A909DED7C0B53EC102BCA
:101F20009DED7A0B51EC100BFEF75CF97F917E90E2
:101F30009DED800B53EC102B9DED7E0B51EC100BA7
:101F4000FEF750F9839182909DED820B51EC100BBE
:101F5000FEF7F0FAFE490860FE4890ED000AF3EE45
:101F60000F0A20EE200A8DED770A7798FEF7CFFA58
:101F7000799178909DED780B03F012FD8DED7C0B3F
:101F8000F548C06F7990FEF7C2FA7B917A909DED8B
:101F90007C0B53EC102B9DED7A0B51EC100BFEF7E4
:101FA000C8F981918090EB4890ED000AF3EE0E0A9B
:101FB00020EE200A8DED730A7398FEF7A8FA75914A
:101FC00074909DED740B03F0EBFC8DED780BE24803
:101FD000806F7590FEF79BFA779176909DED780B68
:101FE00053EC102B9DED760B51EC100BFEF7A1F985
:101FF0007D917C90D74890ED000AF3EE0D0A20EE1B
:10200000200A8DED6F0A6F98FEF781FA719170903A
:102010009DED700B03F0C4FC8DED740BCE48406F4A
:102020007190FEF774FA739172909DED740B53ECFE
:10203000102B9DED720B51EC100BFEF77AF9799194
:102040007890C44890ED000AF3EE0C0A20EE200AC6
:102050008DED6B0A6B98FEF75AFA6D916C909DEDC1
:102060006C0B03F09DFC8DED700BBB48006F6D9009
:10207000FEF74DFA6F916E909DED700B53EC102BA7
:102080009DED6E0B51EC100BFEF753F975917490AA
:10209000B04890ED000AF3EE0B0A20EE200A8DED19
:1020A000670A6798FEF733FA699168909DED680BAF
:1020B00003F076FC8DED6C0BA748C06E6990FEF7BF
:1020C00026FA6B916A909DED6C0B53EC102B9DEDF5
:1020D0006A0B51EC100BFEF72CF9719170909D4832
:1020E00090ED000AF3EE0A0A20EE200A8DED630A55
:1020F0006398FEF70CFA659164909DED640B03F014
:102100004FFC8DED680B9448806E6590FEF7FFF9EB
:10211000679166909DED680B53EC102B9DED660B5F
:1021200051EC100BFEF705F96D916C90894890ED1C
:10213000000AF3EE090A20EE200A8DED5F0A5F988F
:10214000FEF7E5F9619160909DED600B03F028FCCE
:102150008DED640B8048406E6190FEF7D8F9639175
:1021600062909DED640B53EC102B9DED620B51ECD6
:10217000100BFEF7DEF869916890764890ED000A42
:10218000F3EE080A20EE200A8DED5B0A5B98FEF75D
:10219000BEF95D915C909DED5C0B03F001FC8DED53
:1021A000600B6D48006E5D90FEF7B1F95F915E9037
:1021B0009DED600B53EC102B9DED5E0B51EC100B65
:1021C000FEF7B7F865916490624890ED000AF3EE6F
:1021D000070A20EE200A8DED570A5798FEF797F967
:1021E000599158909DED580B03F0DAFB8DED5C0B87
:1021F0005948C06D5990FEF78AF95B915A909DED50
:102200005C0B53EC102B9DED5A0B51EC100BFEF7B1
:1022100090F8619160904F4890ED000AF3EE060A45
:1022200020EE200A8DED530A5398FEF770F9559170
:1022300054909DED540B03F0B3FB8DED580B4648C5
:10224000806D5590FEF763F9579156909DED580BB0
:1022500053EC102B9DED560B51EC100BFEF769F86B
:102260005D915C903B4890ED000AF3EE050A20EE8C
:10227000200A8DED4F0A4F98FEF749F95191509081
:102280009DED500B03F08CFB8DED540B3248406DEF
:102290005190FEF73CF9539152909DED540B53EC45
:1022A000102B9DED520B51EC100BFEF742F859919B
:1022B0005890284890ED000AF3EE040A20EE200A18
:1022C0008DED4B0A4B98FEF722F94D914C909DED08
:1022D0004C0B03F065FB8DED500B1F48006D4D90CE
:1022E000FEF715F94F914E909DED500B53EC102BCE
:1022F0009DED4E0B51EC100BFEF71BF855915490D1
:10230000144890ED000AF3EE030A20EE200A8DED4A
:10231000470A4798FEF7FBF8499148909DED480B16
:1023200003F03EFB8DED4C0B0B48C06C4990FEF763
:10233000EEF84B914A909DED4C0B53EC102B9DED1C
:102340004A0B51EC100BFDF7F4FF5191509005E052
:10235000480000202C000020B0100020FE4890ED26
:10236000000AF3EE020A20EE200A8DED430A43989C
:10237000FEF7CDF8459144909DED440B03F010FB22
:102380008DED480BF548806C4590FEF7C0F84791FD
:1023900046909DED480B53EC102B9DED460B51ECF8
:1023A000100BFDF7C6FF4D914C90EB4890ED000AE5
:1023B000F3EE010A20EE200A8DED3F0A3F98FEF76A
:1023C000A6F8419140909DED400B03F0E9FA8DEDA8
:1023D000440BE248406C4190FEF799F843914290DB
:1023E0009DED440B53EC102B9DED420B51EC100B6B
:1023F000FDF79FFF49914890D74890ED000AF3EE12
:10240000000A20EE200A8DED3B0A3B98FEF77FF88C
:10241000CDE93C019DED3C0B03F0C2FA8DED400B84
:10242000CE48006C3D90FEF772F8CDE93E019DED7F
:10243000400B53EC102B9DED3E0B51EC100BFDF7B8
:1024400078FF45914490C44890ED000AF2EE0E0AE0
:1024500020EE200A8DED370A3798FEF758F8CDE9BF
:1024600038019DED380B03F09BFA8DED3C0BBB481A
:10247000C06B3990FEF74BF8CDE93A019DED3C0B6E
:1024800053EC102B9DED3A0B51EC100BFDF751FF67
:1024900041914090B04890ED000AF2EE0C0A20EE17
:1024A000200A8DED330A3398FEF731F8CDE9340177
:1024B0009DED340B03F074FA8DED380BA748806B5B
:1024C0003590FEF724F8CDE936019DED380B53EC3D
:1024D000102B9DED360B51EC100BFDF72AFFCDE9CB
:1024E0003C019D4890ED000AF2EE0A0A20EE200A17
:1024F0008DED2F0A2F98FEF70AF8CDE930019DEDFA
:10250000300B03F04DFA8DED340B9448406B319055
:10251000FDF7FDFFCDE932019DED340B53EC102B9F
:102520009DED320B51EC100BFDF703FFCDE93801A7
:10253000894890ED000AF2EE080A20EE200A8DED9F
:102540002B0A2B98FDF7E3FFCDE92C019DED2C0B19
:1025500003F026FA8DED300B8048006B2D90FDF7CF
:10256000D6FFCDE92E019DED300B53EC102B9DEDE8
:102570002E0B51EC100BFDF7DCFECDE93401764853
:1025800090ED000AF2EE060A20EE200A8DED270AF1
:102590002798FDF7BCFFCDE928019DED280B03F03E
:1025A000FFF98DED2C0B6D48C06A2990FDF7AFFF48
:1025B000CDE92A019DED2C0B53EC102B9DED2A0B40
:1025C00051EC100BFDF7B5FECDE93001624890EDFE
:1025D000000AF2EE040A20EE200A8DED230A239869
:1025E000FDF795FFCDE924019DED240B03F0D8F90B
:1025F0008DED280B5948806A2590FDF788FFCDE9BD
:1026000026019DED280B53EC102B9DED260B51EC74
:10261000100BFDF78EFECDE92C014F4890ED000A1E
:10262000F2EE020A20EE200A8DED1F0A1F98FDF738
:102630006EFFCDE920019DED200B03F0B1F98DED8A
:10264000240B4648406A2190FDF761FFCDE9220145
:102650009DED240B53EC102B9DED220B51EC100B38
:10266000FDF767FECDE928013B4890ED000AF2EE48
:10267000000A20EE200A8DED1B0A1B98FDF747FF8C
:10268000CDE91C019DED1C0B03F08AF98DED200BAB
:102690003248006A1D90FDF73AFFCDE91E019DED1D
:1026A000200B53EC102B9DED1E0B51EC100BFDF786
:1026B00040FECDE92401284890ED000AF1EE0C0A15
:1026C00020EE200A8DED170A1798FDF720FFCDE9BF
:1026D00018019DED180B03F063F98DED1C0B1F48DD
:1026E000C0691990FDF713FFCDE91A019DED1C0B90
:1026F00053EC102B9DED1A0B51EC100BFDF719FE4E
:10270000CDE92001144890ED000AF1EE080A20EE10
:10271000200A8DED130A1398FDF7F9FECDE9140197
:102720009DED140B03F03CF98DED180B0B488069FF
:102730001590FDF7ECFECDE916019DED180B53EC5D
:10274000102B9DED160B51EC100BFDF7F2FDCDE9B2
:102750001C01014804E000002C000020B010002003
:1027600090ED000AF1EE040A20EE200A8DED0F0A2A
:102770000F98FDF7CCFECDE910019DED100B03F095
:102780000FF98DED140BFE4840691190FDF7BFFE67
:10279000CDE912019DED140B53EC102B9DED120BA6
:1027A00051EC100BFDF7C5FDCDE91801F548D0ED52
:1027B000000AB1EE000A20EE800A8DED0B0A0B989C
:1027C000FDF7A5FECDE90C019DED0C0B03F0E8F83B
:1027D0008DED100BEA4800690D90FDF798FECDE9EC
:1027E0000E019DED100B53EC102B9DED0E0B51ECDB
:1027F000100BFDF79EFDCDE91401E24890ED000AB3
:10280000F0EE080A20EE200A8DED070A0798FDF782
:102810007EFECDE908019DED080B03F0C1F88DEDBA
:102820000C0BD748C0680990FDF771FECDE90A018D
:102830009DED0C0B53EC102B9DED0A0B51EC100B86
:10284000FDF777FDCDE91001CE4890ED000AF0EEDE
:10285000000A20EE200A8DED030A0398FDF757FECB
:10286000CDE904019DED040B03F09AF88DED080B02
:10287000C34880680590FDF74AFECDE906019DED4D
:10288000080B53EC102B9DED060B51EC100BFDF7D4
:1028900050FDCDE90C01BB480068FDF738FECDE9DD
:1028A00000019DED000B03F07BF88DED040BB448A7
:1028B00040680190FDF72BFECDE902019DED040B70
:1028C00053EC102B9DED020B51EC100BFDF731FD7D
:1028D0009FEDAD0BCDE9080103F062F88DED040B1F
:1028E000A74800680190FDF712FECDE902019DEDB9
:1028F000040B53EC102B9DED020B51EC100BFDF76C
:1029000018FDCDE906019DED080B53EC102B9DED54
:10291000060B51EC100BFDF765FCCDE90A019DEDAE
:102920000C0B53EC102B9DED0A0B51EC100BFDF72B
:1029300059FCCDE90E019DED100B53EC102B9DEDD4
:102940000E0B51EC100BFDF74DFCCDE912019DED86
:10295000140B53EC102B9DED120B51EC100BFDF7EB
:1029600041FCCDE916019DED180B53EC102B9DEDAC
:10297000160B51EC100BFDF735FCCDE91A019DED5E
:102980001C0B53EC102B9DED1A0B51EC100BFDF7AB
:1029900029FCCDE91E019DED200B53EC102B9DED84
:1029A0001E0B51EC100BFDF71DFCCDE922019DED36
:1029B000240B53EC102B9DED220B51EC100BFDF76B
:1029C00011FCCDE926019DED280B53EC102B9DED5C
:1029D000260B51EC100BFDF705FCCDE92A019DED0E
:1029E0002C0B53EC102B9DED2A0B51EC100BFDF72B
:1029F000F9FBCDE92E019DED300B53EC102B9DED35
:102A00002E0B51EC100BFDF7EDFBCDE932019DEDE6
:102A1000340B53EC102B9DED320B51EC100BFDF7EA
:102A2000E1FBCDE936019DED380B53EC102B9DED0C
:102A3000360B51EC100BFDF7D5FBCDE93A019DEDBE
:102A40003C0B53EC102B9DED3A0B51EC100BFDF7AA
:102A5000C9FBCDE93E019DED400B53EC102B9DEDE4
:102A60003E0B51EC100BFDF7BDFB439142909DEDE9
:102A7000440B53EC102B9DED420B51EC100BFDF76A
:102A8000B1FB479146909DED480B53EC102B9DED0B
:102A9000460B51EC100BFDF7A5FB4B914A909DEDB9
:102AA0004C0B53EC102B9DED4A0B51EC100BFDF72A
:102AB00099FB4F914E909DED500B53EC102B9DEDDB
:102AC0004E0B51EC100BFDF78DFB539152909DED89
:102AD000540B53EC102B9DED520B51EC100BFDF7EA
:102AE00081FB579156909DED580B53EC102B9DEDAB
:102AF000560B51EC100BFDF775FB5B915A909DED59
:102B00005C0B53EC102B9DED5A0B51EC100BFDF7A9
:102B100069FB5F915E909DED600B53EC102B9DED7A
:102B20005E0B51EC100BFDF75DFB639162909DED28
:102B3000640B53EC102B9DED620B51EC100BFDF769
:102B400051FB679166909DED680B53EC102B9DED4A
:102B5000660B51EC100BFDF745FB6B916A909DEDF8
:102B60006C0B53EC102B9DED6A0B51EC100BFDF729
:102B700039FB6F916E909DED700B53EC102B07E0BD
:102B8000B01000202C000020000000000000000019
:102B90009DED6E0B51EC100BFDF724FB73917290C1
:102BA0009DED740B53EC102B9DED720B51EC100B43
:102BB000FDF718FB779176909DED780B53EC102B79
:102BC0009DED760B51EC100BFDF70CFB7B917A9091
:102BD0009DED7C0B53EC102B9DED7A0B51EC100B03
:102BE000FDF700FB7F917E909DED800B53EC102B49
:102BF0009DED7E0B51EC100BFDF7F4FA8391829062
:102C00009DED820B51EC100BFDF794FC6D490860B3
:102C10006D4890ED000A6D4880ED000A0020859017
:102C20001CE06949859801EB800090ED000A674837
:102C3000D0ED000AB4EEE00AF1EE10FA0ADD859854
:102C400001EB800090ED000A604880ED000A6049C9
:102C5000859808708598401CC0B2859085981F287B
:102C6000DFDD5C4890ED000A20EE000A5548D0ED0B
:102C7000000A90ED001A00EE810A8DED7D0A7D9824
:102C8000FDF745FC7F917E909DED7E0B02F0ECFE02
:102C90008DED800B9FED500B53EC102B9DED800BB9
:102CA00051EC100BFDF745FB839182909DED820B5B
:102CB00051EC100BFDF73EFC494908604148D0ED4E
:102CC000000A444890ED001A80EE810A8DED7B0ADF
:102CD0007B98FDF71CFC7D917C909DED7C0B02F0B8
:102CE0008FFC8DED7E0B9FED3F0B53EC102B9DED7C
:102CF0007E0B51EC100BFDF78EFB9FED3C0B53EC64
:102D0000102B819180909DED800B51EC100BFDF705
:102D100010FB839182909DED820B51EC100BFDF71F
:102D200009FC344908602B4890ED000AB5EEC00A52
:102D3000F1EE10FA19DD234890ED000AB5EEC00A55
:102D4000F1EE10FA0AD2084690ED000ADFED2A0AE9
:102D500030EE200A294880ED000A10E0254890ED69
:102D6000000A264880ED000A09E0224890ED000A9A
:102D7000DFED230A30EE200A204880ED000A1F48CC
:102D800090ED000ADFED1F0A30EE600A80ED000AC8
:102D900090ED000AB5EEC00AF1EE10FA09D290EDFE
:102DA000000ADFED150A30EE200A174880ED000A10
:102DB00005E0124890ED000A134880ED000A0DF579
:102DC000077D00BD4C000020B01000203C0000201A
:102DD00030000020480000207B14AE47E1BA534089
:102DE000400000206E861BF0F92109400000000021
:102DF00000806640500000200000B44344000020E2
:102E0000000034430000A0425400002000B5ADF59E
:102E1000077D002084902FE00020859013E0FE497C
:102E2000859801EBC011849801EB800090ED000AB9
:102E3000FA48D0ED000A30EE200A80ED000A8598AD
:102E4000401CC0B2859085980728E8DDF34890EDD6
:102E5000000AF2EE000A80EE201AF149849801EB94
:102E6000800080ED001A9FEDEF0AEC4880ED000A2B
:102E70008498401CC0B2849084981F28CCDDEAA0BE
:102E800002F09CFBEA4890ED000AF3EE0F0A20EEF8
:102E9000200A8DED770A7798FDF739FB79917890C4
:102EA0009DED780B02F018FD8DED7C0BDC48806FFA
:102EB0007990FDF72CFB7B917A909DED7C0B53EC88
:102EC000102B9DED7A0B51EC100BFDF732FA81912E
:102ED0008090D74890ED000AF3EE0E0A20EE200A0B
:102EE0008DED730A7398FDF712FB759174909DED4B
:102EF000740B02F0F1FC8DED780BC948806F759072
:102F0000FDF705FB779176909DED780B53EC102B38
:102F10009DED760B51EC100BFDF70BFA7D917C903B
:102F2000C34890ED000AF3EE0D0A20EE200A8DED65
:102F30006F0A6F98FDF7EBFA719170909DED700B31
:102F400002F0CAFC8DED740BB548406F7190FDF72F
:102F5000DEFA739172909DED740B53EC102B9DED86
:102F6000720B51EC100BFDF7E4F979917890B048B1
:102F700090ED000AF3EE0C0A20EE200A8DED6B0AAC
:102F80006B98FDF7C4FA6D916C909DED6C0B02F09F
:102F9000A3FC8DED700BA248006F6D90FDF7B7FAA2
:102FA0006F916E909DED700B53EC102B9DED6E0BA1
:102FB00051EC100BFDF7BDF9759174909C4890EDA4
:102FC000000AF3EE0B0A20EE200A8DED670A6798DF
:102FD000FDF79DFA699168909DED680B02F07CFC0D
:102FE0008DED6C0B8E48C06E6990FDF790FA6B9179
:102FF0006A909DED6C0B53EC102B9DED6A0B51EC20
:10300000100BFDF796F971917090894890ED000AC8
:10301000F3EE0A0A20EE200A8DED630A6398FDF7AD
:1030200076FA659164909DED640B02F055FC8DED90
:10303000680B7B48806E6590FDF769FA6791669032
:103040009DED680B53EC102B9DED660B51EC100BB6
:10305000FDF76FF96D916C90754890ED000AF3EEF5
:10306000090A20EE200A8DED5F0A5F98FDF74FFAFE
:10307000619160909DED600B02F02EFC8DED640B74
:103080006748406E6190FDF742FA639162909DED52
:10309000640B53EC102B9DED620B51EC100BFDF704
:1030A00048F969916890624890ED000AF3EE080AC9
:1030B00020EE200A8DED5B0A5B98FDF728FA5D9102
:1030C0005C909DED5C0B02F007FC8DED600B5448AD
:1030D000006E5D90FDF71BFA5F915E909DED600BB9
:1030E00053EC102B9DED5E0B51EC100BFDF721F90D
:1030F000659164904E4890ED000AF3EE070A20EEC9
:10310000200A8DED570A5798FDF701FA599158900A
:103110009DED580B02F0E0FB8DED5C0B4048C06D5F
:103120005990FDF7F4F95B915A909DED5C0B53ECCF
:10313000102B9DED5A0B51EC100BFDF7FAF8619135
:1031400060903B4890ED000AF3EE060A20EE200A5C
:103150008DED530A5398FDF7DAF9559154909DED92
:10316000540B02F0B9FB8DED580B2D48806D559036
:10317000FDF7CDF9579156909DED580B53EC102B60
:103180009DED560B51EC100BFDF7D3F85D915C9063
:10319000274890ED000AF3EE050A20EE200A8DED97
:1031A0004F0A4F98FDF7B3F9519150909DED500B98
:1031B00002F092FB8DED540B1948406D5190FDF7D4
:1031C000A6F9539152909DED540B53EC102B9DEDAD
:1031D000520B51EC100BFDF7ACF859915890144874
:1031E00090ED000AF3EE040A20EE200A8DED4B0A62
:1031F0004B98FDF78CF94D914C909DED4C0B02F0E6
:103200006BFB8DED500B0648006D4D90FDF77FF97F
:103210004F914E900EE00000B004002058000020B6
:10322000341100200000000032200D0A00000000D0
:103230002C0000209DED500B53EC102B9DED4E0B00
:1032400051EC100BFDF775F855915490FE4890ED38
:10325000000AF3EE030A20EE200A8DED470A479894
:10326000FDF755F9499148909DED480B02F034FB6C
:103270008DED4C0BF548C06C4990FDF748F94B912A
:103280004A909DED4C0B53EC102B9DED4A0B51ECED
:10329000100BFDF74EF851915090EB4890ED000A5D
:1032A000F3EE020A20EE200A8DED430A4398FDF763
:1032B0002EF9459144909DED440B02F00DFB8DEDF0
:1032C000480BE248806C4590FDF721F94791469004
:1032D0009DED480B53EC102B9DED460B51EC100B64
:1032E000FDF727F84D914C90D74890ED000AF3EE8A
:1032F000010A20EE200A8DED3F0A3F98FDF707F9FD
:10330000419140909DED400B02F0E6FA8DED440BAB
:10331000CE48406C4190FDF7FAF8439142909DED04
:10332000440B53EC102B9DED420B51EC100BFDF7B1
:1033300000F849914890C44890ED000AF3EE000A65
:1033400020EE200A8DED3B0A3B98FDF7E0F8CDE931
:103350003C019DED3C0B02F0BFFA8DED400BBB48EC
:10336000006C3D90FDF7D3F8CDE93E019DED400B9B
:1033700053EC102B9DED3E0B51EC100BFCF7D9FFDD
:1033800045914490B048D0ED000AB2EE0E0A20EE0E
:10339000800A8DED370A3798FDF7B9F8CDE9380185
:1033A0009DED380B02F098FA8DED3C0BA748C06BF1
:1033B0003990FDF7ACF8CDE93A019DED3C0B53ECAB
:1033C000102B9DED3A0B51EC100BFCF7B2FF419125
:1033D00040909D48D0ED000AB2EE0C0A20EE800A23
:1033E0008DED330A3398FDF792F8CDE934019DED68
:1033F000340B02F071FA8DED380B9448806B3590E8
:10340000FDF785F8CDE936019DED380B53EC102B17
:103410009DED360B51EC100BFCF78BFFCDE93C0119
:10342000894890ED000AF2EE0A0A20EE200A8DED9E
:103430002F0A2F98FDF76BF8CDE930019DED300B89
:1034400002F04AFA8DED340B8048406B3190FDF765
:103450005EF8CDE932019DED340B53EC102B9DED60
:10346000320B51EC100BFCF764FFCDE938017648C4
:1034700090ED000AF2EE080A20EE200A8DED2B0AEC
:103480002B98FDF744F8CDE92C019DED2C0B02F0B3
:1034900023FA8DED300B6D48006B2D90FDF737F85A
:1034A000CDE92E019DED300B53EC102B9DED2E0B35
:1034B00051EC100BFCF73DFFCDE93401624890ED73
:1034C000000AF2EE060A20EE200A8DED270A279860
:1034D000FDF71DF8CDE928019DED280B02F0FCF960
:1034E0008DED2C0B5948C06A2990FDF710F8CDE9F5
:1034F0002A019DED2C0B53EC102B9DED2A0B51EC6A
:10350000100BFCF716FFCDE930014F4890ED000A93
:10351000F2EE040A20EE200A8DED230A2398FCF730
:10352000F6FFCDE924019DED240B02F0D5F98DEDD8
:10353000280B4648806A2590FCF7E9FFCDE9260173
:103540009DED280B53EC102B9DED260B51EC100B31
:10355000FCF7EFFECDE92C013B4890ED000AF2EEBE
:10356000020A20EE200A8DED1F0A1F98FCF7CFFFFC
:10357000CDE920019DED200B02F0AEF98DED240B7D
:103580003248406A2190FCF7C2FFCDE922019DED4F
:10359000240B53EC102B9DED220B51EC100BFCF780
:1035A000C8FECDE92801284890ED000AF2EE000A95
:1035B00020EE200A8DED1B0A1B98FCF7A8FFCDE931
:1035C0001C019DED1C0B02F087F98DED200B1F48AF
:1035D000006A1D90FCF79BFFCDE91E019DED200BBD
:1035E00053EC102B9DED1E0B51EC100BFCF7A1FEC4
:1035F000CDE92401144890ED000AF1EE0C0A20EE0A
:10360000200A8DED170A1798FCF781FFCDE9180104
:103610009DED180B02F060F98DED1C0B0B48C06995
:103620001990FCF774FFCDE91A019DED1C0B53ECCA
:10363000102B9DED1A0B51EC100BFCF77AFECDE927
:103640002001014804E000002C000020341100207B
:10365000D0ED000AB1EE080A20EE800A8DED130AC3
:103660001398FCF754FFCDE914019DED140B02F003
:1036700033F98DED180BFE4880691590FCF747FF74
:10368000CDE916019DED180B53EC102B9DED160B9B
:1036900051EC100BFCF74DFECDE91C01F548D0EDC7
:1036A000000AB1EE040A20EE800A8DED0F0A0F9891
:1036B000FCF72DFFCDE910019DED100B02F00CF988
:1036C0008DED140BEA4840691190FCF720FFCDE91D
:1036D00012019DED140B53EC102B9DED120B51ECD0
:1036E000100BFCF726FECDE91801E24890ED000A28
:1036F000F1EE000A20EE200A8DED0B0A0B98FCF784
:1037000006FFCDE90C019DED0C0B02F0E5F88DED07
:10371000100BD74800690D90FCF7F9FECDE90E01BA
:103720009DED100B53EC102B9DED0E0B51EC100B7F
:10373000FCF7FFFDCDE91401CE4890ED000AF0EE54
:10374000080A20EE200A8DED070A0798FCF7DFFE35
:10375000CDE908019DED080B02F0BEF88DED0C0BD4
:10376000C348C0680990FCF7D2FECDE90A019DED7F
:103770000C0B53EC102B9DED0A0B51EC100BFCF7CE
:10378000D8FDCDE91001BB48D0ED000AB0EE000A2B
:1037900020EE800A8DED030A0398FCF7B8FECDE910
:1037A00004019DED040B02F097F88DED080BB04875
:1037B00080680590FCF7ABFECDE906019DED080B96
:1037C00053EC102B9DED060B51EC100BFCF7B1FDEB
:1037D000CDE90C01A7480068FCF799FECDE900018E
:1037E0009DED000B02F078F88DED040BA0484068C9
:1037F0000190FCF78CFECDE902019DED040B53EC2A
:10380000102B9DED020B51EC100BFCF792FD9FED80
:103810009A0BCDE9080102F05FF88DED040B944896
:1038200000680190FCF773FECDE902019DED040BE9
:1038300053EC102B9DED020B51EC100BFCF779FDB6
:10384000CDE906019DED080B53EC102B9DED060B09
:1038500051EC100BFCF7C6FCCDE90A019DED0C0BF9
:1038600053EC102B9DED0A0B51EC100BFCF7BAFC3E
:10387000CDE90E019DED100B53EC102B9DED0E0BC1
:1038800051EC100BFCF7AEFCCDE912019DED140BD1
:1038900053EC102B9DED120B51EC100BFCF7A2FC1E
:1038A000CDE916019DED180B53EC102B9DED160B79
:1038B00051EC100BFCF796FCCDE91A019DED1C0BA9
:1038C00053EC102B9DED1A0B51EC100BFCF78AFCFE
:1038D000CDE91E019DED200B53EC102B9DED1E0B31
:1038E00051EC100BFCF77EFCCDE922019DED240B81
:1038F00053EC102B9DED220B51EC100BFCF772FCDE
:10390000CDE926019DED280B53EC102B9DED260BE8
:1039100051EC100BFCF766FCCDE92A019DED2C0B58
:1039200053EC102B9DED2A0B51EC100BFCF75AFCBD
:10393000CDE92E019DED300B53EC102B9DED2E0BA0
:1039400051EC100BFCF74EFCCDE932019DED340B30
:1039500053EC102B9DED320B51EC100BFCF742FC9D
:10396000CDE936019DED380B53EC102B9DED360B58
:1039700051EC100BFCF736FCCDE93A019DED3C0B08
:1039800053EC102B9DED3A0B51EC100BFCF72AFC7D
:10399000CDE93E019DED400B53EC102B9DED3E0B10
:1039A00051EC100BFCF71EFC439142909DED440B33
:1039B00053EC102B9DED420B51EC100BFCF712FC5D
:1039C000479146909DED480B53EC102B9DED460B17
:1039D00051EC100BFCF706FC4B914A909DED4C0B03
:1039E00053EC102B9DED4A0B51EC100BFCF7FAFB3E
:1039F0004F914E909DED500B53EC102B9DED4E0BC7
:103A000051EC100BFCF7EEFB539152909DED540BD3
:103A100053EC102B9DED520B51EC100BFCF7E2FB1D
:103A2000579156909DED580B53EC102B9DED560B76
:103A300051EC100BFCF7D6FB5B915A909DED5C0BA3
:103A400053EC102B9DED5A0B51EC100BFCF7CAFBFD
:103A50005F915E909DED600B53EC102B9DED5E0B26
:103A600051EC100BFCF7BEFB6391629008E0000084
:103A7000341100202C000020000000000000000095
:103A80009DED640B53EC102B9DED620B51EC100B74
:103A9000FCF7A8FB679166909DED680B53EC102B2B
:103AA0009DED660B51EC100BFCF79CFB6B916A9043
:103AB0009DED6C0B53EC102B9DED6A0B51EC100B34
:103AC000FCF790FB6F916E909DED700B53EC102BFB
:103AD0009DED6E0B51EC100BFCF784FB7391729013
:103AE0009DED740B53EC102B9DED720B51EC100BF4
:103AF000FCF778FB779176909DED780B53EC102BCB
:103B00009DED760B51EC100BFCF76CFB7B917A90E2
:103B10009DED7C0B53EC102B9DED7A0B51EC100BB3
:103B2000FCF760FB7F917E909DED800B53EC102B9A
:103B30009DED7E0B51EC100BFCF754FB83918290B2
:103B40009DED820B51EC100BFCF7F4FCFE49086074
:103B5000FE4890ED000AF3EE0F0A20EE200A8DEDEC
:103B6000770A7798FCF7D3FC799178909DED780BE4
:103B700001F016FF8DED7C0BF548C06F7990FCF7D6
:103B8000C6FC7B917A909DED7C0B53EC102B9DED48
:103B90007A0B51EC100BFCF7CCFB81918090EB4839
:103BA00090ED000AF3EE0E0A20EE200A8DED730A66
:103BB0007398FCF7ACFC759174909DED740B01F05B
:103BC000EFFE8DED780BE248806F7590FCF79FFC5F
:103BD000779176909DED780B53EC102B9DED760B45
:103BE00051EC100BFCF7A5FB7D917C90D74890ED34
:103BF000000AF3EE0D0A20EE200A8DED6F0A6F9891
:103C0000FCF785FC719170909DED700B01F0C8FE82
:103C10008DED740BCE48406F7190FCF778FC73917A
:103C200072909DED740B53EC102B9DED720B51ECCB
:103C3000100BFCF77EFB79917890C44890ED000A58
:103C4000F3EE0C0A20EE200A8DED6B0A6B98FCF760
:103C50005EFC6D916C909DED6C0B01F0A1FE8DED05
:103C6000700BBB48006F6D90FCF751FC6F916E902C
:103C70009DED700B53EC102B9DED6E0B51EC100B6A
:103C8000FCF757FB75917490B04890ED000AF3EE85
:103C90000B0A20EE200A8DED670A6798FCF737FCC7
:103CA000699168909DED680B01F07AFE8DED6C0BCB
:103CB000A748C06E6990FCF72AFC6B916A909DED55
:103CC0006C0B53EC102B9DED6A0B51EC100BFCF7B9
:103CD00030FB719170909D4890ED000AF3EE0A0A56
:103CE00020EE200A8DED630A6398FCF710FC6591C5
:103CF00064909DED640B01F053FE8DED680B9448CC
:103D0000806E6590FCF703FC679166909DED680BF3
:103D100053EC102B9DED660B51EC100BFCF709FBDF
:103D20006D916C90894890ED000AF3EE090A20EE3F
:103D3000200A8DED5F0A5F98FCF7E9FB61916090C6
:103D40009DED600B01F02CFE8DED640B8048406E04
:103D50006190FCF7DCFB639162909DED640B53EC8A
:103D6000102B9DED620B51EC100BFCF7E2FA699100
:103D70006890764890ED000AF3EE080A20EE200ADB
:103D80008DED5B0A5B98FCF7C2FB5D915C909DED4D
:103D90005C0B01F005FE8DED600B6D48006E5D90D3
:103DA000FCF7B5FB5F915E909DED600B53EC102B23
:103DB0009DED5E0B51EC100BFCF7BBFA6591649026
:103DC000624890ED000AF3EE070A20EE200A8DED1E
:103DD000570A5798FCF79BFB599158909DED580B4B
:103DE00001F0DEFD8DED5C0B5948C06D5990FCF77C
:103DF0008EFB5B915A909DED5C0B53EC102B9DED6F
:103E00005A0B51EC100BFCF794FA619160904F48FB
:103E100090ED000AF3EE060A20EE200A8DED530A1B
:103E20005398FCF774FB559154909DED540B01F0A1
:103E3000B7FD8DED580B4648806D5590FCF767FB3C
:103E4000579156909DED580B53EC102B9DED560B52
:103E500051EC100BFCF76DFA5D915C903B4890EDD6
:103E6000000AF3EE050A20EE200A8DED4F0A4F9866
:103E7000FCF74DFB519150909DED500B01F090FDE2
:103E80008DED540B3248406D5190FCF740FB53913F
:103E900052909DED540B53EC102B9DED520B51ECB9
:103EA000100BFCF746FA59915890284890ED000AFB
:103EB000F3EE040A20EE200A8DED4B0A4B98FCF736
:103EC00026FB4D914C909DED4C0B01F069FD8DED65
:103ED000500B1F48006D4D90FCF719FB4F914E9011
:103EE0009DED500B53EC102B9DED4E0B51EC100B38
:103EF000FCF71FFA55915490144890ED000AF3EE28
:103F0000030A20EE200A8DED470A4798FCF7FFFAD6
:103F1000499148909DED480B01F042FD8DED4C0B11
:103F20000B48C06C4990FCF7F2FA4B914A909DED1A
:103F30004C0B53EC102B9DED4A0B51EC100BFCF786
:103F4000F8F95191509005E0680000202C00002005
:103F500034110020FE4890ED000AF3EE020A20EE34
:103F6000200A8DED430A4398FCF7D1FA459144901D
:103F70009DED440B01F014FD8DED480BF548806C70
:103F80004590FCF7C4FA479146909DED480B53ECE1
:103F9000102B9DED460B51EC100BFCF7CAF94D911F
:103FA0004C90EB4890ED000AF3EE010A20EE200A57
:103FB0008DED3F0A3F98FCF7AAFA419140909DEDA4
:103FC000400B01F0EDFC8DED440BE248406C41905C
:103FD000FCF79DFA439142909DED440B53EC102B5E
:103FE0009DED420B51EC100BFCF7A3F94991489061
:103FF000D74890ED000AF3EE000A20EE200A8DED7E
:104000003B0A3B98FCF783FACDE93C019DED3C0B64
:1040100001F0C6FC8DED400BCE48006C3D90FCF7E6
:1040200076FACDE93E019DED400B53EC102B9DED52
:104030003E0B51EC100BFCF77CF945914490C448C1
:1040400090ED000AF2EE0E0A20EE200A8DED370AFE
:104050003798FCF75CFACDE938019DED380B01F09B
:104060009FFC8DED3C0BBB48C06B3990FCF74FFAC1
:10407000CDE93A019DED3C0B53EC102B9DED3A0B35
:1040800051EC100BFCF755F941914090B04890ED80
:10409000000AF2EE0C0A20EE200A8DED330A339866
:1040A000FCF735FACDE934019DED340B01F078FCD5
:1040B0008DED380BA748806B3590FCF728FACDE9D9
:1040C00036019DED380B53EC102B9DED360B51EC6A
:1040D000100BFCF72EF9CDE93C019D4890ED000A4C
:1040E000F2EE0A0A20EE200A8DED2F0A2F98FCF737
:1040F0000EFACDE930019DED300B01F051FC8DED54
:10410000340B9448406B3190FCF701FACDE9320151
:104110009DED340B53EC102B9DED320B51EC100B3D
:10412000FCF707F9CDE93801894890ED000AF2EE75
:10413000080A20EE200A8DED2B0A2B98FCF7E7F9F0
:10414000CDE92C019DED2C0B01F02AFC8DED300BFF
:104150008048006B2D90FCF7DAF9CDE92E019DED3A
:10416000300B53EC102B9DED2E0B51EC100BFCF78C
:10417000E0F8CDE934017648D0ED000AB2EE060A47
:1041800020EE800A8DED270A2798FCF7C0F9CDE9CB
:1041900028019DED280B01F003FC8DED2C0B6D48E3
:1041A000C06A2990FCF7B3F9CDE92A019DED2C0BEB
:1041B00053EC102B9DED2A0B51EC100BFCF7B9F8CA
:1041C000CDE93001624890ED000AF2EE040A20EEDB
:1041D000200A8DED230A2398FCF799F9CDE92401F3
:1041E0009DED240B01F0DCFB8DED280B5948806A16
:1041F0002590FCF78CF9CDE926019DED280B53ECB9
:10420000102B9DED260B51EC100BFCF792F8CDE92D
:104210002C014F4890ED000AF2EE020A20EE200A2F
:104220008DED1F0A1F98FCF772F9CDE920019DED75
:10423000200B01F0B5FB8DED240B4648406A219020
:10424000FCF765F9CDE922019DED240B53EC102B11
:104250009DED220B51EC100BFCF76BF8CDE928011A
:104260003B4890ED000AF2EE000A20EE200A8DEDA8
:104270001B0A1B98FCF74BF9CDE91C019DED1C0BAB
:1042800001F08EFB8DED200B3248006A1D90FCF78B
:104290003EF9CDE91E019DED200B53EC102B9DED59
:1042A0001E0B51EC100BFCF744F8CDE92401284813
:1042B00090ED000AF1EE0C0A20EE200A8DED170AAF
:1042C0001798FCF724F9CDE918019DED180B01F0C2
:1042D00067FB8DED1C0B1F48C0691990FCF717F99F
:1042E000CDE91A019DED1C0B53EC102B9DED1A0B23
:1042F00051EC100BFCF71DF8CDE92001144890EDAE
:10430000000AF1EE080A20EE200A8DED130A139838
:10431000FCF7FDF8CDE914019DED140B01F040FB15
:104320008DED180B0B4880691590FCF7F0F8CDE97E
:1043300016019DED180B53EC102B9DED160B51EC57
:10434000100BFBF7F6FFCDE91C01014804E000006B
:104350002C0000203411002090ED000AF1EE040A38
:1043600020EE200A8DED0F0A0F98FCF7D0F8CDE96A
:1043700010019DED100B01F013FB8DED140BFE48A9
:1043800040691190FCF7C3F8CDE912019DED140BC3
:1043900053EC102B9DED120B51EC100BFBF7C9FFEA
:1043A000CDE91801F54890ED000AF1EE000A20EE83
:1043B000200A8DED0B0A0B98FCF7A9F8CDE90C014A
:1043C0009DED0C0B01F0ECFA8DED100BEA48006945
:1043D0000D90FCF79CF8CDE90E019DED100B53EC10
:1043E000102B9DED0E0B51EC100BFBF7A2FFCDE94E
:1043F0001401E248D0ED000AB0EE080A20EE800A6F
:104400008DED070A0798FCF782F8CDE908019DEDCC
:10441000080B01F0C5FA8DED0C0BD748C068099068
:10442000FCF775F8CDE90A019DED0C0B53EC102B50
:104430009DED0A0B51EC100BFBF77BFFCDE9100152
:10444000CE4890ED000AF0EE000A20EE200A8DED35
:10445000030A0398FCF75BF8CDE904019DED040B1A
:1044600001F09EFA8DED080BC34880680590FCF7BB
:104470004EF8CDE906019DED080B53EC102B9DED98
:10448000060B51EC100BFBF754FFCDE90C01BB48B8
:104490000068FCF73CF8CDE900019DED000B01F050
:1044A0007FFA8DED040BB44840680190FCF72FF8BB
:1044B000CDE902019DED040B53EC102B9DED020B99
:1044C00051EC100BFBF735FF9FEDAD0BCDE908016B
:1044D00001F066FA8DED040BA74800680190FCF727
:1044E00016F8CDE902019DED040B53EC102B9DED68
:1044F000020B51EC100BFBF71CFFCDE906019DED03
:10450000080B53EC102B9DED060B51EC100BFBF739
:1045100069FECDE90A019DED0C0B53EC102B9DEDCE
:104520000A0B51EC100BFBF75DFECDE90E019DED82
:10453000100B53EC102B9DED0E0B51EC100BFBF7F9
:1045400051FECDE912019DED140B53EC102B9DEDA6
:10455000120B51EC100BFBF745FECDE916019DED5A
:10456000180B53EC102B9DED160B51EC100BFBF7B9
:1045700039FECDE91A019DED1C0B53EC102B9DED7E
:104580001A0B51EC100BFBF72DFECDE91E019DED32
:10459000200B53EC102B9DED1E0B51EC100BFBF779
:1045A00021FECDE922019DED240B53EC102B9DED56
:1045B000220B51EC100BFBF715FECDE926019DED0A
:1045C000280B53EC102B9DED260B51EC100BFBF739
:1045D00009FECDE92A019DED2C0B53EC102B9DED2E
:1045E0002A0B51EC100BFBF7FDFDCDE92E019DEDE3
:1045F000300B53EC102B9DED2E0B51EC100BFBF7F9
:10460000F1FDCDE932019DED340B53EC102B9DED06
:10461000320B51EC100BFBF7E5FDCDE936019DEDBA
:10462000380B53EC102B9DED360B51EC100BFBF7B8
:10463000D9FDCDE93A019DED3C0B53EC102B9DEDDE
:104640003A0B51EC100BFBF7CDFDCDE93E019DED92
:10465000400B53EC102B9DED3E0B51EC100BFBF778
:10466000C1FD439142909DED440B53EC102B9DED09
:10467000420B51EC100BFBF7B5FD479146909DEDB9
:10468000480B53EC102B9DED460B51EC100BFBF738
:10469000A9FD4B914A909DED4C0B53EC102B9DEDD9
:1046A0004A0B51EC100BFBF79DFD4F914E909DED89
:1046B000500B53EC102B9DED4E0B51EC100BFBF7F8
:1046C00091FD539152909DED540B53EC102B9DEDA9
:1046D000520B51EC100BFBF785FD579156909DED59
:1046E000580B53EC102B9DED560B51EC100BFBF7B8
:1046F00079FD5B915A909DED5C0B53EC102B9DED79
:104700005A0B51EC100BFBF76DFD5F915E909DED28
:10471000600B53EC102B9DED5E0B51EC100BFBF777
:1047200061FD639162909DED640B53EC102B9DED48
:10473000620B51EC100BFBF755FD679166909DEDF8
:10474000680B53EC102B9DED660B51EC100BFBF737
:1047500049FD6B916A909DED6C0B53EC102B9DED18
:104760006A0B51EC100BFBF73DFD6F916E909DEDC8
:10477000700B53EC102B07E0341100202C000020AC
:1047800000000000000000009DED6E0B51EC100BCE
:10479000FBF728FD739172909DED740B53EC102B79
:1047A0009DED720B51EC100BFBF71CFD7791769091
:1047B0009DED780B53EC102B9DED760B51EC100B0F
:1047C000FBF710FD7B917A909DED7C0B53EC102B49
:1047D0009DED7A0B51EC100BFBF704FD7F917E9061
:1047E0009DED800B53EC102B9DED7E0B51EC100BCF
:1047F000FBF7F8FC839182909DED820B51EC100B3E
:10480000FBF798FE6E4908606E4890ED000A6E480E
:1048100080ED000A002085901CE06A49859801EB34
:10482000800090ED000A6848D0ED000AB4EEE00A7E
:10483000F1EE10FA0ADD859801EB800090ED000A98
:10484000614880ED000A6149859808708598401C90
:10485000C0B2859085981F28DFDD5D4890ED000A85
:1048600020EE000A5648D0ED000A90ED001A00EE46
:10487000810A8DED7D0A7D98FBF749FE7F917E9040
:104880009DED7E0B01F0F0F88DED800B9FED510B4F
:1048900053EC102B9DED800B51EC100BFBF749FDF9
:1048A000839182909DED820B51EC100BFBF742FE41
:1048B0004A4908604248D0ED000A454890ED001A88
:1048C00080EE810A8DED7B0A7B98FBF720FE7D91BF
:1048D0007C909DED7C0B00F093FE8DED7E0B9FEDAB
:1048E000400B53EC102B9DED7E0B51EC100BFBF7A6
:1048F00092FD9FED3D0B53EC102B819180909DED2F
:10490000800B51EC100BFBF714FD839182909DED11
:10491000820B51EC100BFBF70DFE354908602C485B
:1049200090ED000AB5EEC00AF1EE10FA19DD244848
:1049300090ED000AB5EEC00AF1EE10FA0AD2084670
:1049400090ED000ADFED2B0A30EE200A2A4880EDB8
:10495000000A10E0264890ED000A274880ED000A82
:1049600009E0234890ED000ADFED240A30EE200A2A
:10497000214880ED000A204890ED000ADFED200A72
:1049800030EE200A80ED000A90ED000ADFED190AF2
:10499000B4EEE00AF1EE10FA09DD90ED000ADFED69
:1049A000150A30EE600A174880ED000A05E012484B
:1049B00090ED000A134880ED000A0DF5077D00BD5B
:1049C0006C000020341100205C000020300000202A
:1049D000680000207B14AE47E1BA5340600000201D
:1049E0006E861BF0F921094000000000008066403F
:1049F000700000200000B443640000200000344335
:104A000000003E437400002000BFFEE71CB50121FA
:104A1000052000F0FDF80120009000208DF8040032
:104A20008DF8070069460548FCF76EFB4FF400500F
:104A3000009069460248FCF767FB1CBD000002407D
:104A4000000802401CB5012140F2C91000F0E0F856
:104A50002020009001208DF8040000208DF8060031
:104A60008DF8050069461F48FCF74EFB20211D48C4
:104A7000FCF7B5FB0820009069461B48FCF744FB97
:104A800008211948FCF7ADFB4FF48070009069468F
:104A90001648FCF739FB4FF480711448FCF7A1FB72
:104AA0000420009069461248FCF72EFB04211048B0
:104AB000FCF795FB0820009069460D48FCF724FBA5
:104AC000009881B20A48FCF78AFB4FF4007000900E
:104AD00069460848FCF718FB4FF400710548FCF7DD
:104AE0007EFB1CBD000C0240002002400000024082
:104AF00000180240001C024000BFFEE7704708B5E6
:104B000028208DF8000001208DF8010002208DF88A
:104B1000020001208DF80300684600F031F8032000
:104B20008DF8020017208DF80000684600F028F884
:104B300008BD08B54FF4A06000F05EF825208DF8A0
:104B4000000001208DF801008DF802008DF80300AF
:104B5000684600F015F808BD08B54FF4E06000F0B5
:104B60004BF847208DF8000001208DF801008DF8EA
:104B700002008DF80300684600F002F808BD00004E
:104B800070B5002100230F22C4781CB3174C246891
:104B900004F4E064C4F5E064C4F30721C1F1040443
:104BA000E3B20A4144789C40E1B284781440214346
:104BB0000C07210E0E4C05786155047804F01F0592
:104BC0000124AC4005786D11AD0005F1E025C5F874
:104BD000004109E0047804F01F050124AC40054DB4
:104BE0000678761145F8264070BD00000CED00E017
:104BF00000E400E080E100E002490143024A116064
:104C0000704700000000FA050CED00E0704700005E
:104C100029B1064A12680243044B1A6004E0034AB1
:104C200012688243014B1A6070470000303802401E
:104C300029B1064A12680243044B1A6004E0034A91
:104C400012688243014B1A607047000040380240EE
:104C500029B1064A12680243044B1A6004E0034A71
:104C600012688243014B1A607047000020380240EE
:104C700029B1064A12680243044B1A6004E0034A51
:104C800012688243014B1A607047000044380240AA
:104C9000F0B5002100220024022500260223324F15
:104CA0003F6807F00C0121B1042905D0082937D14C
:104CB00005E02E4F076036E02D4F076033E02A4FA6
:104CC0003F1F3F68C7F38056274F3F1F3F6807F0DD
:104CD0003F036EB1264FB7FBF3F7DFF88CC0ACF1A2
:104CE000040CDCF800C0CCF3881C07FB0CF40CE0CF
:104CF0001E4FB7FBF3F7DFF870C0ACF1040CDCF823
:104D000000C0CCF3881C07FB0CF4174F3F1F3F6813
:104D1000C7F301477F1C7D00B4FBF5F7076002E095
:104D2000124F076000BF00BF0F4F3F6807F0F00150
:104D30000909104F7A5C0768D74047600A4F3F68FF
:104D400007F4E051890A0B4F7A5C4768D7408760C7
:104D5000054F3F6807F46041490B064F7A5C47688E
:104D6000D740C760F0BD0000083802400024F400BE
:104D700040787D01000000201CB501210520FFF7CF
:104D800047FF0420009003208DF8040000208DF8D8
:104D9000070069460748FCF7B7F920200090032078
:104DA0008DF8040000208DF8070069460248FCF7E2
:104DB000ABF91CBD000802400000024000B58BB0FA
:104DC00001210802FFF754FF002001904FF440300A
:104DD0000290002003904FF47060049001A8FBF74C
:104DE00029FD05A8FBF7D7FD002005908DF81800D8
:104DF0008DF819000790099001208DF8280005A969
:104E00000548FBF73DFD01210348FBF707FD02487C
:104E1000FBF7BCFD0BB000BD0020014010B5FFF753
:104E2000ABFFFFF7CBFF10BD7047000030B500228D
:104E30008B071C0F0F2303FA04F20B4B8C1053F853
:104E400024309343084C8D1044F8253023468C10B1
:104E500053F824308C07240F00FA04F42343024C47
:104E60008D1044F8253030BD083801400CB50020C5
:104E7000019000904148006840F480303F4908604C
:104E800000BF3E48006800F4003000900198401CCC
:104E90000190009818B90198B0F5A04FF1D13748AA
:104EA000006800F4003010B10120009001E0002003
:104EB00000900098012860D130484030006840F0F0
:104EC00080502E49403108602D48006840F4404031
:104ED0002B490860294808300068284908310860D3
:104EE0000846006840F4004008600846006840F446
:104EF000A05008602348091F0860081F006840F0A0
:104F00008070091F086000BF1C48006800F0007036
:104F10000028F9D01A48006840F480301849086029
:104F200000BF1748406800F480300028F9D01448CA
:104F3000006840F400301249086000BF1048406823
:104F400000F400300028F9D040F205700E490860E6
:104F50000A480830006820F003000849083108605A
:104F60000846006840F00200086000BF03480830AF
:104F7000006800F00C000828F8D10CBD0038024091
:104F800000700040195A4007003C02407047000082
:104F900010B51548006840F47000134908601348C4
:104FA000006840F001001149086000200F490831F5
:104FB00008600E4800680E4908400C4908600D481A
:104FC000091D0860081F006820F48020091F086080
:104FD000002006490C310860FFF748FF4FF00060E1
:104FE00001498039086010BD88ED00E000380240BA
:104FF000FFFFF6FE10300024F0B50C4615460021E8
:105000000022068C4FF6FE773E400684018B028C10
:105010004FF60C7631407E1C06EA03162E433143D0
:105020004FF6F576324044F00106324301830284A4
:10503000F0BDF0B50C461546002100220026078C75
:105040004FF6EF7C07EA0C070784018B028C4FF6C2
:10505000FF7707EA041640F6FF4739404FF6FF771F
:1050600007EA033739434FF6FF7707EA0527394345
:105070004FF65F773A4046F010073A4301830284C7
:10508000F0BD000010B50421134800F033F81248B9
:1050900000F03FF81149088008460088B0B1084682
:1050A000008800EE100AB8EE400ADFED0D0A80EE2F
:1050B000801A0C4880ED001A90ED000ADFED0A0A14
:1050C00020EE200A094880ED000A04E09FED080A5E
:1050D000044880ED000A10BD0004014010000020CB
:1050E0000050C34714000020000070421800002048
:1050F00000000000CA430282704721B1028842F0DA
:105100000102028004E002884FF6FE731A4002801A
:1051100070470146886B70471AB183890B438381BE
:1051200002E083898B43838170472DE9F041054676
:105130000C4600260127608808B9022600E00026F8
:10514000A088012801D1022700E001272088A0B90A
:105150002389A28861882846FFF74EFFE188284608
:1051600000F07FF823893A4631462846FFF761FF71
:10517000E188284600F07EF813E02389A288618840
:105180002846FFF756FFE188284600F073F8238988
:105190003A4631462846FFF72FFFE188284600F0BF
:1051A00060F8BDE8F081000000B587B00121022061
:1051B000FFF75EFD4FF6FE70059040F20770ADF808
:1051C00010000020ADF81800ADF8120004A9164830
:1051D00000F05EF80420ADF804000020ADF80600F1
:1051E0000120ADF808000020ADF80A00ADF80C0071
:1051F00001A90D48FFF799FF60210B4800F016F850
:105200000421094800F024F88021074800F017F82D
:1052100001210548FFF771FF012204210248FFF731
:105220007BFF07B000BD0000000401400A460021DA
:1052300001894FF68F73194011430181704702892C
:105240004FF67F731A40028102890A430281704738
:1052500002894FF6F8731A40028102890A430281DB
:105260007047028B4FF6F3731A400283028B0A4396
:1052700002837047028B4FF2FF331A400283028B86
:105280004FF6FF7303EA01231A43028370470000BD
:1052900000220288184B98420ED0184B98420BD02F
:1052A000B0F1804F08D0164B984205D0154B98426C
:1052B00002D0154B984204D14FF68F731A404B8899
:1052C0001A43124B984207D0114B984204D04FF624
:1052D000FF431A400B891A4302804B68C3620B8854
:1052E0000385054B984202D0044B984201D18B7A3A
:1052F00003860123838270470000014000040140BF
:105300000004004000080040000C00400010004075
:105310000014004010B500F005F800F021F8FFF788
:1053200043FF10BD1CB501210802FFF771FC0322E9
:1053300006210A48FBF730FF02208DF80400002008
:105340008DF806008DF8070003208DF80500402039
:10535000009069460148FBF7D7FE1CBD00200240C3
:1053600008B54FF4A060FFF747FC2E208DF8000031
:1053700001208DF801008DF802008DF803006846C9
:10538000FFF7FEFB08BD21B1828942F40052828101
:1053900004E082894DF6FF731A408281704702460D
:1053A0000020B1F5007F00D100BF13880B400BB186
:1053B000012000E000207047F0B5034600240026DD
:1053C0000025002040F66A17B94200D100BF1846F8
:1053D000C1F3421401F01F06012707FA06F5012C5C
:1053E00001D10C3004E0022C01D1103000E0143067
:1053F0001AB107682F43076002E00768AF430760F0
:10540000F0BD00002DE9FF4705460E460024A146E9
:1054100000BFA046B08900B100BF2C8A24F44054DC
:10542000F08804432C82AC8941F20C608443B0883C
:1054300031890843718908430443AC81AC8A24F460
:105440004074B0890443AC826846FFF721FC2048D1
:10545000854202D01F48854202D1DDF80C9001E060
:10546000DDF80890A88900F4004040B109EBC900BC
:1054700000EB091031684900B0FBF1F707E009EBD8
:10548000C90000EB091031688900B0FBF1F7642016
:10549000B7FBF0F004012009642101FB1078A88912
:1054A00000F4004040B1322000EBC800B0FBF1F046
:1054B00000F00700044308E0322000EB08106421EC
:1054C000B0FBF1F000F00F0004432C81BDE8FF8732
:1054D0000010014000140140C1F3080282807047AF
:1054E00000BFFEE700B587B001214FF48270FFF7DF
:1054F0008FFB01212020FFF7BBFB082207212C484E
:10550000FBF74AFE082206212948FBF745FE00204A
:105510008DF81A008DF81B0002208DF8180040202D
:10552000059002208DF8190005A92148FBF7ECFD34
:1055300002208DF818008020059005A91C48FBF773
:10554000E3FD00208DF81A008DF81B0001208DF876
:1055500018008020059002208DF8190005A9154833
:10556000FBF7D2FD4FF4E13001900020ADF80800C8
:10557000ADF80A00ADF80C00ADF810000C20ADF845
:105580000E0001A90C48FFF73DFF01210A48FFF773
:10559000FAFEFFF7E1FA012240F225510648FFF733
:1055A0000BFF80210348FBF71AFE07B000BD000087
:1055B000000802400020024000140140014A024954
:1055C00000F0BCBE796300087800002003B40198A5
:1055D0004100009850EAC12018BF04204A0D18BFAE
:1055E00040F0010040F2FF72B2EB515F08BF40F0A3
:1055F0000200012808BF052002B07047000000002B
:1056000070B59B482DED020B2DED068B079D25F007
:105610000044A04218DC9748844202DC0AD1069874
:1056200040B19DED060BBDEC068B02B0BDE87040AD
:1056300000F042BE002DCCBF9FED8F0B9FED900B75
:10564000BDEC068B02B070BD8F48A04215DD8F48BF
:10565000A042D8BF4FF0FF3458DD9DED060B51EC52
:10566000100BFFF7B3FF042808BF00F041FE9DEDCB
:10567000060BBDEC068B02B070BD9DED060B51EC28
:10568000100B00F06CFECDE9060181489FED828B86
:10569000A0423CDD8248A0421FDD00249FED82AB8A
:1056A0009DED060B53EC1A2B51EC100BFAF79AFDFB
:1056B0009DED060B41EC190B53EC1A2B51EC100B22
:1056C000FAF737FE53EC182BFAF72DFE53EC192B93
:1056D000FAF7A1FECDE9060149E09DED060B012494
:1056E00053EC182B51EC100BFAF77CFD9DED060BDB
:1056F00041EC190B53EC182B51EC100BFAF713FE7D
:1057000053EC192BFAF787FECDE906012FE0684824
:10571000A0421FDD02249FED689B9DED060B53EC1C
:10572000192B51EC100BFAF704FE53EC182BFAF777
:1057300059FD9DED060B41EC180B53EC192B51EC68
:10574000100BFAF7F0FD53EC182BFAF764FECDE9D5
:1057500006010CE09DED060B032453EC102B9FED8E
:10576000580B51EC100BFAF756FECDE906019DEDF2
:10577000060B53EC102B51EC100BFAF7DAFD41EC51
:10578000180B53EC182BFAF7D4FD41EC190B4E48CB
:105790000621B0EE490AF0EE690A784400F078FC80
:1057A00053EC182B51EC100BFAF7C3FD41EC180B1E
:1057B0004648B0EE490AF0EE690A0521784400F047
:1057C00067FC53EC192B51EC100BFAF7B2FD41ECCE
:1057D000100B51EC180B53EC102B002C0EDAFAF7CF
:1057E00001FD9DED061B53EC112BFAF7A2FD9DED7B
:1057F000061B53EC112BFAF799FD35E0FAF7F2FC92
:105800009DED061B53EC112BFAF793FD41EC100BA9
:105810002F48784400EBC40090ED001B51EC100BB6
:1058200053EC112BFAF77FFD9DED061B53EC112B6A
:10583000FAF779FD41EC100B2648784400EBC400E0
:1058400090ED001B51EC100B53EC112BFAF76EFD91
:1058500041EC100B002DA2BFBDEC068B02B070BD59
:1058600051EC100B81F0004141EC100B01E70000FE
:10587000000010440000F07F182D4454FB21F93F34
:10588000182D4454FB21F9BF0000DC3F0000203EEE
:105890000000F33F00000000000000000000F03FA7
:1058A0000000E63F00000000000000000000004093
:1058B0000080034000000000000000000000F83FEE
:1058C000000000000000F0BFAA0C0000600C000007
:1058D000EA0B0000A20B000010B52F499FED2C1B16
:1058E0002DED020B84B0059820F000408842D8BF0F
:1058F0009DED040B2DDD2949884209D1049840B95A
:105900004FF0010000F014FD00F0E2FC06B010BD05
:1059100005DB9DED040B00F0CFFC06B010BD684622
:105920009DED040B00F0E0F810F0030004BF9DEDC6
:10593000021B9DED000B0CD001280ED09DED021B2B
:105940009DED000B022817D0012000F01DFC06B0D1
:1059500010BD00F0E5FA06B010BD9DED021B9DEDF7
:10596000000B012000F010FC51EC100B81F0004105
:1059700006B041EC100B10BD00F0D2FA51EC100B48
:1059800081F0004106B041EC100B10BD000000009A
:105990000000000000000000FB21E93F0000F07F54
:1059A00010B52F499FED2C1B2DED020B84B00598EF
:1059B00020F000408842DCBF00209DED040B32DD6A
:1059C0002849884209D1049840B94FF0010000F0FD
:1059D000AFFC00F07DFC06B010BD05DB9DED040BB7
:1059E00000F06AFC06B010BD68469DED040B00F0A7
:1059F0007BF810F0030011D0012818D09DED021B98
:105A00009DED000B02281AD000F08AFA51EC100B21
:105A100081F0004106B041EC100B10BD9DED021B62
:105A20009DED000B012000F0AFFB06B010BD9DED19
:105A3000021B9DED000B00F073FA06B010BD0120B3
:105A400000F0A2FB51EC100B81F0004106B041ECDC
:105A5000100B10BD0000000000000000000000005E
:105A6000FB21E93F0000F07F00B52DED048BB0EE87
:105A7000409AF0EE609A83B051EC190BFAF72BFEC6
:105A800041EC180B18EE100A18EE901A8DED008BF1
:105A9000002818BF0120084320F00040C0F17F60BB
:105AA00000F1E040C00F14D019EE101A19EE900A60
:105AB0008DED009B002918BF0121084320F0004014
:105AC000C0F17F6000F1E040C00F04BF012000F092
:105AD0002FFCB0EE480A03B0F0EE680ABDEC048B70
