:020000040800F2
:10000000B0160020C1010008194D0008254C000859
:10001000154D0008270B00081D57000800000000C0
:100020000000000000000000000000004150000837
:10003000FD0E000800000000294E0008A551000830
:10004000DB010008DB010008DB010008DB01000820
:10005000DB010008DB010008DB010008DB01000810
:10006000DB010008DB010008DB010008DB01000800
:10007000DB010008DB010008DB010008DB010008F0
:10008000DB010008DB010008DB010008DB010008E0
:10009000DB010008DB010008DB0100081910000883
:1000A000DB010008DB010008DB010008DB010008C0
:1000B000DB010008DB010008DB010008DB010008B0
:1000C000DB010008DB010008DB010008DB010008A0
:1000D000DB010008DB010008DB010008DB01000890
:1000E000D50F0008DB010008DB010008DB01000878
:1000F000DB010008DB0100089D520008DB0100085D
:10010000DB010008DB010008DB010008DB0100085F
:10011000DB010008DB010008DB010008DB0100084F
:10012000DB010008DB010008DB010008DB0100083F
:10013000DB010008DB010008DB010008DB0100082F
:10014000DB010008DB010008DB010008DB0100081F
:10015000DB010008DB010008DB010008DB0100080F
:10016000DB010008DB010008DB010008DB010008FF
:10017000DB010008DB010008DB010008DB010008EF
:10018000DB010008DB010008DB010008DB010008DF
:10019000DB010008DB010008DB010008DB010008CF
:1001A000DB010008DB010008DB010008DFF80CD0F0
:1001B00000F084FB00480047A97C0008B01600202E
:1001C0000648804706480047FEE7FEE7FEE7FEE7F1
:1001D000FEE7FEE7FEE7FEE7FEE7FEE7A9510008BF
:1001E000AD010008D2B201E000F8012B491EFBD29C
:1001F00070470022F6E710B513460A460446194632
:10020000FFF7F0FF204610BD2DE9FE4F804681EA42
:100210000300C00F0C46009021F0004123F0004580
:10022000B8EB0200A94105D24046214690461C4643
:100230000B46024623F00040104347D0270DC7F37A
:100240000A00C3F30A510290401A019040286BDA69
:10025000C3F3130040F4801B0098924620B10023A2
:10026000D2EB030A63EB0B0B01985946C0F1400235
:10027000504600F004FA06460D4650465946019A8B
:1002800000F00CFA10EB08006141002487EA1152DB
:1002900084EAE7731A4340D0009A62B3019A012AB4
:1002A0004FEA075215DC001B61EB02014FF00042E0
:1002B00002EA0752CDE90042001C41F580113246A6
:1002C0002B4600F043FA03B0BDE8F08F40462146CC
:1002D000F9E7001B61EB0201001C41F580130018D7
:1002E0005B412018A2F5001747EB030140EAD570E7
:1002F000B6196D4111E06D084FEA360645EAC07542
:100300004FEA0752001B61EB0201001C41F580110E
:1003100049084FEA30000019514132462B4603B0DC
:10032000BDE8F04F00F003BA00980122400000231E
:10033000D0EB020263EBE073009821464FEAE074D1
:10034000B8EB000061EB0401E9E783F000435BE7F1
:1003500081F0004158E72DE9FE4F81EA030404F0E3
:10036000004421F0004100944FF0000B23F00043C3
:1003700050EA01045ED052EA03045BD0C3F30A548E
:10038000C1F30A552C44A4F2F3340194A0FB0254A7
:10039000C1F3130141F48011C3F3130343F4801339
:1003A00001FB024400FB034E840A970A44EA81548D
:1003B00047EA8357A4FB076802958D0A05FB07856A
:1003C0004FEA932C04FB0C542705029D4FEA065874
:1003D00047EA1637B5EB08056EEB070C870E920E51
:1003E00047EA811742EA8312A7FB0201B6EB0B0131
:1003F00064EB00042B0D43EA0C335E1844EB1C50F5
:10040000DA465146E7FB0201C5F313044FEA0B330A
:1004100043EA14534FEA0432019C43EA0603A4F171
:100420000C040294009CCDE900B400F08FF903B0F5
:10043000BDE8F08F00200146F9E72DE9F04D81EA93
:10044000030404F0004B21F0004514464FF0000A6D
:1004500023F0004150EA050220D054EA01021DD0E9
:10046000C5F30A570246C5F31303C1F31300C1F3E2
:100470000A5640F4801543F48013A7EB0608101BBE
:10048000D64608F2FD3873EB050002D308F10108E7
:1004900001E092185B41B8F1000F03DA0020014639
:1004A000BDE8F08D00204FF48011064684460EE032
:1004B000171B73EB050705D3121B63EB05030643FC
:1004C0004CEA010C49084FEA300092185B4150EAAF
:1004D0000107EDD152EA030012D082EA040083EA58
:1004E0000501084305D0101BAB4106D201220023B1
:1004F00006E000224FF0004302E06FF001025310CB
:100500001AEB06004CEB085110EB0A0041EB0B0113
:10051000BDE8F04D00F00BB90EB540F23341029149
:100520000021CDE900110A460B4600F00FF903B097
:1005300000BD00F0004230F000400AD0C10D01F5CE
:100540006071C0F3160042EA0151C208400711432E
:10055000704700200146704730B5041E71F1000459
:1005600004DB4FF00044404264EB0101141E73F1C0
:10057000000405DB1C464FF00043524263EB0403CA
:100580008B4208BF824230BD30B5041E71F10004B9
:1005900004DB4FF00044404264EB0101141E73F190
:1005A000000405DB1C464FF00043524263EB04039A
:1005B000994208BF904230BD01F0004330B421F0B1
:1005C000004150EA010206D00A0DA2F56072C1F3A3
:1005D0001301002A02DC30BC00207047440F44EABB
:1005E000C104C100E01830BC00EBC25000F068B894
:1005F00030B50B46014600202022012409E021FAF3
:1006000002F59D4205D303FA02F5491B04FA02F5EF
:100610002844151EA2F10102F1DC30BD2DE9F05F86
:100620000546002092469B46884606468146402461
:100630001BE0284641464746224600F051F9534602
:100640005A46C01A914110D311461846224600F06E
:1006500016F82D1A67EB01084F46224601200021AB
:1006600000F00DF817EB00094E41201EA4F1010423
:10067000DFDC484631462A464346BDE8F09F202A43
:1006800004DB203A00FA02F1002070479140C2F1E9
:10069000200320FA03F3194390407047202A06DB19
:1006A000CB17203A41FA02F043EAE07306E041FA40
:1006B00002F3D040C2F1200291400843194670472E
:1006C0000029A8BF7047401C490008BF20F0010066
:1006D000704710B4B0FA80FC00FA0CF050EA010444
:1006E00004BF10BC704749B1CCF1200421FA04F4D6
:1006F00011FA0CF118BF012121430843A3EB0C01AF
:10070000CB1D4FEA00614FEA102042BF002010BC11
:10071000704700EBC35010440029A4BF10BC7047C1
:10072000401C490008BF20F0010010BC704710B504
:10073000141E73F1000408DA401C41F10001921804
:100740005B411A4301D120F0010010BD2DE9F04DAD
:1007500092469B4611B1B1FA81F202E0B0FA80F202
:1007600020329046FFF78BFF04460F4640EA0A000E
:1007700041EA0B0153465A46084313D0114653EA47
:10078000010019D0C8F14002504600F0A9F8054612
:100790000E46504659464246FFF771FF084305D0C2
:1007A000012004E020463946BDE8F08D00200543D5
:1007B00046EAE0762C4337430A986305E40AA0EB47
:1007C00008000022FD0A44EA47540A3002D50020FE
:1007D0000146E9E7010510196941DDE908450019FD
:1007E0006941BDE8F04DA2E72DE9F04D00231A461E
:1007F0001B1A8A4103DB00200146BDE8F08DC1F3DE
:100800000A52C1F3130141F480154FF0000BD107D8
:1008100002D100186D41521E0027044640F2FF111C
:10082000384601EB620A3E468046024600204FF4FD
:10083000801100F055F8C2197141BB1846EB010058
:10084000B4EB030C75EB000C04D3E41A65EB000564
:1008500017460E46241908F101006D4180463428E0
:10086000E3DDF91946EB0600091BA84103D24FF05E
:10087000FF32134601E0002213461BEB070046EB54
:100880000A51BDE8F04DFFF752BFC1F30A52C1F360
:10089000130140F2FF3341F480119A4202DA002042
:1008A0000146704740F233439A42A2F2334202DCDF
:1008B000524200F015B8FFF7E2BE0000064C074DAB
:1008C00006E0E06840F0010394E807009847103420
:1008D000AC42F6D3FFF76EFCC8800008E880000841
:1008E000202A04DB203A21FA02F00021704721FA85
:1008F00002F3D040C2F120029140084319467047EC
:100900000EB5C10F80EAE0700844CA07002140F22A
:1009100033438DE80E000A460B46FFF717FF03B07E
:1009200000BD70B5C1F30A5201F000450024C1F3C7
:10093000130140F2FF3341F480119A4201DA0020A2
:1009400070BD40F233439A42A2F2334203DC52427A
:10095000FFF7C6FF00E090402C43F1D0404270BD4D
:1009600030B58C1810F8012B12F00F0301D110F8DC
:10097000013B120906D110F8012B03E010F8015BCE
:1009800001F8015B5B1EF9D101E001F8013B521E49
:10099000FBD1A142E6D3002030BD21B1826842F0F4
:1009A0000102826003E0826822F0010282607047E7
:1009B0000021084A1168084A1140D0E900231A436F
:1009C00083681A43C3681A431143044AC2F80413E4
:1009D0007047000004230140E030FCFF002001408C
:1009E0000146C86C80B270470246002013680B4075
:1009F0000BB1012000E000207047000030B5024636
:100A0000002000235068104C20400D790C6844EA07
:100A100005242043506090680C4C2040D1E90354D9
:100A20002C438D682C434D7944EA45042043906063
:100A3000D06A20F470000C7D641EE4B2234340EAC7
:100A40000350D06230BD0000FFFEFFFCFDF7FFC089
:100A5000F0B504460D4600200021092D11DDE068A7
:100A6000A5F10A0606EB4607072606FA07F18843B2
:100A7000A5F10A0606EB460603FA06F10843E06014
:100A80000CE0206905EB4507072606FA07F18843C5
:100A900005EB450603FA06F108432061072A0FDA41
:100AA000606B561E06EB86071F2606FA07F1884381
:100AB000561E06EB860605FA06F10843606322E03F
:100AC0000D2A0FDA206BD61F06EB86071F2606FAC3
:100AD00007F18843D61F06EB860605FA06F10843A0
:100AE000206310E0E06AA2F10D0606EB86071F26E0
:100AF00006FA07F18843A2F10D0606EB860605FA11
:100B000006F10843E062F0BD816841F080418160F8
:100B1000704700210160017141718160C160016114
:100B200001210175704700BFFEE710B500F0CCF859
:100B300000F0C0F900F08AF900F0A2F810BD000042
:100B400010B504460B48844209D10121480604F03F
:100B50008DF900214FF0007004F088F908E00121C0
:100B6000880604F083F900214FF0806004F07EF9DC
:100B700010BD00000064004010B50021837A0122FE
:100B800002FA03F13D4A126842F001023B4B1A603F
:100B90003A4A1C3212688A43384B1C331A60027B73
:100BA000CAB9364A0C3212688A43344B0C331A6085
:100BB0004288C38842EA0343304A4032847A42F88A
:100BC00034300288838842EA03432C4A4032847AD4
:100BD00002EBC4025360027B012A19D1274A0C326E
:100BE00012680A43254B0C331A604288038842EA94
:100BF0000343224A4032847A42F83430C2888388E0
:100C000042EA03431D4A4032847A02EBC402536035
:100C1000C27A3AB9194A121D12688A43174B1B1D32
:100C20001A6006E0154A121D12680A43134B1B1D79
:100C30001A60028932B9114A143212688A430F4B82
:100C400014331A600289012A06D10C4A1432126840
:100C50000A430A4B14331A60427B012A06D1074A21
:100C60001C3212680A43054B1C331A60034A12688F
:100C700022F00102014B1A6010BD00000066004026
:100C80001FB50E208DF80A0000208DF80B00012002
:100C90008DF80C000020ADF80000ADF80200ADF8B2
:100CA0000400ADF80600ADF8080001208DF80D0035
:100CB0006846FFF761FF01220221024800F032F886
:100CC0001FBD0000006800401CB50121022004F097
:100CD000ADF809220C21124800F048FB0922062138
:100CE0000F4800F043FB4020009002208DF80400E4
:100CF0008DF8050000208DF8060001208DF8070012
:100D00006946074800F0EAFA4FF48050009002204C
:100D10008DF804006946024800F0E0FA1CBD0000AE
:100D2000000402401AB143690B43436102E0436986
:100D30008B434361704730B502460020002314689E
:100D400024F002041460146844F00104146000E00C
:100D50005B1C546804F001041CB94FF6FF74A342F5
:100D6000F6D1546804F001040CB900206CE08C79D1
:100D7000012C04D1146844F08004146003E014686A
:100D800024F080041460CC79012C04D1146844F060
:100D90004004146003E0146824F0400414600C7AEA
:100DA000012C04D1146844F02004146003E014689A
:100DB00024F0200414604C7A012C04D1146844F00F
:100DC0001004146003E0146824F0100414608C7A9A
:100DD000012C04D1146844F00804146003E0146882
:100DE00024F008041460CC7A012C04D1146844F077
:100DF0000404146003E0146824F0040414608C7884
:100E0000A407CD7844EA05640D7944EA05444D7998
:100E100044EA05540D886D1E2C43D461146824F0F7
:100E200001041460002300E05B1C546804F001041A
:100E30001CB14FF6FF74A342F6D1546804F00104CC
:100E40000CB1002000E0012030BD00000EB50121F2
:100E5000480603F0FBFF0121880603F0F7FF144862
:100E6000FFF76EFE684600F039F800208DF80600A6
:100E700001208DF807008DF8080000208DF809008A
:100E80008DF80A008DF80B008DF8020001208DF816
:100E9000030004208DF8040002208DF805000520D1
:100EA000ADF8000069460248FFF745FF0EBD00009F
:100EB0000068004008B54FF4C06003F0ABFF40206D
:100EC0008DF8000000208DF801008DF8020001204F
:100ED0008DF80300684603F061FF08BD00218171B1
:100EE000C171017241728172C1728170C17003213E
:100EF000017102214171012101807047704700009A
:100F000000B587B00121084603F090FF01211020B1
:100F100003F0BCFF00208DF81A0001208DF81B00A3
:100F200002208DF819008DF818000002059005A91F
:100F3000184800F0D3F902208DF8180040020590FF
:100F400005A9144800F0CAF907220A21114800F047
:100F50000DFA072209210F4800F008FA4FF4E1309A
:100F600001900020ADF80800ADF80A00ADF80C00C3
:100F7000ADF810000C20ADF80E0001A9064804F0F1
:100F80005FFB03F0E4FE0121034804F01AFB07B005
:100F900000BD0000000002400010014001228A4014
:100FA0000B4B1A6048B10A4A143A126801238B406D
:100FB0001A43074B143B1A6008E0054A143A1268BA
:100FC00001238B409A43024B143B1A607047000088
:100FD000143C014010B54FF4006000F0E1F8A8B1F6
:100FE0000B480088C8280ADD01200A49088006212C
:100FF000FFF7D4FF0B210020FFF7D0FF02E0002015
:10100000044908804FF4006000F0C4F810BD0000EF
:101010000C0100201601002070B52DED048B40203E
:1010200000F0BEF800287DD0002400254E4800883E
:10103000012878D14D4800880128FAD14C49088808
:10104000C11700EBD1614C1149490888C11700EB69
:10105000D1614911A0EB41118DB2052000F0AEF92C
:101060000646FFF759FA41EC190B9FED420B53EC82
:10107000102BFFF770F941EC180BFFF79DFA3F4971
:1010800001EBC41141F825000C2000F097F9064649
:10109000FFF742FA41EC190B9FED360B53EC102B86
:1010A000FFF759F941EC180BFFF786FA344901EBC9
:1010B000C41141F825002E480088401C2C490880A6
:1010C00008460088B0F5807F46DD01202D49088064
:1010D0002D490880002026490880234908800621E0
:1010E000FFF75CFF0B210120FFF758FF002415E0FC
:1010F00000250FE0214800EBC51000EB840090EDC7
:10110000000A224800EBC51000EB840080ED000AC5
:10111000681C85B2072DEDDD601C84B21F2CE7DD55
:10112000002417E01CE017E000250FE0144800EB56
:10113000C51000EB840090ED000A154800EBC510C7
:1011400000EB840080ED000A681C85B2072DEDDD00
:10115000601C84B21F2CE7DD402000F01BF800BFAC
:10116000BDEC048B70BD00001601002018010020AA
:10117000140100206666666666664A3FA401002088
:10118000A40500201A0100201C010020A409002051
:10119000A40D00200149086070470000143C014084
:1011A00001460020034A12680A400AB1012000E00B
:1011B00000207047143C0140002123498279002A15
:1011C0003AD00A46126803689A430B461A600A1D11
:1011D000126803689A430B1D1A60027911440A6869
:1011E00003681A430A60184A0832126803689A436F
:1011F000154B08331A601A1D126803689A43124B84
:101200000C331A604279102A0ED11A1F1268036833
:101210001A430D4B08331A601A1D126803681A43EB
:10122000094B0C331A600DE00749427911440A68F2
:1012300003681A430A6005E0027911440A680368EA
:101240009A430A6070470000003C01401FB501212D
:10125000812003F0EBFD0121880303F017FE03F06A
:101260005CFD4FF40060029000208DF80C008DF8BA
:101270000F0002A9174800F031F80B21072003F0F6
:10128000E1FE4FF40060009000208DF8040008207B
:101290008DF8050001208DF806006846FFF78CFFE9
:1012A0004020029002A90C4800F018F80621002006
:1012B00003F0C8FE4020009000208DF804000C20B0
:1012C0008DF8050001208DF806006846FFF774FFD1
:1012D0001FBD0000001C024000000240F0B50A469D
:1012E00000210023002400BF3DE0012505FA01F3A1
:1012F000156805EA03049C4234D105684F000326B3
:10130000BE40B543056015794E00B54006683543CB
:1013100005601579012D02D01579022D16D1856849
:101320004F000326BE40B543856055794E00B54059
:10133000866835438560456801268E40B543456023
:10134000456896798E40B6B235434560C5684F0012
:101350000326BE40B543C560D5794E00B540C6688A
:101360003543C560491C1029BFD3F0BDF0B500233B
:1013700000244D07ED0E02FA05F3CE1000F1200512
:1013800055F826504E07F70E0F26BE40B543CF1036
:1013900000F1200646F82750CE1000F1200555F840
:1013A000265045EA0304CE1000F1200545F82640FA
:1013B000F0BD4183704701837047000010B50446BB
:1013C0000723012221460848FFF742FB0648FFF7A2
:1013D0009BFB00BF02210448FFF706FB0028F9D061
:1013E0000148FFF7FDFA10BD0020014000B5ADF542
:1013F000077D0020849034E09FEDFE0AFE4880EDDA
:10140000000A0020859013E0FC49859801EBC0118B
:10141000849801EB800090ED000AF748D0ED000AB7
:1014200030EE200A80ED000A8598401CC0B28590FD
:1014300085980728E8DDF04890ED000AF2EE000AF2
:1014400080EE201AEE49849801EB800080ED001AAE
:101450009FEDE80AE84880ED000A8498401CC0B27D
:10146000849084981F28C7DDE6A004F0C5F9E748FA
:1014700090ED000AF3EE0F0A20EE200A8DED770AB8
:101480007798FFF756F8799178909DED780B04F0F6
:1014900047FB8DED7C0BDA48C06F7990FFF749F878
:1014A0007B917A909DED7C0B53EC102B9DED7A0B8C
:1014B00051EC100BFEF74FFF81918090D34890EDD7
:1014C000000AF3EE0E0A20EE200A8DED730A7398DF
:1014D000FFF72FF8759174909DED740B04F020FBCD
:1014E0008DED780BC648806F7590FFF722F87791E5
:1014F00076909DED780B53EC102B9DED760B51EC17
:10150000100BFEF728FF7D917C90C04890ED000AFB
:10151000F3EE0D0A20EE200A8DED6F0A6F98FFF7AB
:1015200008F8719170909DED700B04F0F9FA8DED53
:10153000740BB348406F7190FEF7FBFF739172908C
:101540009DED740B53EC102B9DED720B51EC100BB9
:10155000FEF701FF79917890AC4890ED000AF3EE28
:101560000C0A20EE200A8DED6B0A6B98FEF7E1FF66
:101570006D916C909DED6C0B04F0D2FA8DED700BBB
:101580009F48006F6D90FEF7D4FF6F916E909DEDB8
:10159000700B53EC102B9DED6E0B51EC100BFEF706
:1015A000DAFE75917490994890ED000AF3EE0B0AFB
:1015B00020EE200A8DED670A6798FEF7BAFF699161
:1015C00068909DED680B04F0ABFA8DED6C0B8C48C8
:1015D000C06E6990FEF7ADFF6B916A909DED6C0B4C
:1015E00053EC102B9DED6A0B51EC100BFEF7B3FE84
:1015F00071917090854890ED000AF3EE0A0A20EE92
:10160000200A8DED630A6398FEF793FF659164905D
:101610009DED640B04F084FA8DED680B7848806EC4
:101620006590FEF786FF679166909DED680B53EC21
:10163000102B9DED660B51EC100BFEF78CFE6D919F
:101640006C90724890ED000AF3EE090A20EE200A31
:101650008DED5F0A5F98FEF76CFF619160909DEDE4
:10166000600B04F05DFA8DED640B6548406E61908F
:10167000FEF75FFF639162909DED640B53EC102BBE
:101680009DED620B51EC100BFEF765FE69916890C1
:101690005E4890ED000AF3EE080A20EE200A8DED78
:1016A0005B0A5B98FEF745FF5D915C909DED5C0BDE
:1016B00004F036FA8DED600B5148006E5D90FEF738
:1016C00038FF5F915E909DED600B53EC102B9DED0C
:1016D0005E0B51EC100BFEF73EFE659164904B489B
:1016E00090ED000AF3EE070A20EE200A8DED570A6E
:1016F0005798FEF71EFF599158909DED580B04F036
:101700000FFA8DED5C0B3E48C06D5990FEF711FF4E
:101710005B915A909DED5C0B53EC102B9DED5A0B99
:1017200051EC100BFEF717FE61916090374890ED79
:10173000000AF3EE060A20EE200A8DED530A5398B4
:10174000FEF7F7FE559154909DED540B04F0E8F927
:101750008DED580B2A48806D5590FEF7EAFE5791A3
:1017600056909DED580B53EC102B9DED560B51EC04
:10177000100BFEF7F0FD5D915C90244890ED000A9F
:10178000F3EE050A20EE200A8DED4F0A4F98FEF782
:10179000D0FE519150909DED500B04F0C1F98DEDAC
:1017A000540B1748406D5190FEF7C3FE5391529071
:1017B0009DED540B53EC102B9DED520B51EC100B87
:1017C000FEF7C9FD59915890104890ED000AF3EECC
:1017D000040A20EE200A8DED4B0A4B98FEF7A9FE75
:1017E0004D914C909DED4C0B04F09AF98DED500B02
:1017F00003480DE00000000028010020A40900209B
:10180000A411002031200D0A00000000200100205A
:10181000006D4D90FEF78DFE4F914E909DED500B5B
:1018200053EC102B9DED4E0B51EC100BFEF793FD7E
:1018300055915490FE4890ED000AF3EE030A20EE15
:10184000200A8DED470A4798FEF773FE49914890AC
:101850009DED480B04F064F98DED4C0BF548C06C20
:101860004990FEF766FE4B914A909DED4C0B53EC70
:10187000102B9DED4A0B51EC100BFEF76CFD5191B6
:101880005090EB4890ED000AF3EE020A20EE200A99
:101890008DED430A4398FEF74CFE459144909DED33
:1018A000440B04F03DF98DED480BE248806C459007
:1018B000FEF73FFE479146909DED480B53EC102BF1
:1018C0009DED460B51EC100BFEF745FD4D914C90F4
:1018D000D74890ED000AF3EE010A20EE200A8DEDC4
:1018E0003F0A3F98FEF725FE419140909DED400B49
:1018F00004F016F98DED440BCE48406C4190FEF794
:1019000018FE439142909DED440B53EC102B9DED3E
:10191000420B51EC100BFEF71EFD49914890C44854
:1019200090ED000AF3EE000A20EE200A8DED3B0A4E
:101930003B98FEF7FEFDCDE93C019DED3C0B04F02C
:10194000EFF88DED400BBB48006C3D90FEF7F1FDCC
:10195000CDE93E019DED400B53EC102B9DED3E0B70
:1019600051EC100BFEF7F7FC45914490B04890ED18
:10197000000AF2EE0E0A20EE200A8DED370A3798A3
:10198000FEF7D7FDCDE938019DED380B04F0C8F81E
:101990008DED3C0BA748C06B3990FEF7CAFDCDE931
:1019A0003A019DED3C0B53EC102B9DED3A0B51ECA5
:1019B000100BFEF7D0FC419140909D4890ED000A3D
:1019C000F2EE0C0A20EE200A8DED330A3398FEF772
:1019D000B0FDCDE934019DED340B04F0A1F88DED9F
:1019E000380B9448806B3590FEF7A3FDCDE93601A6
:1019F0009DED380B53EC102B9DED360B51EC100B7D
:101A0000FEF7A9FCCDE93C01894890ED000AF2EE11
:101A10000A0A20EE200A8DED2F0A2F98FEF789FD85
:101A2000CDE930019DED300B04F07AF88DED340BEB
:101A30008048406B3190FEF77CFDCDE932019DED91
:101A4000340B53EC102B9DED320B51EC100BFEF7C9
:101A500082FCCDE93801764890ED000AF2EE080AE2
:101A600020EE200A8DED2B0A2B98FEF762FDCDE9C2
:101A70002C019DED2C0B04F053F88DED300B6D48CF
:101A8000006B2D90FEF755FDCDE92E019DED300B3D
:101A900053EC102B9DED2E0B51EC100BFEF75BFC65
:101AA000CDE93401624890ED000AF2EE060A20EE1C
:101AB000200A8DED270A2798FEF73BFDCDE9280186
:101AC0009DED280B04F02CF88DED2C0B5948C06AC5
:101AD0002990FEF72EFDCDE92A019DED2C0B53EC4C
:101AE000102B9DED2A0B51EC100BFEF734FCCDE9C9
:101AF00030014F4890ED000AF2EE040A20EE200A71
:101B00008DED230A2398FEF714FDCDE924019DED08
:101B1000240B04F005F88DED280B4648806A2590CB
:101B2000FEF707FDCDE926019DED280B53EC102BA8
:101B30009DED260B51EC100BFEF70DFCCDE92C01B1
:101B40003B4890ED000AF2EE020A20EE200A8DEDED
:101B50001F0A1F98FEF7EDFCCDE920019DED200B3B
:101B600003F0DEFF8DED240B3248406A2190FEF732
:101B7000E0FCCDE922019DED240B53EC102B9DEDF3
:101B8000220B51EC100BFEF7E6FBCDE928012848AB
:101B900090ED000AF2EE000A20EE200A8DED1B0AFD
:101BA0001B98FEF7C6FCCDE91C019DED1C0B03F054
:101BB000B7FF8DED200B1F48006A1D90FEF7B9FCA2
:101BC000CDE91E019DED200B53EC102B9DED1E0B5E
:101BD00051EC100BFEF7BFFBCDE92401144890ED4A
:101BE000000AF1EE0C0A20EE200A8DED170A179874
:101BF000FEF79FFCCDE918019DED180B03F090FF57
:101C00008DED1C0B0B48C0691990FEF792FCCDE9D5
:101C10001A019DED1C0B53EC102B9DED1A0B51EC92
:101C2000100BFEF798FBCDE92001014804E000000D
:101C300020010020A411002090ED000AF1EE080A16
:101C400020EE200A8DED130A1398FEF772FCCDE901
:101C500014019DED140B03F063FF8DED180BFE488E
:101C600080691590FEF765FCCDE916019DED180B16
:101C700053EC102B9DED160B51EC100BFEF76BFB8C
:101C8000CDE91C01F54890ED000AF1EE040A20EEC2
:101C9000200A8DED0F0A0F98FEF74BFCCDE91001DD
:101CA0009DED100B03F03CFF8DED140BEA484069ED
:101CB0001190FEF73EFCCDE912019DED140B53ECA3
:101CC000102B9DED120B51EC100BFEF744FBCDE9F0
:101CD0001801E24890ED000AF1EE000A20EE200A19
:101CE0008DED0B0A0B98FEF724FCCDE90C019DED60
:101CF0000C0B03F015FF8DED100BD74800690D900C
:101D0000FEF717FCCDE90E019DED100B53EC102BE7
:101D10009DED0E0B51EC100BFEF71DFBCDE91401F0
:101D2000CE4890ED000AF0EE080A20EE200A8DED74
:101D3000070A0798FEF7FDFBCDE908019DED080BAA
:101D400003F0EEFE8DED0C0BC348C0680990FEF762
:101D5000F0FBCDE90A019DED0C0B53EC102B9DED32
:101D60000A0B51EC100BFEF7F6FACDE91001BB4857
:101D700090ED000AF0EE000A20EE200A8DED030A35
:101D80000398FEF7D6FBCDE904019DED040B03F0AB
:101D9000C7FE8DED080BB04880680590FEF7C9FBC3
:101DA000CDE906019DED080B53EC102B9DED060BC4
:101DB00051EC100BFEF7CFFACDE90C01A7480068F3
:101DC000FEF7B7FBCDE900019DED000B03F0A8FE87
:101DD0008DED040BA04840680190FEF7AAFBCDE909
:101DE00002019DED040B53EC102B9DED020B51EC09
:101DF000100BFEF7B0FA9FED9A0BCDE9080103F046
:101E00008FFE8DED040B944800680190FEF791FB66
:101E1000CDE902019DED040B53EC102B9DED020B5F
:101E200051EC100BFEF797FACDE906019DED080B7A
:101E300053EC102B9DED060B51EC100BFEF7E4F963
:101E4000CDE90A019DED0C0B53EC102B9DED0A0B17
:101E500051EC100BFEF7D8F9CDE90E019DED100BFA
:101E600053EC102B9DED0E0B51EC100BFEF7CCF943
:101E7000CDE912019DED140B53EC102B9DED120BCF
:101E800051EC100BFEF7C0F9CDE916019DED180BD2
:101E900053EC102B9DED160B51EC100BFEF7B4F923
:101EA000CDE91A019DED1C0B53EC102B9DED1A0B87
:101EB00051EC100BFEF7A8F9CDE91E019DED200BAA
:101EC00053EC102B9DED1E0B51EC100BFEF79CF903
:101ED000CDE922019DED240B53EC102B9DED220B3F
:101EE00051EC100BFEF790F9CDE926019DED280B82
:101EF00053EC102B9DED260B51EC100BFEF784F9E3
:101F0000CDE92A019DED2C0B53EC102B9DED2A0BF6
:101F100051EC100BFEF778F9CDE92E019DED300B59
:101F200053EC102B9DED2E0B51EC100BFEF76CF9C2
:101F3000CDE932019DED340B53EC102B9DED320BAE
:101F400051EC100BFEF760F9CDE936019DED380B31
:101F500053EC102B9DED360B51EC100BFEF754F9A2
:101F6000CDE93A019DED3C0B53EC102B9DED3A0B66
:101F700051EC100BFEF748F9CDE93E019DED400B09
:101F800053EC102B9DED3E0B51EC100BFEF73CF982
:101F9000439142909DED440B53EC102B9DED420B71
:101FA00051EC100BFEF730F9479146909DED480B30
:101FB00053EC102B9DED460B51EC100BFEF724F962
:101FC0004B914A909DED4C0B53EC102B9DED4A0B21
:101FD00051EC100BFEF718F94F914E909DED500B00
:101FE00053EC102B9DED4E0B51EC100BFEF70CF942
:101FF000539152909DED540B53EC102B9DED520BD1
:1020000051EC100BFEF700F9579156909DED580BCF
:1020100053EC102B9DED560B51EC100BFEF7F4F822
:102020005B915A909DED5C0B53EC102B9DED5A0B80
:1020300051EC100BFEF7E8F85F915E909DED600BA0
:1020400053EC102B9DED5E0B51EC100BFEF7DCF802
:102050006391629008E00000A4110020200100209C
:1020600000000000000000009DED640B53EC102BFD
:102070009DED620B51EC100BFEF7C6F86791669070
:102080009DED680B53EC102B9DED660B51EC100B86
:10209000FEF7BAF86B916A909DED6C0B53EC102B28
:1020A0009DED6A0B51EC100BFEF7AEF86F916E9040
:1020B0009DED700B53EC102B9DED6E0B51EC100B46
:1020C000FEF7A2F8739172909DED740B53EC102BF8
:1020D0009DED720B51EC100BFEF796F87791769010
:1020E0009DED780B53EC102B9DED760B51EC100B06
:1020F000FEF78AF87B917A909DED7C0B53EC102BC8
:102100009DED7A0B51EC100BFEF77EF87F917E90DF
:102110009DED800B53EC102B9DED7E0B51EC100BC5
:10212000FEF772F8839182909DED820B51EC100BBB
:10213000FEF742FAFE490860FE4890ED000AF3EE11
:102140000F0A20EE200A8DED770A7798FEF7F1F955
:10215000799178909DED780B03F052FD8DED7C0B1D
:10216000F548C06F7990FEF7E4F97B917A909DED88
:102170007C0B53EC102B9DED7A0B51EC100BFEF702
:10218000EAF881918090EB4890ED000AF3EE0E0A98
:1021900020EE200A8DED730A7398FEF7CAF9759147
:1021A00074909DED740B03F02BFD8DED780BE248E0
:1021B000806F7590FEF7BDF9779176909DED780B65
:1021C00053EC102B9DED760B51EC100BFEF7C3F882
:1021D0007D917C90D74890ED000AF3EE0D0A20EE39
:1021E000200A8DED6F0A6F98FEF7A3F97191709038
:1021F0009DED700B03F004FD8DED740BCE48406F28
:102200007190FEF796F9739172909DED740B53ECFB
:10221000102B9DED720B51EC100BFEF79CF8799191
:102220007890C44890ED000AF3EE0C0A20EE200AE4
:102230008DED6B0A6B98FEF77CF96D916C909DEDBE
:102240006C0B03F0DDFC8DED700BBB48006F6D90E7
:10225000FEF76FF96F916E909DED700B53EC102BA4
:102260009DED6E0B51EC100BFEF775F875917490A7
:10227000B04890ED000AF3EE0B0A20EE200A8DED37
:10228000670A6798FEF755F9699168909DED680BAC
:1022900003F0B6FC8DED6C0BA748C06E6990FEF79D
:1022A00048F96B916A909DED6C0B53EC102B9DEDF2
:1022B0006A0B51EC100BFEF74EF8719170909D482F
:1022C00090ED000AF3EE0A0A20EE200A8DED630A73
:1022D0006398FEF72EF9659164909DED640B03F011
:1022E0008FFC8DED680B9448806E6590FEF721F9A8
:1022F000679166909DED680B53EC102B9DED660B7E
:1023000051EC100BFEF727F86D916C90894890ED19
:10231000000AF3EE090A20EE200A8DED5F0A5F98AD
:10232000FEF707F9619160909DED600B03F068FC8A
:102330008DED640B8048406E6190FEF7FAF8639172
:1023400062909DED640B53EC102B9DED620B51ECF4
:10235000100BFEF700F869916890764890ED000A3E
:10236000F3EE080A20EE200A8DED5B0A5B98FEF77B
:10237000E0F85D915C909DED5C0B03F041FC8DED10
:10238000600B6D48006E5D90FEF7D3F85F915E9034
:102390009DED600B53EC102B9DED5E0B51EC100B83
:1023A000FDF7D9FF65916490624890ED000AF3EE65
:1023B000070A20EE200A8DED570A5798FEF7B9F864
:1023C000599158909DED580B03F01AFC8DED5C0B64
:1023D0005948C06D5990FEF7ACF85B915A909DED4D
:1023E0005C0B53EC102B9DED5A0B51EC100BFDF7D1
:1023F000B2FF619160904F4890ED000AF3EE060A3B
:1024000020EE200A8DED530A5398FEF792F855916D
:1024100054909DED540B03F0F3FB8DED580B4648A3
:10242000806D5590FEF785F8579156909DED580BAD
:1024300053EC102B9DED560B51EC100BFDF78BFF61
:102440005D915C903B4890ED000AF3EE050A20EEAA
:10245000200A8DED4F0A4F98FEF76BF8519150907E
:102460009DED500B03F0CCFB8DED540B3248406DCD
:102470005190FEF75EF8539152909DED540B53EC42
:10248000102B9DED520B51EC100BFDF764FF599191
:102490005890284890ED000AF3EE040A20EE200A36
:1024A0008DED4B0A4B98FEF744F84D914C909DED05
:1024B0004C0B03F0A5FB8DED500B1F48006D4D90AC
:1024C000FEF737F84F914E909DED500B53EC102BCB
:1024D0009DED4E0B51EC100BFDF73DFF55915490C7
:1024E000144890ED000AF3EE030A20EE200A8DED69
:1024F000470A4798FEF71DF8499148909DED480B13
:1025000003F07EFB8DED4C0B0B48C06C4990FEF741
:1025100010F84B914A909DED4C0B53EC102B9DED18
:102520004A0B51EC100BFDF716FF5191509005E04E
:102530003C01002020010020A4110020FE4890ED65
:10254000000AF3EE020A20EE200A8DED430A4398BA
:10255000FDF7EFFF459144909DED440B03F050FBD8
:102560008DED480BF548806C4590FDF7E2FF4791F3
:1025700046909DED480B53EC102B9DED460B51EC16
:10258000100BFDF7E8FE4D914C90EB4890ED000AE2
:10259000F3EE010A20EE200A8DED3F0A3F98FDF789
:1025A000C8FF419140909DED400B03F029FB8DED5C
:1025B000440BE248406C4190FDF7BBFF43914290D1
:1025C0009DED440B53EC102B9DED420B51EC100B89
:1025D000FDF7C1FE49914890D74890ED000AF3EE0F
:1025E000000A20EE200A8DED3B0A3B98FDF7A1FF83
:1025F000CDE93C019DED3C0B03F002FB8DED400B62
:10260000CE48006C3D90FDF794FFCDE93E019DED75
:10261000400B53EC102B9DED3E0B51EC100BFDF7D6
:102620009AFE45914490C44890ED000AF2EE0E0ADD
:1026300020EE200A8DED370A3798FDF77AFFCDE9B5
:1026400038019DED380B03F0DBFA8DED3C0BBB48F8
:10265000C06B3990FDF76DFFCDE93A019DED3C0B64
:1026600053EC102B9DED3A0B51EC100BFDF773FE64
:1026700041914090B04890ED000AF2EE0C0A20EE35
:10268000200A8DED330A3398FDF753FFCDE934016D
:102690009DED340B03F0B4FA8DED380BA748806B39
:1026A0003590FDF746FFCDE936019DED380B53EC33
:1026B000102B9DED360B51EC100BFDF74CFECDE9C8
:1026C0003C019D4890ED000AF2EE0A0A20EE200A35
:1026D0008DED2F0A2F98FDF72CFFCDE930019DEDF0
:1026E000300B03F08DFA8DED340B9448406B319034
:1026F000FDF71FFFCDE932019DED340B53EC102B9C
:102700009DED320B51EC100BFDF725FECDE93801A4
:10271000894890ED000AF2EE080A20EE200A8DEDBD
:102720002B0A2B98FDF705FFCDE92C019DED2C0B15
:1027300003F066FA8DED300B8048006B2D90FDF7AD
:10274000F8FECDE92E019DED300B53EC102B9DEDE5
:102750002E0B51EC100BFDF7FEFDCDE93401764850
:1027600090ED000AF2EE060A20EE200A8DED270A0F
:102770002798FDF7DEFECDE928019DED280B03F03B
:102780003FFA8DED2C0B6D48C06A2990FDF7D1FE04
:10279000CDE92A019DED2C0B53EC102B9DED2A0B5E
:1027A00051EC100BFDF7D7FDCDE93001624890EDFB
:1027B000000AF2EE040A20EE200A8DED230A239887
:1027C000FDF7B7FECDE924019DED240B03F018FAC7
:1027D0008DED280B5948806A2590FDF7AAFECDE9BA
:1027E00026019DED280B53EC102B9DED260B51EC93
:1027F000100BFDF7B0FDCDE92C014F4890ED000A1C
:10280000F2EE020A20EE200A8DED1F0A1F98FDF756
:1028100090FECDE920019DED200B03F0F1F98DED47
:10282000240B4648406A2190FDF783FECDE9220142
:102830009DED240B53EC102B9DED220B51EC100B56
:10284000FDF789FDCDE928013B4890ED000AF2EE45
:10285000000A20EE200A8DED1B0A1B98FDF769FE89
:10286000CDE91C019DED1C0B03F0CAF98DED200B89
:102870003248006A1D90FDF75CFECDE91E019DED1A
:10288000200B53EC102B9DED1E0B51EC100BFDF7A4
:1028900062FDCDE92401284890ED000AF1EE0C0A12
:1028A00020EE200A8DED170A1798FDF742FECDE9BC
:1028B00018019DED180B03F0A3F98DED1C0B1F48BB
:1028C000C0691990FDF735FECDE91A019DED1C0B8D
:1028D00053EC102B9DED1A0B51EC100BFDF73BFD4B
:1028E000CDE92001144890ED000AF1EE080A20EE2F
:1028F000200A8DED130A1398FDF71BFECDE9140194
:102900009DED140B03F07CF98DED180B0B488069DD
:102910001590FDF70EFECDE916019DED180B53EC59
:10292000102B9DED160B51EC100BFDF714FDCDE9AE
:102930001C01014804E0000020010020A411002037
:1029400090ED000AF1EE040A20EE200A8DED0F0A48
:102950000F98FDF7EEFDCDE910019DED100B03F092
:102960004FF98DED140BFE4840691190FDF7E1FD24
:10297000CDE912019DED140B53EC102B9DED120BC4
:1029800051EC100BFDF7E7FCCDE91801F548D0ED4F
:10299000000AB1EE000A20EE800A8DED0B0A0B98BA
:1029A000FDF7C7FDCDE90C019DED0C0B03F028F9F7
:1029B0008DED100BEA4800690D90FDF7BAFDCDE9E9
:1029C0000E019DED100B53EC102B9DED0E0B51ECF9
:1029D000100BFDF7C0FCCDE91401E24890ED000AB0
:1029E000F0EE080A20EE200A8DED070A0798FDF7A1
:1029F000A0FDCDE908019DED080B03F001F98DED77
:102A00000C0BD748C0680990FDF793FDCDE90A018A
:102A10009DED0C0B53EC102B9DED0A0B51EC100BA4
:102A2000FDF799FCCDE91001CE4890ED000AF0EEDB
:102A3000000A20EE200A8DED030A0398FDF779FDC8
:102A4000CDE904019DED040B03F0DAF88DED080BE0
:102A5000C34880680590FDF76CFDCDE906019DED4A
:102A6000080B53EC102B9DED060B51EC100BFDF7F2
:102A700072FCCDE90C01BB480068FDF75AFDCDE9B9
:102A800000019DED000B03F0BBF88DED040BB44885
:102A900040680190FDF74DFDCDE902019DED040B6D
:102AA00053EC102B9DED020B51EC100BFDF753FC7A
:102AB0009FEDAD0BCDE9080103F0A2F88DED040BFD
:102AC000A74800680190FDF734FDCDE902019DEDB6
:102AD000040B53EC102B9DED020B51EC100BFDF78A
:102AE0003AFCCDE906019DED080B53EC102B9DED52
:102AF000060B51EC100BFDF787FBCDE90A019DEDAC
:102B00000C0B53EC102B9DED0A0B51EC100BFDF749
:102B10007BFBCDE90E019DED100B53EC102B9DEDD1
:102B20000E0B51EC100BFDF76FFBCDE912019DED83
:102B3000140B53EC102B9DED120B51EC100BFDF709
:102B400063FBCDE916019DED180B53EC102B9DEDA9
:102B5000160B51EC100BFDF757FBCDE91A019DED5B
:102B60001C0B53EC102B9DED1A0B51EC100BFDF7C9
:102B70004BFBCDE91E019DED200B53EC102B9DED81
:102B80001E0B51EC100BFDF73FFBCDE922019DED33
:102B9000240B53EC102B9DED220B51EC100BFDF789
:102BA00033FBCDE926019DED280B53EC102B9DED59
:102BB000260B51EC100BFDF727FBCDE92A019DED0B
:102BC0002C0B53EC102B9DED2A0B51EC100BFDF749
:102BD0001BFBCDE92E019DED300B53EC102B9DED31
:102BE0002E0B51EC100BFDF70FFBCDE932019DEDE3
:102BF000340B53EC102B9DED320B51EC100BFDF709
:102C000003FBCDE936019DED380B53EC102B9DED08
:102C1000360B51EC100BFDF7F7FACDE93A019DEDBB
:102C20003C0B53EC102B9DED3A0B51EC100BFDF7C8
:102C3000EBFACDE93E019DED400B53EC102B9DEDE1
:102C40003E0B51EC100BFDF7DFFA439142909DEDE6
:102C5000440B53EC102B9DED420B51EC100BFDF788
:102C6000D3FA479146909DED480B53EC102B9DED08
:102C7000460B51EC100BFDF7C7FA4B914A909DEDB6
:102C80004C0B53EC102B9DED4A0B51EC100BFDF748
:102C9000BBFA4F914E909DED500B53EC102B9DEDD8
:102CA0004E0B51EC100BFDF7AFFA539152909DED86
:102CB000540B53EC102B9DED520B51EC100BFDF708
:102CC000A3FA579156909DED580B53EC102B9DEDA8
:102CD000560B51EC100BFDF797FA5B915A909DED56
:102CE0005C0B53EC102B9DED5A0B51EC100BFDF7C8
:102CF0008BFA5F915E909DED600B53EC102B9DED78
:102D00005E0B51EC100BFDF77FFA639162909DED25
:102D1000640B53EC102B9DED620B51EC100BFDF787
:102D200073FA679166909DED680B53EC102B9DED47
:102D3000660B51EC100BFDF767FA6B916A909DEDF5
:102D40006C0B53EC102B9DED6A0B51EC100BFDF747
:102D50005BFA6F916E909DED700B53EC102B07E0BA
:102D6000A41100202001002000000000000000004D
:102D70009DED6E0B51EC100BFDF746FA73917290BE
:102D80009DED740B53EC102B9DED720B51EC100B61
:102D9000FDF73AFA779176909DED780B53EC102B76
:102DA0009DED760B51EC100BFDF72EFA7B917A908E
:102DB0009DED7C0B53EC102B9DED7A0B51EC100B21
:102DC000FDF722FA7F917E909DED800B53EC102B46
:102DD0009DED7E0B51EC100BFDF716FA839182905E
:102DE0009DED820B51EC100BFDF7E6FB6D49086081
:102DF0006D4890ED000A6D4880ED000A0020859036
:102E00001CE06949859801EB800090ED000A674855
:102E1000D0ED000AB4EEE00AF1EE10FA0ADD859872
:102E200001EB800090ED000A604880ED000A6049E7
:102E3000859808708598401CC0B2859085981F2899
:102E4000DFDD5C4890ED000A20EE000A5548D0ED29
:102E5000000A90ED001A00EE810A8DED7D0A7D9842
:102E6000FDF767FB7F917E909DED7E0B02F02CFFBE
:102E70008DED800B9FED500B53EC102B9DED800BD7
:102E800051EC100BFDF767FA839182909DED820B58
:102E900051EC100BFDF790FB494908604148D0ED1B
:102EA000000A444890ED001A80EE810A8DED7B0AFD
:102EB0007B98FDF73EFB7D917C909DED7C0B02F0B5
:102EC000C3FC8DED7E0B9FED3F0B53EC102B9DED66
:102ED0007E0B51EC100BFDF7B0FA9FED3C0B53EC61
:102EE000102B819180909DED800B51EC100BFDF724
:102EF00032FA839182909DED820B51EC100BFDF71D
:102F00005BFB344908602B4890ED000AB5EEC00A1F
:102F1000F1EE10FA19DD234890ED000AB5EEC00A73
:102F2000F1EE10FA0AD2084690ED000ADFED2A0A07
:102F300030EE200A294880ED000A10E0254890ED87
:102F4000000A264880ED000A09E0224890ED000AB8
:102F5000DFED230A30EE200A204880ED000A1F48EA
:102F600090ED000ADFED1F0A30EE600A80ED000AE6
:102F700090ED000AB5EEC00AF1EE10FA09D290ED1C
:102F8000000ADFED150A30EE200A174880ED000A2E
:102F900005E0124890ED000A134880ED000A0DF597
:102FA000077D00BD40010020A41100203001002059
:102FB000240100203C0100207B14AE47E1BA5340BD
:102FC000340100206E861BF0F9210940000000004A
:102FD00000806640440100200000B4433801002016
:102FE000000034430000A0424801002000B5ADF5C8
:102FF000077D002084902FE00020859013E0FE499B
:10300000859801EBC011849801EB800090ED000AD7
:10301000FA48D0ED000A30EE200A80ED000A8598CB
:10302000401CC0B2859085980728E8DDF34890EDF4
:10303000000AF2EE000A80EE201AF149849801EBB2
:10304000800080ED001A9FEDEF0AEC4880ED000A49
:103050008498401CC0B2849084981F28CCDDEAA0DC
:1030600002F0CAFBEA4890ED000AF3EE0F0A20EEE8
:10307000200A8DED770A7798FDF75BFA79917890C1
:103080009DED780B02F04CFD8DED7C0BDC48806FE4
:103090007990FDF74EFA7B917A909DED7C0B53EC85
:1030A000102B9DED7A0B51EC100BFDF754F981912B
:1030B0008090D74890ED000AF3EE0E0A20EE200A29
:1030C0008DED730A7398FDF734FA759174909DED48
:1030D000740B02F025FD8DED780BC948806F75905B
:1030E000FDF727FA779176909DED780B53EC102B36
:1030F0009DED760B51EC100BFDF72DF97D917C9039
:10310000C34890ED000AF3EE0D0A20EE200A8DED83
:103110006F0A6F98FDF70DFA719170909DED700B2D
:1031200002F0FEFC8DED740BB548406F7190FDF719
:1031300000FA739172909DED740B53EC102B9DED82
:10314000720B51EC100BFDF706F979917890B048AD
:1031500090ED000AF3EE0C0A20EE200A8DED6B0ACA
:103160006B98FDF7E6F96D916C909DED6C0B02F09C
:10317000D7FC8DED700BA248006F6D90FDF7D9F96B
:103180006F916E909DED700B53EC102B9DED6E0BBF
:1031900051EC100BFDF7DFF8759174909C4890EDA1
:1031A000000AF3EE0B0A20EE200A8DED670A6798FD
:1031B000FDF7BFF9699168909DED680B02F0B0FCD6
:1031C0008DED6C0B8E48C06E6990FDF7B2F96B9176
:1031D0006A909DED6C0B53EC102B9DED6A0B51EC3E
:1031E000100BFDF7B8F871917090894890ED000AC6
:1031F000F3EE0A0A20EE200A8DED630A6398FDF7CC
:1032000098F9659164909DED640B02F089FC8DED59
:10321000680B7B48806E6590FDF78BF9679166902F
:103220009DED680B53EC102B9DED660B51EC100BD4
:10323000FDF791F86D916C90754890ED000AF3EEF2
:10324000090A20EE200A8DED5F0A5F98FDF771F9FB
:10325000619160909DED600B02F062FC8DED640B5E
:103260006748406E6190FDF764F9639162909DED4F
:10327000640B53EC102B9DED620B51EC100BFDF722
:103280006AF869916890624890ED000AF3EE080AC6
:1032900020EE200A8DED5B0A5B98FDF74AF95D91FF
:1032A0005C909DED5C0B02F03BFC8DED600B544897
:1032B000006E5D90FDF73DF95F915E909DED600BB6
:1032C00053EC102B9DED5E0B51EC100BFDF743F80A
:1032D000659164904E4890ED000AF3EE070A20EEE7
:1032E000200A8DED570A5798FDF723F95991589008
:1032F0009DED580B02F014FC8DED5C0B4048C06D49
:103300005990FDF716F95B915A909DED5C0B53ECCB
:10331000102B9DED5A0B51EC100BFDF71CF8619131
:1033200060903B4890ED000AF3EE060A20EE200A7A
:103330008DED530A5398FDF7FCF8559154909DED8F
:10334000540B02F0EDFB8DED580B2D48806D559020
:10335000FDF7EFF8579156909DED580B53EC102B5D
:103360009DED560B51EC100BFCF7F5FF5D915C9059
:10337000274890ED000AF3EE050A20EE200A8DEDB5
:103380004F0A4F98FDF7D5F8519150909DED500B95
:1033900002F0C6FB8DED540B1948406D5190FDF7BE
:1033A000C8F8539152909DED540B53EC102B9DEDAA
:1033B000520B51EC100BFCF7CEFF5991589014486A
:1033C00090ED000AF3EE040A20EE200A8DED4B0A80
:1033D0004B98FDF7AEF84D914C909DED4C0B02F0E3
:1033E0009FFB8DED500B0648006D4D90FDF7A1F849
:1033F0004F914E900EE00000A40500204C010020EB
:10340000281200200000000032200D0A00000000F9
:10341000200100209DED500B53EC102B9DED4E0B29
:1034200051EC100BFCF797FF55915490FE4890ED2E
:10343000000AF3EE030A20EE200A8DED470A4798B2
:10344000FDF777F8499148909DED480B02F068FB35
:103450008DED4C0BF548C06C4990FDF76AF84B9127
:103460004A909DED4C0B53EC102B9DED4A0B51EC0B
:10347000100BFCF770FF51915090EB4890ED000A53
:10348000F3EE020A20EE200A8DED430A4398FDF781
:1034900050F8459144909DED440B02F041FB8DEDB9
:1034A000480BE248806C4590FDF743F84791469001
:1034B0009DED480B53EC102B9DED460B51EC100B82
:1034C000FCF749FF4D914C90D74890ED000AF3EE80
:1034D000010A20EE200A8DED3F0A3F98FDF729F8FA
:1034E000419140909DED400B02F01AFB8DED440B95
:1034F000CE48406C4190FDF71CF8439142909DED01
:10350000440B53EC102B9DED420B51EC100BFCF7D0
:1035100022FF49914890C44890ED000AF3EE000A5A
:1035200020EE200A8DED3B0A3B98FDF702F8CDE92D
:103530003C019DED3C0B02F0F3FA8DED400BBB48D6
:10354000006C3D90FCF7F5FFCDE93E019DED400B91
:1035500053EC102B9DED3E0B51EC100BFCF7FBFEDA
:1035600045914490B04890ED000AF2EE0E0A20EE2C
:10357000200A8DED370A3798FCF7DBFFCDE93801DB
:103580009DED380B02F0CCFA8DED3C0BA748C06BDB
:103590003990FCF7CEFFCDE93A019DED3C0B53ECA1
:1035A000102B9DED3A0B51EC100BFCF7D4FE419122
:1035B00040909D4890ED000AF2EE0C0A20EE200AA1
:1035C0008DED330A3398FCF7B4FFCDE934019DED5E
:1035D000340B02F0A5FA8DED380B9448806B3590D2
:1035E000FCF7A7FFCDE936019DED380B53EC102B0E
:1035F0009DED360B51EC100BFCF7ADFECDE93C0117
:103600008948D0ED000AB2EE0A0A20EE800A8DED5C
:103610002F0A2F98FCF78DFFCDE930019DED300B7F
:1036200002F07EFA8DED340B8048406B3190FCF750
:1036300080FFCDE932019DED340B53EC102B9DED55
:10364000320B51EC100BFCF786FECDE938017648C1
:1036500090ED000AF2EE080A20EE200A8DED2B0A0A
:103660002B98FCF766FFCDE92C019DED2C0B02F0A9
:1036700057FA8DED300B6D48006B2D90FCF759FF1C
:10368000CDE92E019DED300B53EC102B9DED2E0B53
:1036900051EC100BFCF75FFECDE93401624890ED70
:1036A000000AF2EE060A20EE200A8DED270A27987E
:1036B000FCF73FFFCDE928019DED280B02F030FA21
:1036C0008DED2C0B5948C06A2990FCF732FFCDE9EB
:1036D0002A019DED2C0B53EC102B9DED2A0B51EC88
:1036E000100BFCF738FECDE930014F4890ED000A91
:1036F000F2EE040A20EE200A8DED230A2398FCF74F
:1037000018FFCDE924019DED240B02F009FA8DED9F
:10371000280B4648806A2590FCF70BFFCDE926016F
:103720009DED280B53EC102B9DED260B51EC100B4F
:10373000FCF711FECDE92C013B4890ED000AF2EEBA
:10374000020A20EE200A8DED1F0A1F98FCF7F1FEF9
:10375000CDE920019DED200B02F0E2F98DED240B67
:103760003248406A2190FCF7E4FECDE922019DED4C
:10377000240B53EC102B9DED220B51EC100BFCF79E
:10378000EAFDCDE92801284890ED000AF2EE000A92
:1037900020EE200A8DED1B0A1B98FCF7CAFECDE92E
:1037A0001C019DED1C0B02F0BBF98DED200B1F4899
:1037B000006A1D90FCF7BDFECDE91E019DED200BBA
:1037C00053EC102B9DED1E0B51EC100BFCF7C3FDC1
:1037D000CDE92401144890ED000AF1EE0C0A20EE28
:1037E000200A8DED170A1798FCF7A3FECDE9180102
:1037F0009DED180B02F094F98DED1C0B0B48C06980
:103800001990FCF796FECDE91A019DED1C0B53ECC7
:10381000102B9DED1A0B51EC100BFCF79CFDCDE924
:103820002001014804E000002001002028120020AF
:1038300090ED000AF1EE080A20EE200A8DED130A41
:103840001398FCF776FECDE914019DED140B02F000
:1038500067F98DED180BFE4880691590FCF769FE3D
:10386000CDE916019DED180B53EC102B9DED160BB9
:1038700051EC100BFCF76FFDCDE91C01F54890ED04
:10388000000AF1EE040A20EE200A8DED0F0A0F98CF
:10389000FCF74FFECDE910019DED100B02F040F951
:1038A0008DED140BEA4840691190FCF742FECDE91A
:1038B00012019DED140B53EC102B9DED120B51ECEE
:1038C000100BFCF748FDCDE91801E24890ED000A25
:1038D000F1EE000A20EE200A8DED0B0A0B98FCF7A2
:1038E00028FECDE90C019DED0C0B02F019F98DEDD0
:1038F000100BD74800690D90FCF71BFECDE90E01B7
:103900009DED100B53EC102B9DED0E0B51EC100B9D
:10391000FCF721FDCDE91401CE4890ED000AF0EE50
:10392000080A20EE200A8DED070A0798FCF701FE31
:10393000CDE908019DED080B02F0F2F88DED0C0BBE
:10394000C348C0680990FCF7F4FDCDE90A019DED7C
:103950000C0B53EC102B9DED0A0B51EC100BFCF7EC
:10396000FAFCCDE91001BB4890ED000AF0EE000A28
:1039700020EE200A8DED030A0398FCF7DAFDCDE96D
:1039800004019DED040B02F0CBF88DED080BB0485F
:1039900080680590FCF7CDFDCDE906019DED080B93
:1039A00053EC102B9DED060B51EC100BFCF7D3FCE8
:1039B000CDE90C01A7480068FCF7BBFDCDE900018B
:1039C0009DED000B02F0ACF88DED040BA0484068B3
:1039D0000190FCF7AEFDCDE902019DED040B53EC27
:1039E000102B9DED020B51EC100BFCF7B4FC9FED7E
:1039F0009A0BCDE9080102F093F88DED040B944881
:103A000000680190FCF795FDCDE902019DED040BE6
:103A100053EC102B9DED020B51EC100BFCF79BFCB3
:103A2000CDE906019DED080B53EC102B9DED060B27
:103A300051EC100BFCF7E8FBCDE90A019DED0C0BF6
:103A400053EC102B9DED0A0B51EC100BFCF7DCFB3B
:103A5000CDE90E019DED100B53EC102B9DED0E0BDF
:103A600051EC100BFCF7D0FBCDE912019DED140BCE
:103A700053EC102B9DED120B51EC100BFCF7C4FB1B
:103A8000CDE916019DED180B53EC102B9DED160B97
:103A900051EC100BFCF7B8FBCDE91A019DED1C0BA6
:103AA00053EC102B9DED1A0B51EC100BFCF7ACFBFB
:103AB000CDE91E019DED200B53EC102B9DED1E0B4F
:103AC00051EC100BFCF7A0FBCDE922019DED240B7E
:103AD00053EC102B9DED220B51EC100BFCF794FBDB
:103AE000CDE926019DED280B53EC102B9DED260B07
:103AF00051EC100BFCF788FBCDE92A019DED2C0B56
:103B000053EC102B9DED2A0B51EC100BFCF77CFBBA
:103B1000CDE92E019DED300B53EC102B9DED2E0BBE
:103B200051EC100BFCF770FBCDE932019DED340B2D
:103B300053EC102B9DED320B51EC100BFCF764FB9A
:103B4000CDE936019DED380B53EC102B9DED360B76
:103B500051EC100BFCF758FBCDE93A019DED3C0B05
:103B600053EC102B9DED3A0B51EC100BFCF74CFB7A
:103B7000CDE93E019DED400B53EC102B9DED3E0B2E
:103B800051EC100BFCF740FB439142909DED440B30
:103B900053EC102B9DED420B51EC100BFCF734FB5A
:103BA000479146909DED480B53EC102B9DED460B35
:103BB00051EC100BFCF728FB4B914A909DED4C0B00
:103BC00053EC102B9DED4A0B51EC100BFCF71CFB3A
:103BD0004F914E909DED500B53EC102B9DED4E0BE5
:103BE00051EC100BFCF710FB539152909DED540BD0
:103BF00053EC102B9DED520B51EC100BFCF704FB1A
:103C0000579156909DED580B53EC102B9DED560B94
:103C100051EC100BFCF7F8FA5B915A909DED5C0BA0
:103C200053EC102B9DED5A0B51EC100BFCF7ECFAFA
:103C30005F915E909DED600B53EC102B9DED5E0B44
:103C400051EC100BFCF7E0FA6391629008E0000081
:103C500028120020200100200000000000000000C9
:103C60009DED640B53EC102B9DED620B51EC100B92
:103C7000FCF7CAFA679166909DED680B53EC102B28
:103C80009DED660B51EC100BFCF7BEFA6B916A9040
:103C90009DED6C0B53EC102B9DED6A0B51EC100B52
:103CA000FCF7B2FA6F916E909DED700B53EC102BF8
:103CB0009DED6E0B51EC100BFCF7A6FA7391729010
:103CC0009DED740B53EC102B9DED720B51EC100B12
:103CD000FCF79AFA779176909DED780B53EC102BC8
:103CE0009DED760B51EC100BFCF78EFA7B917A90E0
:103CF0009DED7C0B53EC102B9DED7A0B51EC100BD2
:103D0000FCF782FA7F917E909DED800B53EC102B97
:103D10009DED7E0B51EC100BFCF776FA83918290AF
:103D20009DED820B51EC100BFCF746FCFE49086040
:103D3000FE4890ED000AF3EE0F0A20EE200A8DED0A
:103D4000770A7798FCF7F5FB799178909DED780BE1
:103D500001F056FF8DED7C0BF548C06F7990FCF7B4
:103D6000E8FB7B917A909DED7C0B53EC102B9DED45
:103D70007A0B51EC100BFCF7EEFA81918090EB4836
:103D800090ED000AF3EE0E0A20EE200A8DED730A84
:103D90007398FCF7CEFB759174909DED740B01F058
:103DA0002FFF8DED780BE248806F7590FCF7C1FB1B
:103DB000779176909DED780B53EC102B9DED760B63
:103DC00051EC100BFCF7C7FA7D917C90D74890ED31
:103DD000000AF3EE0D0A20EE200A8DED6F0A6F98AF
:103DE000FCF7A7FB719170909DED700B01F008FF3F
:103DF0008DED740BCE48406F7190FCF79AFB739178
:103E000072909DED740B53EC102B9DED720B51ECE9
:103E1000100BFCF7A0FA79917890C44890ED000A55
:103E2000F3EE0C0A20EE200A8DED6B0A6B98FCF77E
:103E300080FB6D916C909DED6C0B01F0E1FE8DEDC2
:103E4000700BBB48006F6D90FCF773FB6F916E9029
:103E50009DED700B53EC102B9DED6E0B51EC100B88
:103E6000FCF779FA75917490B04890ED000AF3EE82
:103E70000B0A20EE200A8DED670A6798FCF759FBC4
:103E8000699168909DED680B01F0BAFE8DED6C0BA9
:103E9000A748C06E6990FCF74CFB6B916A909DED52
:103EA0006C0B53EC102B9DED6A0B51EC100BFCF7D7
:103EB00052FA719170909D4890ED000AF3EE0A0A53
:103EC00020EE200A8DED630A6398FCF732FB6591C2
:103ED00064909DED640B01F093FE8DED680B9448AA
:103EE000806E6590FCF725FB679166909DED680BF1
:103EF00053EC102B9DED660B51EC100BFCF72BFADD
:103F00006D916C90894890ED000AF3EE090A20EE5D
:103F1000200A8DED5F0A5F98FCF70BFB61916090C2
:103F20009DED600B01F06CFE8DED640B8048406EE2
:103F30006190FCF7FEFA639162909DED640B53EC87
:103F4000102B9DED620B51EC100BFCF704FA6991FC
:103F50006890764890ED000AF3EE080A20EE200AF9
:103F60008DED5B0A5B98FCF7E4FA5D915C909DED4A
:103F70005C0B01F045FE8DED600B6D48006E5D90B1
:103F8000FCF7D7FA5F915E909DED600B53EC102B20
:103F90009DED5E0B51EC100BFCF7DDF96591649023
:103FA000624890ED000AF3EE070A20EE200A8DED3C
:103FB000570A5798FCF7BDFA599158909DED580B48
:103FC00001F01EFE8DED5C0B5948C06D5990FCF759
:103FD000B0FA5B915A909DED5C0B53EC102B9DED6C
:103FE0005A0B51EC100BFCF7B6F9619160904F48F9
:103FF00090ED000AF3EE060A20EE200A8DED530A3A
:104000005398FCF796FA559154909DED540B01F09E
:10401000F7FD8DED580B4648806D5590FCF789FAF9
:10402000579156909DED580B53EC102B9DED560B70
:1040300051EC100BFCF78FF95D915C903B4890EDD3
:10404000000AF3EE050A20EE200A8DED4F0A4F9884
:10405000FCF76FFA519150909DED500B01F0D0FD9F
:104060008DED540B3248406D5190FCF762FA53913C
:1040700052909DED540B53EC102B9DED520B51ECD7
:10408000100BFCF768F959915890284890ED000AF8
:10409000F3EE040A20EE200A8DED4B0A4B98FCF754
:1040A00048FA4D914C909DED4C0B01F0A9FD8DED22
:1040B000500B1F48006D4D90FCF73BFA4F914E900E
:1040C0009DED500B53EC102B9DED4E0B51EC100B56
:1040D000FCF741F955915490144890ED000AF3EE25
:1040E000030A20EE200A8DED470A4798FCF721FAD3
:1040F000499148909DED480B01F082FD8DED4C0BF0
:104100000B48C06C4990FCF714FA4B914A909DED16
:104110004C0B53EC102B9DED4A0B51EC100BFCF7A4
:104120001AF95191509005E05C0100202001002017
:1041300028120020FE4890ED000AF3EE020A20EE5D
:10414000200A8DED430A4398FCF7F3F9459144901A
:104150009DED440B01F054FD8DED480BF548806C4E
:104160004590FCF7E6F9479146909DED480B53ECDE
:10417000102B9DED460B51EC100BFCF7ECF84D911C
:104180004C90EB4890ED000AF3EE010A20EE200A75
:104190008DED3F0A3F98FCF7CCF9419140909DEDA1
:1041A000400B01F02DFD8DED440BE248406C419039
:1041B000FCF7BFF9439142909DED440B53EC102B5B
:1041C0009DED420B51EC100BFCF7C5F8499148905E
:1041D000D74890ED000AF3EE000A20EE200A8DED9C
:1041E0003B0A3B98FCF7A5F9CDE93C019DED3C0B62
:1041F00001F006FD8DED400BCE48006C3D90FCF7C4
:1042000098F9CDE93E019DED400B53EC102B9DED4F
:104210003E0B51EC100BFCF79EF845914490C448BE
:1042200090ED000AF2EE0E0A20EE200A8DED370A1C
:104230003798FCF77EF9CDE938019DED380B01F098
:10424000DFFC8DED3C0BBB48C06B3990FCF771F97E
:10425000CDE93A019DED3C0B53EC102B9DED3A0B53
:1042600051EC100BFCF777F841914090B04890ED7D
:10427000000AF2EE0C0A20EE200A8DED330A339884
:10428000FCF757F9CDE934019DED340B01F0B8FC92
:104290008DED380BA748806B3590FCF74AF9CDE9D6
:1042A00036019DED380B53EC102B9DED360B51EC88
:1042B000100BFCF750F8CDE93C019D4890ED000A49
:1042C000F2EE0A0A20EE200A8DED2F0A2F98FCF755
:1042D00030F9CDE930019DED300B01F091FC8DED11
:1042E000340B9448406B3190FCF723F9CDE932014F
:1042F0009DED340B53EC102B9DED320B51EC100B5C
:10430000FCF729F8CDE93801894890ED000AF2EE72
:10431000080A20EE200A8DED2B0A2B98FCF709F9EC
:10432000CDE92C019DED2C0B01F06AFC8DED300BDD
:104330008048006B2D90FCF7FCF8CDE92E019DED37
:10434000300B53EC102B9DED2E0B51EC100BFCF7AA
:1043500002F8CDE93401764890ED000AF2EE060A43
:1043600020EE200A8DED270A2798FCF7E2F8CDE928
:1043700028019DED280B01F043FC8DED2C0B6D48C1
:10438000C06A2990FCF7D5F8CDE92A019DED2C0BE8
:1043900053EC102B9DED2A0B51EC100BFBF7DBFFC0
:1043A000CDE93001624890ED000AF2EE040A20EEF9
:1043B000200A8DED230A2398FCF7BBF8CDE92401F0
:1043C0009DED240B01F01CFC8DED280B5948806AF3
:1043D0002590FCF7AEF8CDE926019DED280B53ECB6
:1043E000102B9DED260B51EC100BFBF7B4FFCDE924
:1043F0002C014F48D0ED000AB2EE020A20EE800AEE
:104400008DED1F0A1F98FCF794F8CDE920019DED72
:10441000200B01F0F5FB8DED240B4648406A2190FE
:10442000FCF787F8CDE922019DED240B53EC102B0E
:104430009DED220B51EC100BFBF78DFFCDE9280110
:104440003B4890ED000AF2EE000A20EE200A8DEDC6
:104450001B0A1B98FCF76DF8CDE91C019DED1C0BA8
:1044600001F0CEFB8DED200B3248006A1D90FCF769
:1044700060F8CDE91E019DED200B53EC102B9DED56
:104480001E0B51EC100BFBF766FFCDE92401284809
:1044900090ED000AF1EE0C0A20EE200A8DED170ACD
:1044A0001798FCF746F8CDE918019DED180B01F0BF
:1044B000A7FB8DED1C0B1F48C0691990FCF739F85C
:1044C000CDE91A019DED1C0B53EC102B9DED1A0B41
:1044D00051EC100BFBF73FFFCDE92001144890EDA4
:1044E000000AF1EE080A20EE200A8DED130A139857
:1044F000FCF71FF8CDE914019DED140B01F080FBD2
:104500008DED180B0B4880691590FCF712F8CDE97A
:1045100016019DED180B53EC102B9DED160B51EC75
:10452000100BFBF718FFCDE91C01014804E0000067
:10453000200100202812002090ED000AF1EE040A6C
:1045400020EE200A8DED0F0A0F98FBF7F2FFCDE960
:1045500010019DED100B01F053FB8DED140BFE4887
:1045600040691190FBF7E5FFCDE912019DED140BB9
:1045700053EC102B9DED120B51EC100BFBF7EBFEE7
:10458000CDE91801F54890ED000AF1EE000A20EEA1
:10459000200A8DED0B0A0B98FBF7CBFFCDE90C0140
:1045A0009DED0C0B01F02CFB8DED100BEA48006922
:1045B0000D90FBF7BEFFCDE90E019DED100B53EC06
:1045C000102B9DED0E0B51EC100BFBF7C4FECDE94B
:1045D0001401E24890ED000AF0EE080A20EE200AED
:1045E0008DED070A0798FBF7A4FFCDE908019DEDC3
:1045F000080B01F005FB8DED0C0BD748C068099046
:10460000FBF797FFCDE90A019DED0C0B53EC102B46
:104610009DED0A0B51EC100BFBF79DFECDE910014F
:10462000CE48D0ED000AB0EE000A20EE800A8DEDF3
:10463000030A0398FBF77DFFCDE904019DED040B10
:1046400001F0DEFA8DED080BC34880680590FBF79A
:1046500070FFCDE906019DED080B53EC102B9DED8D
:10466000060B51EC100BFBF776FECDE90C01BB48B5
:104670000068FBF75EFFCDE900019DED000B01F046
:10468000BFFA8DED040BB44840680190FBF751FF71
:10469000CDE902019DED040B53EC102B9DED020BB7
:1046A00051EC100BFBF757FE9FEDAD0BCDE9080168
:1046B00001F0A6FA8DED040BA74800680190FBF706
:1046C00038FFCDE902019DED040B53EC102B9DED5D
:1046D000020B51EC100BFBF73EFECDE906019DED00
:1046E000080B53EC102B9DED060B51EC100BFBF758
:1046F0008BFDCDE90A019DED0C0B53EC102B9DEDCC
:104700000A0B51EC100BFBF77FFDCDE90E019DED7F
:10471000100B53EC102B9DED0E0B51EC100BFBF717
:1047200073FDCDE912019DED140B53EC102B9DEDA3
:10473000120B51EC100BFBF767FDCDE916019DED57
:10474000180B53EC102B9DED160B51EC100BFBF7D7
:104750005BFDCDE91A019DED1C0B53EC102B9DED7B
:104760001A0B51EC100BFBF74FFDCDE91E019DED2F
:10477000200B53EC102B9DED1E0B51EC100BFBF797
:1047800043FDCDE922019DED240B53EC102B9DED53
:10479000220B51EC100BFBF737FDCDE926019DED07
:1047A000280B53EC102B9DED260B51EC100BFBF757
:1047B0002BFDCDE92A019DED2C0B53EC102B9DED2B
:1047C0002A0B51EC100BFBF71FFDCDE92E019DEDDF
:1047D000300B53EC102B9DED2E0B51EC100BFBF717
:1047E00013FDCDE932019DED340B53EC102B9DED03
:1047F000320B51EC100BFBF707FDCDE936019DEDB7
:10480000380B53EC102B9DED360B51EC100BFBF7D6
:10481000FBFCCDE93A019DED3C0B53EC102B9DEDDB
:104820003A0B51EC100BFBF7EFFCCDE93E019DED8F
:10483000400B53EC102B9DED3E0B51EC100BFBF796
:10484000E3FC439142909DED440B53EC102B9DED06
:10485000420B51EC100BFBF7D7FC479146909DEDB6
:10486000480B53EC102B9DED460B51EC100BFBF756
:10487000CBFC4B914A909DED4C0B53EC102B9DEDD6
:104880004A0B51EC100BFBF7BFFC4F914E909DED86
:10489000500B53EC102B9DED4E0B51EC100BFBF716
:1048A000B3FC539152909DED540B53EC102B9DEDA6
:1048B000520B51EC100BFBF7A7FC579156909DED56
:1048C000580B53EC102B9DED560B51EC100BFBF7D6
:1048D0009BFC5B915A909DED5C0B53EC102B9DED76
:1048E0005A0B51EC100BFBF78FFC5F915E909DED26
:1048F000600B53EC102B9DED5E0B51EC100BFBF796
:1049000083FC639162909DED640B53EC102B9DED45
:10491000620B51EC100BFBF777FC679166909DEDF5
:10492000680B53EC102B9DED660B51EC100BFBF755
:104930006BFC6B916A909DED6C0B53EC102B9DED15
:104940006A0B51EC100BFBF75FFC6F916E909DEDC5
:10495000700B53EC102B07E02812002020010020E0
:1049600000000000000000009DED6E0B51EC100BEC
:10497000FBF74AFC739172909DED740B53EC102B76
:104980009DED720B51EC100BFBF73EFC779176908E
:104990009DED780B53EC102B9DED760B51EC100B2D
:1049A000FBF732FC7B917A909DED7C0B53EC102B46
:1049B0009DED7A0B51EC100BFBF726FC7F917E905E
:1049C0009DED800B53EC102B9DED7E0B51EC100BED
:1049D000FBF71AFC839182909DED820B51EC100B3A
:1049E000FBF7EAFD7A4908607A4890ED000A7A48B8
:1049F00080ED000A002085901CE07649859801EB47
:104A0000800090ED000A7448D0ED000AB4EEE00A90
:104A1000F1EE10FA0ADD859801EB800090ED000AB6
:104A20006D4880ED000A6D49859808708598401C96
:104A3000C0B2859085981F28DFDD694890ED000A97
:104A400020EE000A6248D0ED000A90ED001A00EE58
:104A5000810A8DED7D0A7D98FBF76BFD7F917E903D
:104A60009DED7E0B01F030F98DED800B9FED5D0B20
:104A700053EC102B9DED800B51EC100BFBF76BFCF6
:104A8000839182909DED820B51EC100BFBF794FD0E
:104A9000564908604E48D0ED000A514890ED001A82
:104AA00080EE810A8DED7B0A7B98FBF742FD7D91BC
:104AB0007C909DED7C0B00F0C7FE8DED7E0B9FED95
:104AC0004C0B53EC102B9DED7E0B51EC100BFBF7B8
:104AD000B4FC9FED490B53EC102B819180909DED20
:104AE000800B51EC100BFBF736FC839182909DED0F
:104AF000820B51EC100BFBF75FFD41490860374812
:104B000000780C2810DA084690ED000ADFED3D0A27
:104B1000B4EEE00AF1EE10FA06D890ED000AB5EE18
:104B2000C00AF1EE10FA14DA2C48007818281FDBBE
:104B3000334890ED000ADFED340AB4EEE00AF1EEFE
:104B400010FA15DB90ED000AB5EEC00AF1EE10FA8E
:104B50000ED82B4890ED000ADFED2C0A30EE600AEB
:104B6000DFED2B0A30EE200A2A4880ED000A09E02A
:104B7000234890ED000ADFED260A30EE200A254892
:104B800080ED000A234890ED000ADFED230A30EEA5
:104B9000200A80ED000A90ED000ADFED200AB4EE55
:104BA000E00AF1EE10FA09DD90ED000ADFED1B0AD4
:104BB00030EE600A1A4880ED000A05E0154890EDD5
:104BC000000A174880ED000A0DF5077D00BD0000C2
:104BD0006001002028120020500100202401002044
:104BE0005C0100207B14AE47E1BA53405401002021
:104BF0006E861BF0F921094000000000008066402D
:104C0000640100200000B4420000B4C2000034433C
:104C1000000087435801002000003E430000B443D9
:104C20006801002000BFFEE71CB50121052000F04F
:104C3000FDF80120009000208DF804008DF8070099
:104C400069460548FCF74AFB4FF40050009069465E
:104C50000248FCF743FB1CBD000002400008024074
:104C60001CB5012140F2C91000F0E0F820200090AE
:104C700001208DF8040000208DF806008DF8050055
:104C800069461F48FCF72AFB20211D48FCF791FBD1
:104C90000820009069461B48FCF720FB08211948B2
:104CA000FCF789FB4FF48070009069461648FCF7CA
:104CB00015FB4FF480711448FCF77BFB0420009037
:104CC00069461248FCF70AFB04211048FCF771FB07
:104CD0000820009069460D48FCF700FB009881B25F
:104CE0000A48FCF766FB4FF40070009069460848DC
:104CF000FCF7F4FA4FF400710548FCF75AFB1CBDB1
:104D0000000C024000200240000002400018024057
:104D1000001C024000BFFEE7704708B528208DF850
:104D2000000001208DF8010002208DF80200012012
:104D30008DF80300684600F031F803208DF802007A
:104D400017208DF80000684600F028F808BD08B567
:104D50004FF4A06000F05EF825208DF800000120DF
:104D60008DF801008DF802008DF80300684600F010
:104D700015F808BD08B54FF4E06000F04BF8472087
:104D80008DF8000001208DF801008DF802008DF8EB
:104D90000300684600F002F808BD000070B500216D
:104DA00000230F22C4781CB3174C246804F4E06479
:104DB000C4F5E064C4F30721C1F10404E3B20A417D
:104DC00044789C40E1B28478144021430C07210EC2
:104DD0000E4C05786155047804F01F050124AC40A1
:104DE00005786D11AD0005F1E025C5F8004109E039
:104DF000047804F01F050124AC40054D06787611B7
:104E000045F8264070BD00000CED00E000E400E035
:104E100080E100E002490143024A1160704700004E
:104E20000000FA050CED00E07047000029B1064AC9
:104E300012680243044B1A6004E0034A126882437A
:104E4000014B1A60704700003038024029B1064A11
:104E500012680243044B1A6004E0034A126882435A
:104E6000014B1A60704700004038024029B1064AE1
:104E700012680243044B1A6004E0034A126882433A
:104E8000014B1A60704700002038024029B1064AE1
:104E900012680243044B1A6004E0034A126882431A
:104EA000014B1A607047000044380240F0B5002101
:104EB00000220024022500260223324F3F6807F01B
:104EC0000C0121B1042905D0082937D105E02E4F66
:104ED000076036E02D4F076033E02A4F3F1F3F68E1
:104EE000C7F38056274F3F1F3F6807F03F036EB15F
:104EF000264FB7FBF3F7DFF88CC0ACF1040CDCF8FD
:104F000000C0CCF3881C07FB0CF40CE01E4FB7FB71
:104F1000F3F7DFF870C0ACF1040CDCF800C0CCF3A0
:104F2000881C07FB0CF4174F3F1F3F68C7F301476E
:104F30007F1C7D00B4FBF5F7076002E0124F0760AD
:104F400000BF00BF0F4F3F6807F0F0010909104F85
:104F50007A5C0768D74047600A4F3F6807F4E05122
:104F6000890A0B4F7A5C4768D7408760054F3F68D6
:104F700007F46041490B064F7A5C4768D740C76029
:104F8000F0BD0000083802400024F40040787D01A4
:104F9000000000201CB501210846FFF747FF042050
:104FA000009003208DF8040000208DF8070069466A
:104FB0000748FCF793F92020009003208DF80400A7
:104FC00000208DF8070069460148FCF787F91CBDF1
:104FD0000000024000B58BB001210802FFF756FF28
:104FE000002001904FF440300290002003904FF4D5
:104FF0007060049001A8FBF7DBFC05A8FBF789FDB6
:10500000002005908DF818008DF819000790099080
:1050100001208DF8280005A90548FBF7EFFC0121C8
:105020000348FBF7BAFC0248FBF76EFD0BB000BD6E
:105030000020014010B5FFF7ADFFFFF7CBFF10BD1B
:105040007047000030B500228B071C0F0F2303FAB6
:1050500004F20B4B8C1053F824309343084C8D1002
:1050600044F8253023468C1053F824308C07240F45
:1050700000FA04F42343024C8D1044F8253030BD6F
:10508000083801400CB500200190009041480068AC
:1050900040F480303F49086000BF3E48006800F49B
:1050A000003000900198401C0190009818B90198B8
:1050B000B0F5A04FF1D13748006800F4003010B1CE
:1050C0000120009001E0002000900098012860D1AC
:1050D00030484030006840F080502E494031086030
:1050E0002D48006840F440402B49086029480830AA
:1050F00000682849083108600846006840F400400C
:1051000008600846006840F4A05008602348091F62
:105110000860081F006840F08070091F086000BF29
:105120001C48006800F000700028F9D01A48006898
:1051300040F480301849086000BF1748406800F408
:1051400080300028F9D01448006840F4003012493B
:10515000086000BF1048406800F400300028F9D013
:1051600040F205700E4908600A480830006820F0D7
:1051700003000849083108600846006840F0020052
:10518000086000BF03480830006800F00C000828E1
:10519000F8D10CBD0038024000700040195A400799
:1051A000003C02407047000010B51548006840F40C
:1051B0007000134908601348006840F0010011496D
:1051C000086000200F49083108600E4800680E4949
:1051D00008400C4908600D48091D0860081F006858
:1051E00020F48020091F0860002006490C31086067
:1051F000FFF748FF4FF0006001498039086010BD9B
:1052000088ED00E000380240FFFFF6FE1030002479
:10521000F0B50C46154600210022068C4FF6FE77AD
:105220003E400684018B028C4FF60C7631407E1C8A
:1052300006EA03162E4331434FF6F576324044F02A
:105240000106324301830284F0BDF0B50C461546D9
:10525000002100220026078C4FF6EF7C07EA0C079E
:105260000784018B028C4FF6FF7707EA041640F69D
:10527000FF4739404FF6FF7707EA033739434FF6C8
:10528000FF7707EA052739434FF65F773A4046F044
:1052900010073A4301830284F0BD000010B52DEDE4
:1052A000028B0421194800F043F8184800F04FF829
:1052B000174908800846008800B30846008800EEB9
:1052C000100AB8EE400ADFED130A80EE801A124889
:1052D00080ED001A90ED000ADFED100A20EE200AA2
:1052E0000F4880ED000A0068FBF723F941EC180B2A
:1052F00053EC182B0BA000F07FFA04E09FED0B0A93
:10530000054880ED000ABDEC028B10BD0004014091
:10531000040100200050C347080100200000704233
:105320000C01002025660D0A0000000000000000AE
:10533000CA430282704721B1028842F00102028012
:1053400004E002884FF6FE731A400280704701465F
:10535000886B70471AB183890B43838102E083898C
:105360008B43838170472DE9F04105460C460026AA
:105370000127608808B9022600E00026A0880128DD
:1053800001D1022700E001272088A0B92389A28843
:1053900061882846FFF73CFFE188284600F07FF847
:1053A00023893A4631462846FFF74FFFE1882846D1
:1053B00000F07EF813E02389A28861882846FFF771
:1053C00044FFE188284600F073F823893A463146C5
:1053D0002846FFF71DFFE188284600F060F8BDE889
:1053E000F081000000B587B001210220FFF74EFDDB
:1053F0004FF6FE70059040F20770ADF810000020E7
:10540000ADF81800ADF8120004A9164800F05EF8D7
:105410000420ADF804000020ADF806000120ADF82E
:1054200008000020ADF80A00ADF80C0001A90D48F5
:10543000FFF799FF60210B4800F016F80421094896
:1054400000F024F88021074800F017F801210548F2
:10545000FFF771FF012204210248FFF77BFF07B02D
:1054600000BD0000000401400A46002101894FF6FA
:105470008F73194011430181704702894FF67F7382
:105480001A40028102890A430281704702894FF65D
:10549000F8731A40028102890A4302817047028B25
:1054A0004FF6F3731A400283028B0A43028370475C
:1054B000028B4FF2FF331A400283028B4FF6FF73C9
:1054C00003EA01231A430283704700000022028886
:1054D000184B98420ED0184B98420BD0B0F1804F29
:1054E00008D0164B984205D0154B984202D0154B68
:1054F000984204D14FF68F731A404B881A43124BCF
:10550000984207D0114B984204D04FF6FF431A40FF
:105510000B891A4302804B68C3620B880385054BD5
:10552000984202D0044B984201D18B7A0386012322
:1055300083827047000001400004014000040040E5
:1055400000080040000C0040001000400014004023
:1055500010B500F005F800F021F8FFF743FF10BD8B
:105560001CB501210802FFF761FC032206210A484D
:10557000FBF7FCFE02208DF8040000208DF80600E9
:105580008DF8070003208DF8050040200090694643
:105590000148FBF7A3FE1CBD0020024008B54FF4F4
:1055A000A060FFF737FC2E208DF8000001208DF859
:1055B00001008DF802008DF803006846FFF7EEFB4E
:1055C00008BD21B1828942F40052828104E08289BF
:1055D0004DF6FF731A408281704702460020B1F5F4
:1055E000007F00D100BF13880B400BB1012000E009
:1055F00000207047F0B50346002400260025002057
:1056000040F66A17B94200D100BF1846C1F34214F0
:1056100001F01F06012707FA06F5012C01D10C3015
:1056200004E0022C01D1103000E014301AB10768F8
:105630002F43076002E00768AF430760F0BD00003A
:105640002DE9FF4705460E460024A14600BFA046AF
:10565000B08900B100BF2C8A24F44054F088044380
:105660002C82AC8941F20C608443B08831890843B4
:10567000718908430443AC81AC8A24F44074B08936
:105680000443AC826846FFF711FC2048854202D0F3
:105690001F48854202D1DDF80C9001E0DDF808904A
:1056A000A88900F4004040B109EBC90000EB0910E3
:1056B00031684900B0FBF1F707E009EBC90000EBE6
:1056C000091031688900B0FBF1F76420B7FBF0F0F6
:1056D00004012009642101FB1078A88900F400402E
:1056E00040B1322000EBC800B0FBF1F000F0070041
:1056F000044308E0322000EB08106421B0FBF1F015
:1057000000F00F0004432C81BDE8FF87001001402A
:1057100000140140C1F308028280704700BFFEE719
:1057200000B587B001214FF48270FFF77FFB0121A4
:105730002020FFF7ABFB082207212C48FBF716FEC1
:10574000082206212948FBF711FE00208DF81A00D7
:105750008DF81B0002208DF81800402005900220D3
:105760008DF8190005A92148FBF7B8FD02208DF836
:1057700018008020059005A91C48FBF7AFFD00200C
:105780008DF81A008DF81B0001208DF8180080207C
:10579000059002208DF8190005A91548FBF79EFD1C
:1057A0004FF4E13001900020ADF80800ADF80A0098
:1057B000ADF80C00ADF810000C20ADF80E0001A9FA
:1057C0000C48FFF73DFF01210A48FFF7FAFEFFF7FB
:1057D000D1FA012240F225510648FFF70BFF802144
:1057E0000348FBF7E6FD07B000BD000000080240DB
:1057F00000200240001401400FB4054B10B503A96E
:10580000044A029800F07CFF10BC5DF814FB000015
:10581000717A00086C01002003B4019841000098DF
:1058200050EAC12018BF04204A0D18BF40F0010003
:1058300040F2FF72B2EB515F08BF40F00200012856
:1058400008BF052002B0704770B59B482DED020BD4
:105850002DED068B079D25F00044A04218DC9748EB
:10586000844202DC0AD1069840B19DED060BBDECE6
:10587000068B02B0BDE8704000F04EBE002DCCBFDC
:105880009FED8F0B9FED900BBDEC068B02B070BDB2
:105890008F48A04215DD8F48A042D8BF4FF0FF349B
:1058A00058DD9DED060B51EC100BFFF7B5FF0428FA
:1058B00008BF00F04DFE9DED060BBDEC068B02B05F
:1058C00070BD9DED060B51EC100B02F0C5F8CDE953
:1058D000060181489FED828BA0423CDD8248A042B8
:1058E0001FDD00249FED82AB9DED060B53EC1A2BC0
:1058F00051EC100BFAF788FC9DED060B41EC190BEF
:1059000053EC1A2B51EC100BFAF725FD53EC182B26
:10591000FAF71BFD53EC192BFAF78FFDCDE90601C1
:1059200049E09DED060B012453EC182B51EC100BB4
:10593000FAF76AFC9DED060B41EC190B53EC182BA2
:1059400051EC100BFAF701FD53EC192BFAF775FD2A
:10595000CDE906012FE06848A0421FDD02249FED3B
:10596000689B9DED060B53EC192B51EC100BFAF7CD
:10597000F2FC53EC182BFAF747FC9DED060B41ECBB
:10598000180B53EC192B51EC100BFAF7DEFC53EC0F
:10599000182BFAF752FDCDE906010CE09DED060B40
:1059A000032453EC102B9FED580B51EC100BFAF71E
:1059B00044FDCDE906019DED060B53EC102B51EC97
:1059C000100BFAF7C8FC41EC180B53EC182BFAF744
:1059D000C2FC41EC190B4E480621B0EE490AF0EE2C
:1059E000690A784400F084FC53EC182B51EC100B3E
:1059F000FAF7B1FC41EC180B4648B0EE490AF0EE5C
:105A0000690A0521784400F073FC53EC192B51EC22
:105A1000100BFAF7A0FC41EC100B51EC180B53ECF7
:105A2000102B002C0EDAFAF7EFFB9DED061B53EC62
:105A3000112BFAF790FC9DED061B53EC112BFAF796
:105A400087FC35E0FAF7E0FB9DED061B53EC112BCC
:105A5000FAF781FC41EC100B2F48784400EBC400AE
:105A600090ED001B51EC100B53EC112BFAF76DFC71
:105A70009DED061B53EC112BFAF767FC41EC100B64
:105A80002648784400EBC40090ED001B51EC100B4D
:105A900053EC112BFAF75CFC41EC100B002DA2BF6C
:105AA000BDEC068B02B070BD51EC100B81F00041D3
:105AB00041EC100B01E70000000010440000F07FF3
:105AC000182D4454FB21F93F182D4454FB21F9BFF4
:105AD0000000DC3F0000203E0000F33F000000001B
